{
	"data": {
		"bytecode": {
			"linkReferences": {},
			"object": "6080604052348015600e575f5ffd5b503360035f6101000a81548173ffffffffffffffffffffffffffffffffffffffff021916908373ffffffffffffffffffffffffffffffffffffffff16021790555061178a8061005c5f395ff3fe608060405234801561000f575f5ffd5b5060043610610091575f3560e01c806386f3c6031161006457806386f3c603146101465780638da5cb5b14610176578063943e821614610194578063b1610d7e146101b0578063e00b6363146101ce57610091565b80634157e6ef1461009557806343859632146100b1578063606d2e96146100e15780636dd0ce7a14610116575b5f5ffd5b6100af60048036038101906100aa9190610b60565b6101ec565b005b6100cb60048036038101906100c69190610be5565b61030b565b6040516100d89190610c3d565b60405180910390f35b6100fb60048036038101906100f69190610b60565b610335565b60405161010d96959493929190610cd5565b60405180910390f35b610130600480360381019061012b9190610b60565b610484565b60405161013d9190610e35565b60405180910390f35b610160600480360381019061015b9190610f81565b610605565b60405161016d9190610ff7565b60405180910390f35b61017e61079f565b60405161018b919061101f565b60405180910390f35b6101ae60048036038101906101a9919061106e565b6107c4565b005b6101b8610adb565b6040516101c59190610ff7565b60405180910390f35b6101d6610ae2565b6040516101e39190610ff7565b60405180910390f35b60035f9054906101000a900473ffffffffffffffffffffffffffffffffffffffff1673ffffffffffffffffffffffffffffffffffffffff163373ffffffffffffffffffffffffffffffffffffffff161461027b576040517f08c379a0000000000000000000000000000000000000000000000000000000008152600401610272906110f6565b60405180910390fd5b62093a805f5f8381526020019081526020015f206005015461029d9190611141565b42116102de576040517f08c379a00000000000000000000000000000000000000000000000000000000081526004016102d5906111be565b60405180910390fd5b5f5f5f8381526020019081526020015f206004015f6101000a81548160ff02191690831515021790555050565b6001602052815f5260405f20602052805f5260405f205f915091509054906101000a900460ff1681565b5f602052805f5260405f205f91509050805f01805461035390611209565b80601f016020809104026020016040519081016040528092919081815260200182805461037f90611209565b80156103ca5780601f106103a1576101008083540402835291602001916103ca565b820191905f5260205f20905b8154815290600101906020018083116103ad57829003601f168201915b5050505050908060010180546103df90611209565b80601f016020809104026020016040519081016040528092919081815260200182805461040b90611209565b80156104565780601f1061042d57610100808354040283529160200191610456565b820191905f5260205f20905b81548152906001019060200180831161043957829003601f168201915b505050505090806002015490806003015490806004015f9054906101000a900460ff16908060050154905086565b61048c610ae8565b5f5f8381526020019081526020015f206040518060c00160405290815f820180546104b690611209565b80601f01602080910402602001604051908101604052809291908181526020018280546104e290611209565b801561052d5780601f106105045761010080835404028352916020019161052d565b820191905f5260205f20905b81548152906001019060200180831161051057829003601f168201915b5050505050815260200160018201805461054690611209565b80601f016020809104026020016040519081016040528092919081815260200182805461057290611209565b80156105bd5780601f10610594576101008083540402835291602001916105bd565b820191905f5260205f20905b8154815290600101906020018083116105a057829003601f168201915b505050505081526020016002820154815260200160038201548152602001600482015f9054906101000a900460ff161515151581526020016005820154815250509050919050565b5f60035f9054906101000a900473ffffffffffffffffffffffffffffffffffffffff1673ffffffffffffffffffffffffffffffffffffffff163373ffffffffffffffffffffffffffffffffffffffff1614610695576040517f08c379a000000000000000000000000000000000000000000000000000000000815260040161068c906110f6565b60405180910390fd5b60025f8154809291906106a790611239565b91905055506040518060c001604052808481526020018381526020015f81526020015f8152602001600115158152602001428152505f5f60025481526020019081526020015f205f820151815f0190816107019190611420565b5060208201518160010190816107179190611420565b5060408201518160020155606082015181600301556080820151816004015f6101000a81548160ff02191690831515021790555060a082015181600501559050506002547f993302b004445be4887eaa46f6e83bf3dfb94f0fa8a144f76841f9a5dd51a183848460405161078c9291906114ef565b60405180910390a2600254905092915050565b60035f9054906101000a900473ffffffffffffffffffffffffffffffffffffffff1681565b60025482111580156107d557505f82115b610814576040517f08c379a000000000000000000000000000000000000000000000000000000000815260040161080b9061156e565b60405180910390fd5b5f5f8381526020019081526020015f206004015f9054906101000a900460ff16610873576040517f08c379a000000000000000000000000000000000000000000000000000000000815260040161086a906115d6565b60405180910390fd5b60015f8381526020019081526020015f205f3373ffffffffffffffffffffffffffffffffffffffff1673ffffffffffffffffffffffffffffffffffffffff1681526020019081526020015f205f9054906101000a900460ff161561090c576040517f08c379a00000000000000000000000000000000000000000000000000000000081526004016109039061163e565b60405180910390fd5b60018160ff161480610921575060028160ff16145b610960576040517f08c379a0000000000000000000000000000000000000000000000000000000008152600401610957906116a6565b60405180910390fd5b62093a805f5f8481526020019081526020015f20600501546109829190611141565b4211156109c4576040517f08c379a00000000000000000000000000000000000000000000000000000000081526004016109bb9061170e565b60405180910390fd5b6001805f8481526020019081526020015f205f3373ffffffffffffffffffffffffffffffffffffffff1673ffffffffffffffffffffffffffffffffffffffff1681526020019081526020015f205f6101000a81548160ff02191690831515021790555060018160ff1603610a5f575f5f8381526020019081526020015f206002015f815480929190610a5590611239565b9190505550610a88565b5f5f8381526020019081526020015f206003015f815480929190610a8290611239565b91905055505b3373ffffffffffffffffffffffffffffffffffffffff16827feba4866100b822f0f391e610e7edfab790b9e8766c0012733c26b2f1858e8dd783604051610acf919061173b565b60405180910390a35050565b62093a8081565b60025481565b6040518060c0016040528060608152602001606081526020015f81526020015f81526020015f151581526020015f81525090565b5f604051905090565b5f5ffd5b5f5ffd5b5f819050919050565b610b3f81610b2d565b8114610b49575f5ffd5b50565b5f81359050610b5a81610b36565b92915050565b5f60208284031215610b7557610b74610b25565b5b5f610b8284828501610b4c565b91505092915050565b5f73ffffffffffffffffffffffffffffffffffffffff82169050919050565b5f610bb482610b8b565b9050919050565b610bc481610baa565b8114610bce575f5ffd5b50565b5f81359050610bdf81610bbb565b92915050565b5f5f60408385031215610bfb57610bfa610b25565b5b5f610c0885828601610b4c565b9250506020610c1985828601610bd1565b9150509250929050565b5f8115159050919050565b610c3781610c23565b82525050565b5f602082019050610c505f830184610c2e565b92915050565b5f81519050919050565b5f82825260208201905092915050565b8281835e5f83830152505050565b5f601f19601f8301169050919050565b5f610c9882610c56565b610ca28185610c60565b9350610cb2818560208601610c70565b610cbb81610c7e565b840191505092915050565b610ccf81610b2d565b82525050565b5f60c0820190508181035f830152610ced8189610c8e565b90508181036020830152610d018188610c8e565b9050610d106040830187610cc6565b610d1d6060830186610cc6565b610d2a6080830185610c2e565b610d3760a0830184610cc6565b979650505050505050565b5f82825260208201905092915050565b5f610d5c82610c56565b610d668185610d42565b9350610d76818560208601610c70565b610d7f81610c7e565b840191505092915050565b610d9381610b2d565b82525050565b610da281610c23565b82525050565b5f60c083015f8301518482035f860152610dc28282610d52565b91505060208301518482036020860152610ddc8282610d52565b9150506040830151610df16040860182610d8a565b506060830151610e046060860182610d8a565b506080830151610e176080860182610d99565b5060a0830151610e2a60a0860182610d8a565b508091505092915050565b5f6020820190508181035f830152610e4d8184610da8565b905092915050565b5f5ffd5b5f5ffd5b7f4e487b71000000000000000000000000000000000000000000000000000000005f52604160045260245ffd5b610e9382610c7e565b810181811067ffffffffffffffff82111715610eb257610eb1610e5d565b5b80604052505050565b5f610ec4610b1c565b9050610ed08282610e8a565b919050565b5f67ffffffffffffffff821115610eef57610eee610e5d565b5b610ef882610c7e565b9050602081019050919050565b828183375f83830152505050565b5f610f25610f2084610ed5565b610ebb565b905082815260208101848484011115610f4157610f40610e59565b5b610f4c848285610f05565b509392505050565b5f82601f830112610f6857610f67610e55565b5b8135610f78848260208601610f13565b91505092915050565b5f5f60408385031215610f9757610f96610b25565b5b5f83013567ffffffffffffffff811115610fb457610fb3610b29565b5b610fc085828601610f54565b925050602083013567ffffffffffffffff811115610fe157610fe0610b29565b5b610fed85828601610f54565b9150509250929050565b5f60208201905061100a5f830184610cc6565b92915050565b61101981610baa565b82525050565b5f6020820190506110325f830184611010565b92915050565b5f60ff82169050919050565b61104d81611038565b8114611057575f5ffd5b50565b5f8135905061106881611044565b92915050565b5f5f6040838503121561108457611083610b25565b5b5f61109185828601610b4c565b92505060206110a28582860161105a565b9150509250929050565b7f4e6f7420617574686f72697a65640000000000000000000000000000000000005f82015250565b5f6110e0600e83610c60565b91506110eb826110ac565b602082019050919050565b5f6020820190508181035f83015261110d816110d4565b9050919050565b7f4e487b71000000000000000000000000000000000000000000000000000000005f52601160045260245ffd5b5f61114b82610b2d565b915061115683610b2d565b925082820190508082111561116e5761116d611114565b5b92915050565b7f566f74696e67207374696c6c20616374697665000000000000000000000000005f82015250565b5f6111a8601383610c60565b91506111b382611174565b602082019050919050565b5f6020820190508181035f8301526111d58161119c565b9050919050565b7f4e487b71000000000000000000000000000000000000000000000000000000005f52602260045260245ffd5b5f600282049050600182168061122057607f821691505b602082108103611233576112326111dc565b5b50919050565b5f61124382610b2d565b91507fffffffffffffffffffffffffffffffffffffffffffffffffffffffffffffffff820361127557611274611114565b5b600182019050919050565b5f819050815f5260205f209050919050565b5f6020601f8301049050919050565b5f82821b905092915050565b5f600883026112dc7fffffffffffffffffffffffffffffffffffffffffffffffffffffffffffffffff826112a1565b6112e686836112a1565b95508019841693508086168417925050509392505050565b5f819050919050565b5f61132161131c61131784610b2d565b6112fe565b610b2d565b9050919050565b5f819050919050565b61133a83611307565b61134e61134682611328565b8484546112ad565b825550505050565b5f5f905090565b611365611356565b611370818484611331565b505050565b5b81811015611393576113885f8261135d565b600181019050611376565b5050565b601f8211156113d8576113a981611280565b6113b284611292565b810160208510156113c1578190505b6113d56113cd85611292565b830182611375565b50505b505050565b5f82821c905092915050565b5f6113f85f19846008026113dd565b1980831691505092915050565b5f61141083836113e9565b9150826002028217905092915050565b61142982610c56565b67ffffffffffffffff81111561144257611441610e5d565b5b61144c8254611209565b611457828285611397565b5f60209050601f831160018114611488575f8415611476578287015190505b6114808582611405565b8655506114e7565b601f19841661149686611280565b5f5b828110156114bd57848901518255600182019150602085019450602081019050611498565b868310156114da57848901516114d6601f8916826113e9565b8355505b6001600288020188555050505b505050505050565b5f6040820190508181035f8301526115078185610c8e565b9050818103602083015261151b8184610c8e565b90509392505050565b7f496e76616c696420626174746c652049440000000000000000000000000000005f82015250565b5f611558601183610c60565b915061156382611524565b602082019050919050565b5f6020820190508181035f8301526115858161154c565b9050919050565b7f426174746c6520696e61637469766500000000000000000000000000000000005f82015250565b5f6115c0600f83610c60565b91506115cb8261158c565b602082019050919050565b5f6020820190508181035f8301526115ed816115b4565b9050919050565b7f416c726561647920766f746564000000000000000000000000000000000000005f82015250565b5f611628600d83610c60565b9150611633826115f4565b602082019050919050565b5f6020820190508181035f8301526116558161161c565b9050919050565b7f496e76616c69642063686f6963650000000000000000000000000000000000005f82015250565b5f611690600e83610c60565b915061169b8261165c565b602082019050919050565b5f6020820190508181035f8301526116bd81611684565b9050919050565b7f566f74696e6720706572696f64206f76657200000000000000000000000000005f82015250565b5f6116f8601283610c60565b9150611703826116c4565b602082019050919050565b5f6020820190508181035f830152611725816116ec565b9050919050565b61173581611038565b82525050565b5f60208201905061174e5f83018461172c565b9291505056fea2646970667358221220b00fdb826b98c11e9dafe2be3c22bbd75eed8bd5d340296284e9841189eded7664736f6c634300081c0033",
			"opcodes": "PUSH1 0x80 PUSH1 0x40 MSTORE CALLVALUE DUP1 ISZERO PUSH1 0xE JUMPI PUSH0 PUSH0 REVERT JUMPDEST POP CALLER PUSH1 0x3 PUSH0 PUSH2 0x100 EXP DUP2 SLOAD DUP2 PUSH20 0xFFFFFFFFFFFFFFFFFFFFFFFFFFFFFFFFFFFFFFFF MUL NOT AND SWAP1 DUP4 PUSH20 0xFFFFFFFFFFFFFFFFFFFFFFFFFFFFFFFFFFFFFFFF AND MUL OR SWAP1 SSTORE POP PUSH2 0x178A DUP1 PUSH2 0x5C PUSH0 CODECOPY PUSH0 RETURN INVALID PUSH1 0x80 PUSH1 0x40 MSTORE CALLVALUE DUP1 ISZERO PUSH2 0xF JUMPI PUSH0 PUSH0 REVERT JUMPDEST POP PUSH1 0x4 CALLDATASIZE LT PUSH2 0x91 JUMPI PUSH0 CALLDATALOAD PUSH1 0xE0 SHR DUP1 PUSH4 0x86F3C603 GT PUSH2 0x64 JUMPI DUP1 PUSH4 0x86F3C603 EQ PUSH2 0x146 JUMPI DUP1 PUSH4 0x8DA5CB5B EQ PUSH2 0x176 JUMPI DUP1 PUSH4 0x943E8216 EQ PUSH2 0x194 JUMPI DUP1 PUSH4 0xB1610D7E EQ PUSH2 0x1B0 JUMPI DUP1 PUSH4 0xE00B6363 EQ PUSH2 0x1CE JUMPI PUSH2 0x91 JUMP JUMPDEST DUP1 PUSH4 0x4157E6EF EQ PUSH2 0x95 JUMPI DUP1 PUSH4 0x43859632 EQ PUSH2 0xB1 JUMPI DUP1 PUSH4 0x606D2E96 EQ PUSH2 0xE1 JUMPI DUP1 PUSH4 0x6DD0CE7A EQ PUSH2 0x116 JUMPI JUMPDEST PUSH0 PUSH0 REVERT JUMPDEST PUSH2 0xAF PUSH1 0x4 DUP1 CALLDATASIZE SUB DUP2 ADD SWAP1 PUSH2 0xAA SWAP2 SWAP1 PUSH2 0xB60 JUMP JUMPDEST PUSH2 0x1EC JUMP JUMPDEST STOP JUMPDEST PUSH2 0xCB PUSH1 0x4 DUP1 CALLDATASIZE SUB DUP2 ADD SWAP1 PUSH2 0xC6 SWAP2 SWAP1 PUSH2 0xBE5 JUMP JUMPDEST PUSH2 0x30B JUMP JUMPDEST PUSH1 0x40 MLOAD PUSH2 0xD8 SWAP2 SWAP1 PUSH2 0xC3D JUMP JUMPDEST PUSH1 0x40 MLOAD DUP1 SWAP2 SUB SWAP1 RETURN JUMPDEST PUSH2 0xFB PUSH1 0x4 DUP1 CALLDATASIZE SUB DUP2 ADD SWAP1 PUSH2 0xF6 SWAP2 SWAP1 PUSH2 0xB60 JUMP JUMPDEST PUSH2 0x335 JUMP JUMPDEST PUSH1 0x40 MLOAD PUSH2 0x10D SWAP7 SWAP6 SWAP5 SWAP4 SWAP3 SWAP2 SWAP1 PUSH2 0xCD5 JUMP JUMPDEST PUSH1 0x40 MLOAD DUP1 SWAP2 SUB SWAP1 RETURN JUMPDEST PUSH2 0x130 PUSH1 0x4 DUP1 CALLDATASIZE SUB DUP2 ADD SWAP1 PUSH2 0x12B SWAP2 SWAP1 PUSH2 0xB60 JUMP JUMPDEST PUSH2 0x484 JUMP JUMPDEST PUSH1 0x40 MLOAD PUSH2 0x13D SWAP2 SWAP1 PUSH2 0xE35 JUMP JUMPDEST PUSH1 0x40 MLOAD DUP1 SWAP2 SUB SWAP1 RETURN JUMPDEST PUSH2 0x160 PUSH1 0x4 DUP1 CALLDATASIZE SUB DUP2 ADD SWAP1 PUSH2 0x15B SWAP2 SWAP1 PUSH2 0xF81 JUMP JUMPDEST PUSH2 0x605 JUMP JUMPDEST PUSH1 0x40 MLOAD PUSH2 0x16D SWAP2 SWAP1 PUSH2 0xFF7 JUMP JUMPDEST PUSH1 0x40 MLOAD DUP1 SWAP2 SUB SWAP1 RETURN JUMPDEST PUSH2 0x17E PUSH2 0x79F JUMP JUMPDEST PUSH1 0x40 MLOAD PUSH2 0x18B SWAP2 SWAP1 PUSH2 0x101F JUMP JUMPDEST PUSH1 0x40 MLOAD DUP1 SWAP2 SUB SWAP1 RETURN JUMPDEST PUSH2 0x1AE PUSH1 0x4 DUP1 CALLDATASIZE SUB DUP2 ADD SWAP1 PUSH2 0x1A9 SWAP2 SWAP1 PUSH2 0x106E JUMP JUMPDEST PUSH2 0x7C4 JUMP JUMPDEST STOP JUMPDEST PUSH2 0x1B8 PUSH2 0xADB JUMP JUMPDEST PUSH1 0x40 MLOAD PUSH2 0x1C5 SWAP2 SWAP1 PUSH2 0xFF7 JUMP JUMPDEST PUSH1 0x40 MLOAD DUP1 SWAP2 SUB SWAP1 RETURN JUMPDEST PUSH2 0x1D6 PUSH2 0xAE2 JUMP JUMPDEST PUSH1 0x40 MLOAD PUSH2 0x1E3 SWAP2 SWAP1 PUSH2 0xFF7 JUMP JUMPDEST PUSH1 0x40 MLOAD DUP1 SWAP2 SUB SWAP1 RETURN JUMPDEST PUSH1 0x3 PUSH0 SWAP1 SLOAD SWAP1 PUSH2 0x100 EXP SWAP1 DIV PUSH20 0xFFFFFFFFFFFFFFFFFFFFFFFFFFFFFFFFFFFFFFFF AND PUSH20 0xFFFFFFFFFFFFFFFFFFFFFFFFFFFFFFFFFFFFFFFF AND CALLER PUSH20 0xFFFFFFFFFFFFFFFFFFFFFFFFFFFFFFFFFFFFFFFF AND EQ PUSH2 0x27B JUMPI PUSH1 0x40 MLOAD PUSH32 0x8C379A000000000000000000000000000000000000000000000000000000000 DUP2 MSTORE PUSH1 0x4 ADD PUSH2 0x272 SWAP1 PUSH2 0x10F6 JUMP JUMPDEST PUSH1 0x40 MLOAD DUP1 SWAP2 SUB SWAP1 REVERT JUMPDEST PUSH3 0x93A80 PUSH0 PUSH0 DUP4 DUP2 MSTORE PUSH1 0x20 ADD SWAP1 DUP2 MSTORE PUSH1 0x20 ADD PUSH0 KECCAK256 PUSH1 0x5 ADD SLOAD PUSH2 0x29D SWAP2 SWAP1 PUSH2 0x1141 JUMP JUMPDEST TIMESTAMP GT PUSH2 0x2DE JUMPI PUSH1 0x40 MLOAD PUSH32 0x8C379A000000000000000000000000000000000000000000000000000000000 DUP2 MSTORE PUSH1 0x4 ADD PUSH2 0x2D5 SWAP1 PUSH2 0x11BE JUMP JUMPDEST PUSH1 0x40 MLOAD DUP1 SWAP2 SUB SWAP1 REVERT JUMPDEST PUSH0 PUSH0 PUSH0 DUP4 DUP2 MSTORE PUSH1 0x20 ADD SWAP1 DUP2 MSTORE PUSH1 0x20 ADD PUSH0 KECCAK256 PUSH1 0x4 ADD PUSH0 PUSH2 0x100 EXP DUP2 SLOAD DUP2 PUSH1 0xFF MUL NOT AND SWAP1 DUP4 ISZERO ISZERO MUL OR SWAP1 SSTORE POP POP JUMP JUMPDEST PUSH1 0x1 PUSH1 0x20 MSTORE DUP2 PUSH0 MSTORE PUSH1 0x40 PUSH0 KECCAK256 PUSH1 0x20 MSTORE DUP1 PUSH0 MSTORE PUSH1 0x40 PUSH0 KECCAK256 PUSH0 SWAP2 POP SWAP2 POP SWAP1 SLOAD SWAP1 PUSH2 0x100 EXP SWAP1 DIV PUSH1 0xFF AND DUP2 JUMP JUMPDEST PUSH0 PUSH1 0x20 MSTORE DUP1 PUSH0 MSTORE PUSH1 0x40 PUSH0 KECCAK256 PUSH0 SWAP2 POP SWAP1 POP DUP1 PUSH0 ADD DUP1 SLOAD PUSH2 0x353 SWAP1 PUSH2 0x1209 JUMP JUMPDEST DUP1 PUSH1 0x1F ADD PUSH1 0x20 DUP1 SWAP2 DIV MUL PUSH1 0x20 ADD PUSH1 0x40 MLOAD SWAP1 DUP2 ADD PUSH1 0x40 MSTORE DUP1 SWAP3 SWAP2 SWAP1 DUP2 DUP2 MSTORE PUSH1 0x20 ADD DUP3 DUP1 SLOAD PUSH2 0x37F SWAP1 PUSH2 0x1209 JUMP JUMPDEST DUP1 ISZERO PUSH2 0x3CA JUMPI DUP1 PUSH1 0x1F LT PUSH2 0x3A1 JUMPI PUSH2 0x100 DUP1 DUP4 SLOAD DIV MUL DUP4 MSTORE SWAP2 PUSH1 0x20 ADD SWAP2 PUSH2 0x3CA JUMP JUMPDEST DUP3 ADD SWAP2 SWAP1 PUSH0 MSTORE PUSH1 0x20 PUSH0 KECCAK256 SWAP1 JUMPDEST DUP2 SLOAD DUP2 MSTORE SWAP1 PUSH1 0x1 ADD SWAP1 PUSH1 0x20 ADD DUP1 DUP4 GT PUSH2 0x3AD JUMPI DUP3 SWAP1 SUB PUSH1 0x1F AND DUP3 ADD SWAP2 JUMPDEST POP POP POP POP POP SWAP1 DUP1 PUSH1 0x1 ADD DUP1 SLOAD PUSH2 0x3DF SWAP1 PUSH2 0x1209 JUMP JUMPDEST DUP1 PUSH1 0x1F ADD PUSH1 0x20 DUP1 SWAP2 DIV MUL PUSH1 0x20 ADD PUSH1 0x40 MLOAD SWAP1 DUP2 ADD PUSH1 0x40 MSTORE DUP1 SWAP3 SWAP2 SWAP1 DUP2 DUP2 MSTORE PUSH1 0x20 ADD DUP3 DUP1 SLOAD PUSH2 0x40B SWAP1 PUSH2 0x1209 JUMP JUMPDEST DUP1 ISZERO PUSH2 0x456 JUMPI DUP1 PUSH1 0x1F LT PUSH2 0x42D JUMPI PUSH2 0x100 DUP1 DUP4 SLOAD DIV MUL DUP4 MSTORE SWAP2 PUSH1 0x20 ADD SWAP2 PUSH2 0x456 JUMP JUMPDEST DUP3 ADD SWAP2 SWAP1 PUSH0 MSTORE PUSH1 0x20 PUSH0 KECCAK256 SWAP1 JUMPDEST DUP2 SLOAD DUP2 MSTORE SWAP1 PUSH1 0x1 ADD SWAP1 PUSH1 0x20 ADD DUP1 DUP4 GT PUSH2 0x439 JUMPI DUP3 SWAP1 SUB PUSH1 0x1F AND DUP3 ADD SWAP2 JUMPDEST POP POP POP POP POP SWAP1 DUP1 PUSH1 0x2 ADD SLOAD SWAP1 DUP1 PUSH1 0x3 ADD SLOAD SWAP1 DUP1 PUSH1 0x4 ADD PUSH0 SWAP1 SLOAD SWAP1 PUSH2 0x100 EXP SWAP1 DIV PUSH1 0xFF AND SWAP1 DUP1 PUSH1 0x5 ADD SLOAD SWAP1 POP DUP7 JUMP JUMPDEST PUSH2 0x48C PUSH2 0xAE8 JUMP JUMPDEST PUSH0 PUSH0 DUP4 DUP2 MSTORE PUSH1 0x20 ADD SWAP1 DUP2 MSTORE PUSH1 0x20 ADD PUSH0 KECCAK256 PUSH1 0x40 MLOAD DUP1 PUSH1 0xC0 ADD PUSH1 0x40 MSTORE SWAP1 DUP2 PUSH0 DUP3 ADD DUP1 SLOAD PUSH2 0x4B6 SWAP1 PUSH2 0x1209 JUMP JUMPDEST DUP1 PUSH1 0x1F ADD PUSH1 0x20 DUP1 SWAP2 DIV MUL PUSH1 0x20 ADD PUSH1 0x40 MLOAD SWAP1 DUP2 ADD PUSH1 0x40 MSTORE DUP1 SWAP3 SWAP2 SWAP1 DUP2 DUP2 MSTORE PUSH1 0x20 ADD DUP3 DUP1 SLOAD PUSH2 0x4E2 SWAP1 PUSH2 0x1209 JUMP JUMPDEST DUP1 ISZERO PUSH2 0x52D JUMPI DUP1 PUSH1 0x1F LT PUSH2 0x504 JUMPI PUSH2 0x100 DUP1 DUP4 SLOAD DIV MUL DUP4 MSTORE SWAP2 PUSH1 0x20 ADD SWAP2 PUSH2 0x52D JUMP JUMPDEST DUP3 ADD SWAP2 SWAP1 PUSH0 MSTORE PUSH1 0x20 PUSH0 KECCAK256 SWAP1 JUMPDEST DUP2 SLOAD DUP2 MSTORE SWAP1 PUSH1 0x1 ADD SWAP1 PUSH1 0x20 ADD DUP1 DUP4 GT PUSH2 0x510 JUMPI DUP3 SWAP1 SUB PUSH1 0x1F AND DUP3 ADD SWAP2 JUMPDEST POP POP POP POP POP DUP2 MSTORE PUSH1 0x20 ADD PUSH1 0x1 DUP3 ADD DUP1 SLOAD PUSH2 0x546 SWAP1 PUSH2 0x1209 JUMP JUMPDEST DUP1 PUSH1 0x1F ADD PUSH1 0x20 DUP1 SWAP2 DIV MUL PUSH1 0x20 ADD PUSH1 0x40 MLOAD SWAP1 DUP2 ADD PUSH1 0x40 MSTORE DUP1 SWAP3 SWAP2 SWAP1 DUP2 DUP2 MSTORE PUSH1 0x20 ADD DUP3 DUP1 SLOAD PUSH2 0x572 SWAP1 PUSH2 0x1209 JUMP JUMPDEST DUP1 ISZERO PUSH2 0x5BD JUMPI DUP1 PUSH1 0x1F LT PUSH2 0x594 JUMPI PUSH2 0x100 DUP1 DUP4 SLOAD DIV MUL DUP4 MSTORE SWAP2 PUSH1 0x20 ADD SWAP2 PUSH2 0x5BD JUMP JUMPDEST DUP3 ADD SWAP2 SWAP1 PUSH0 MSTORE PUSH1 0x20 PUSH0 KECCAK256 SWAP1 JUMPDEST DUP2 SLOAD DUP2 MSTORE SWAP1 PUSH1 0x1 ADD SWAP1 PUSH1 0x20 ADD DUP1 DUP4 GT PUSH2 0x5A0 JUMPI DUP3 SWAP1 SUB PUSH1 0x1F AND DUP3 ADD SWAP2 JUMPDEST POP POP POP POP POP DUP2 MSTORE PUSH1 0x20 ADD PUSH1 0x2 DUP3 ADD SLOAD DUP2 MSTORE PUSH1 0x20 ADD PUSH1 0x3 DUP3 ADD SLOAD DUP2 MSTORE PUSH1 0x20 ADD PUSH1 0x4 DUP3 ADD PUSH0 SWAP1 SLOAD SWAP1 PUSH2 0x100 EXP SWAP1 DIV PUSH1 0xFF AND ISZERO ISZERO ISZERO ISZERO DUP2 MSTORE PUSH1 0x20 ADD PUSH1 0x5 DUP3 ADD SLOAD DUP2 MSTORE POP POP SWAP1 POP SWAP2 SWAP1 POP JUMP JUMPDEST PUSH0 PUSH1 0x3 PUSH0 SWAP1 SLOAD SWAP1 PUSH2 0x100 EXP SWAP1 DIV PUSH20 0xFFFFFFFFFFFFFFFFFFFFFFFFFFFFFFFFFFFFFFFF AND PUSH20 0xFFFFFFFFFFFFFFFFFFFFFFFFFFFFFFFFFFFFFFFF AND CALLER PUSH20 0xFFFFFFFFFFFFFFFFFFFFFFFFFFFFFFFFFFFFFFFF AND EQ PUSH2 0x695 JUMPI PUSH1 0x40 MLOAD PUSH32 0x8C379A000000000000000000000000000000000000000000000000000000000 DUP2 MSTORE PUSH1 0x4 ADD PUSH2 0x68C SWAP1 PUSH2 0x10F6 JUMP JUMPDEST PUSH1 0x40 MLOAD DUP1 SWAP2 SUB SWAP1 REVERT JUMPDEST PUSH1 0x2 PUSH0 DUP2 SLOAD DUP1 SWAP3 SWAP2 SWAP1 PUSH2 0x6A7 SWAP1 PUSH2 0x1239 JUMP JUMPDEST SWAP2 SWAP1 POP SSTORE POP PUSH1 0x40 MLOAD DUP1 PUSH1 0xC0 ADD PUSH1 0x40 MSTORE DUP1 DUP5 DUP2 MSTORE PUSH1 0x20 ADD DUP4 DUP2 MSTORE PUSH1 0x20 ADD PUSH0 DUP2 MSTORE PUSH1 0x20 ADD PUSH0 DUP2 MSTORE PUSH1 0x20 ADD PUSH1 0x1 ISZERO ISZERO DUP2 MSTORE PUSH1 0x20 ADD TIMESTAMP DUP2 MSTORE POP PUSH0 PUSH0 PUSH1 0x2 SLOAD DUP2 MSTORE PUSH1 0x20 ADD SWAP1 DUP2 MSTORE PUSH1 0x20 ADD PUSH0 KECCAK256 PUSH0 DUP3 ADD MLOAD DUP2 PUSH0 ADD SWAP1 DUP2 PUSH2 0x701 SWAP2 SWAP1 PUSH2 0x1420 JUMP JUMPDEST POP PUSH1 0x20 DUP3 ADD MLOAD DUP2 PUSH1 0x1 ADD SWAP1 DUP2 PUSH2 0x717 SWAP2 SWAP1 PUSH2 0x1420 JUMP JUMPDEST POP PUSH1 0x40 DUP3 ADD MLOAD DUP2 PUSH1 0x2 ADD SSTORE PUSH1 0x60 DUP3 ADD MLOAD DUP2 PUSH1 0x3 ADD SSTORE PUSH1 0x80 DUP3 ADD MLOAD DUP2 PUSH1 0x4 ADD PUSH0 PUSH2 0x100 EXP DUP2 SLOAD DUP2 PUSH1 0xFF MUL NOT AND SWAP1 DUP4 ISZERO ISZERO MUL OR SWAP1 SSTORE POP PUSH1 0xA0 DUP3 ADD MLOAD DUP2 PUSH1 0x5 ADD SSTORE SWAP1 POP POP PUSH1 0x2 SLOAD PUSH32 0x993302B004445BE4887EAA46F6E83BF3DFB94F0FA8A144F76841F9A5DD51A183 DUP5 DUP5 PUSH1 0x40 MLOAD PUSH2 0x78C SWAP3 SWAP2 SWAP1 PUSH2 0x14EF JUMP JUMPDEST PUSH1 0x40 MLOAD DUP1 SWAP2 SUB SWAP1 LOG2 PUSH1 0x2 SLOAD SWAP1 POP SWAP3 SWAP2 POP POP JUMP JUMPDEST PUSH1 0x3 PUSH0 SWAP1 SLOAD SWAP1 PUSH2 0x100 EXP SWAP1 DIV PUSH20 0xFFFFFFFFFFFFFFFFFFFFFFFFFFFFFFFFFFFFFFFF AND DUP2 JUMP JUMPDEST PUSH1 0x2 SLOAD DUP3 GT ISZERO DUP1 ISZERO PUSH2 0x7D5 JUMPI POP PUSH0 DUP3 GT JUMPDEST PUSH2 0x814 JUMPI PUSH1 0x40 MLOAD PUSH32 0x8C379A000000000000000000000000000000000000000000000000000000000 DUP2 MSTORE PUSH1 0x4 ADD PUSH2 0x80B SWAP1 PUSH2 0x156E JUMP JUMPDEST PUSH1 0x40 MLOAD DUP1 SWAP2 SUB SWAP1 REVERT JUMPDEST PUSH0 PUSH0 DUP4 DUP2 MSTORE PUSH1 0x20 ADD SWAP1 DUP2 MSTORE PUSH1 0x20 ADD PUSH0 KECCAK256 PUSH1 0x4 ADD PUSH0 SWAP1 SLOAD SWAP1 PUSH2 0x100 EXP SWAP1 DIV PUSH1 0xFF AND PUSH2 0x873 JUMPI PUSH1 0x40 MLOAD PUSH32 0x8C379A000000000000000000000000000000000000000000000000000000000 DUP2 MSTORE PUSH1 0x4 ADD PUSH2 0x86A SWAP1 PUSH2 0x15D6 JUMP JUMPDEST PUSH1 0x40 MLOAD DUP1 SWAP2 SUB SWAP1 REVERT JUMPDEST PUSH1 0x1 PUSH0 DUP4 DUP2 MSTORE PUSH1 0x20 ADD SWAP1 DUP2 MSTORE PUSH1 0x20 ADD PUSH0 KECCAK256 PUSH0 CALLER PUSH20 0xFFFFFFFFFFFFFFFFFFFFFFFFFFFFFFFFFFFFFFFF AND PUSH20 0xFFFFFFFFFFFFFFFFFFFFFFFFFFFFFFFFFFFFFFFF AND DUP2 MSTORE PUSH1 0x20 ADD SWAP1 DUP2 MSTORE PUSH1 0x20 ADD PUSH0 KECCAK256 PUSH0 SWAP1 SLOAD SWAP1 PUSH2 0x100 EXP SWAP1 DIV PUSH1 0xFF AND ISZERO PUSH2 0x90C JUMPI PUSH1 0x40 MLOAD PUSH32 0x8C379A000000000000000000000000000000000000000000000000000000000 DUP2 MSTORE PUSH1 0x4 ADD PUSH2 0x903 SWAP1 PUSH2 0x163E JUMP JUMPDEST PUSH1 0x40 MLOAD DUP1 SWAP2 SUB SWAP1 REVERT JUMPDEST PUSH1 0x1 DUP2 PUSH1 0xFF AND EQ DUP1 PUSH2 0x921 JUMPI POP PUSH1 0x2 DUP2 PUSH1 0xFF AND EQ JUMPDEST PUSH2 0x960 JUMPI PUSH1 0x40 MLOAD PUSH32 0x8C379A000000000000000000000000000000000000000000000000000000000 DUP2 MSTORE PUSH1 0x4 ADD PUSH2 0x957 SWAP1 PUSH2 0x16A6 JUMP JUMPDEST PUSH1 0x40 MLOAD DUP1 SWAP2 SUB SWAP1 REVERT JUMPDEST PUSH3 0x93A80 PUSH0 PUSH0 DUP5 DUP2 MSTORE PUSH1 0x20 ADD SWAP1 DUP2 MSTORE PUSH1 0x20 ADD PUSH0 KECCAK256 PUSH1 0x5 ADD SLOAD PUSH2 0x982 SWAP2 SWAP1 PUSH2 0x1141 JUMP JUMPDEST TIMESTAMP GT ISZERO PUSH2 0x9C4 JUMPI PUSH1 0x40 MLOAD PUSH32 0x8C379A000000000000000000000000000000000000000000000000000000000 DUP2 MSTORE PUSH1 0x4 ADD PUSH2 0x9BB SWAP1 PUSH2 0x170E JUMP JUMPDEST PUSH1 0x40 MLOAD DUP1 SWAP2 SUB SWAP1 REVERT JUMPDEST PUSH1 0x1 DUP1 PUSH0 DUP5 DUP2 MSTORE PUSH1 0x20 ADD SWAP1 DUP2 MSTORE PUSH1 0x20 ADD PUSH0 KECCAK256 PUSH0 CALLER PUSH20 0xFFFFFFFFFFFFFFFFFFFFFFFFFFFFFFFFFFFFFFFF AND PUSH20 0xFFFFFFFFFFFFFFFFFFFFFFFFFFFFFFFFFFFFFFFF AND DUP2 MSTORE PUSH1 0x20 ADD SWAP1 DUP2 MSTORE PUSH1 0x20 ADD PUSH0 KECCAK256 PUSH0 PUSH2 0x100 EXP DUP2 SLOAD DUP2 PUSH1 0xFF MUL NOT AND SWAP1 DUP4 ISZERO ISZERO MUL OR SWAP1 SSTORE POP PUSH1 0x1 DUP2 PUSH1 0xFF AND SUB PUSH2 0xA5F JUMPI PUSH0 PUSH0 DUP4 DUP2 MSTORE PUSH1 0x20 ADD SWAP1 DUP2 MSTORE PUSH1 0x20 ADD PUSH0 KECCAK256 PUSH1 0x2 ADD PUSH0 DUP2 SLOAD DUP1 SWAP3 SWAP2 SWAP1 PUSH2 0xA55 SWAP1 PUSH2 0x1239 JUMP JUMPDEST SWAP2 SWAP1 POP SSTORE POP PUSH2 0xA88 JUMP JUMPDEST PUSH0 PUSH0 DUP4 DUP2 MSTORE PUSH1 0x20 ADD SWAP1 DUP2 MSTORE PUSH1 0x20 ADD PUSH0 KECCAK256 PUSH1 0x3 ADD PUSH0 DUP2 SLOAD DUP1 SWAP3 SWAP2 SWAP1 PUSH2 0xA82 SWAP1 PUSH2 0x1239 JUMP JUMPDEST SWAP2 SWAP1 POP SSTORE POP JUMPDEST CALLER PUSH20 0xFFFFFFFFFFFFFFFFFFFFFFFFFFFFFFFFFFFFFFFF AND DUP3 PUSH32 0xEBA4866100B822F0F391E610E7EDFAB790B9E8766C0012733C26B2F1858E8DD7 DUP4 PUSH1 0x40 MLOAD PUSH2 0xACF SWAP2 SWAP1 PUSH2 0x173B JUMP JUMPDEST PUSH1 0x40 MLOAD DUP1 SWAP2 SUB SWAP1 LOG3 POP POP JUMP JUMPDEST PUSH3 0x93A80 DUP2 JUMP JUMPDEST PUSH1 0x2 SLOAD DUP2 JUMP JUMPDEST PUSH1 0x40 MLOAD DUP1 PUSH1 0xC0 ADD PUSH1 0x40 MSTORE DUP1 PUSH1 0x60 DUP2 MSTORE PUSH1 0x20 ADD PUSH1 0x60 DUP2 MSTORE PUSH1 0x20 ADD PUSH0 DUP2 MSTORE PUSH1 0x20 ADD PUSH0 DUP2 MSTORE PUSH1 0x20 ADD PUSH0 ISZERO ISZERO DUP2 MSTORE PUSH1 0x20 ADD PUSH0 DUP2 MSTORE POP SWAP1 JUMP JUMPDEST PUSH0 PUSH1 0x40 MLOAD SWAP1 POP SWAP1 JUMP JUMPDEST PUSH0 PUSH0 REVERT JUMPDEST PUSH0 PUSH0 REVERT JUMPDEST PUSH0 DUP2 SWAP1 POP SWAP2 SWAP1 POP JUMP JUMPDEST PUSH2 0xB3F DUP2 PUSH2 0xB2D JUMP JUMPDEST DUP2 EQ PUSH2 0xB49 JUMPI PUSH0 PUSH0 REVERT JUMPDEST POP JUMP JUMPDEST PUSH0 DUP2 CALLDATALOAD SWAP1 POP PUSH2 0xB5A DUP2 PUSH2 0xB36 JUMP JUMPDEST SWAP3 SWAP2 POP POP JUMP JUMPDEST PUSH0 PUSH1 0x20 DUP3 DUP5 SUB SLT ISZERO PUSH2 0xB75 JUMPI PUSH2 0xB74 PUSH2 0xB25 JUMP JUMPDEST JUMPDEST PUSH0 PUSH2 0xB82 DUP5 DUP3 DUP6 ADD PUSH2 0xB4C JUMP JUMPDEST SWAP2 POP POP SWAP3 SWAP2 POP POP JUMP JUMPDEST PUSH0 PUSH20 0xFFFFFFFFFFFFFFFFFFFFFFFFFFFFFFFFFFFFFFFF DUP3 AND SWAP1 POP SWAP2 SWAP1 POP JUMP JUMPDEST PUSH0 PUSH2 0xBB4 DUP3 PUSH2 0xB8B JUMP JUMPDEST SWAP1 POP SWAP2 SWAP1 POP JUMP JUMPDEST PUSH2 0xBC4 DUP2 PUSH2 0xBAA JUMP JUMPDEST DUP2 EQ PUSH2 0xBCE JUMPI PUSH0 PUSH0 REVERT JUMPDEST POP JUMP JUMPDEST PUSH0 DUP2 CALLDATALOAD SWAP1 POP PUSH2 0xBDF DUP2 PUSH2 0xBBB JUMP JUMPDEST SWAP3 SWAP2 POP POP JUMP JUMPDEST PUSH0 PUSH0 PUSH1 0x40 DUP4 DUP6 SUB SLT ISZERO PUSH2 0xBFB JUMPI PUSH2 0xBFA PUSH2 0xB25 JUMP JUMPDEST JUMPDEST PUSH0 PUSH2 0xC08 DUP6 DUP3 DUP7 ADD PUSH2 0xB4C JUMP JUMPDEST SWAP3 POP POP PUSH1 0x20 PUSH2 0xC19 DUP6 DUP3 DUP7 ADD PUSH2 0xBD1 JUMP JUMPDEST SWAP2 POP POP SWAP3 POP SWAP3 SWAP1 POP JUMP JUMPDEST PUSH0 DUP2 ISZERO ISZERO SWAP1 POP SWAP2 SWAP1 POP JUMP JUMPDEST PUSH2 0xC37 DUP2 PUSH2 0xC23 JUMP JUMPDEST DUP3 MSTORE POP POP JUMP JUMPDEST PUSH0 PUSH1 0x20 DUP3 ADD SWAP1 POP PUSH2 0xC50 PUSH0 DUP4 ADD DUP5 PUSH2 0xC2E JUMP JUMPDEST SWAP3 SWAP2 POP POP JUMP JUMPDEST PUSH0 DUP2 MLOAD SWAP1 POP SWAP2 SWAP1 POP JUMP JUMPDEST PUSH0 DUP3 DUP3 MSTORE PUSH1 0x20 DUP3 ADD SWAP1 POP SWAP3 SWAP2 POP POP JUMP JUMPDEST DUP3 DUP2 DUP4 MCOPY PUSH0 DUP4 DUP4 ADD MSTORE POP POP POP JUMP JUMPDEST PUSH0 PUSH1 0x1F NOT PUSH1 0x1F DUP4 ADD AND SWAP1 POP SWAP2 SWAP1 POP JUMP JUMPDEST PUSH0 PUSH2 0xC98 DUP3 PUSH2 0xC56 JUMP JUMPDEST PUSH2 0xCA2 DUP2 DUP6 PUSH2 0xC60 JUMP JUMPDEST SWAP4 POP PUSH2 0xCB2 DUP2 DUP6 PUSH1 0x20 DUP7 ADD PUSH2 0xC70 JUMP JUMPDEST PUSH2 0xCBB DUP2 PUSH2 0xC7E JUMP JUMPDEST DUP5 ADD SWAP2 POP POP SWAP3 SWAP2 POP POP JUMP JUMPDEST PUSH2 0xCCF DUP2 PUSH2 0xB2D JUMP JUMPDEST DUP3 MSTORE POP POP JUMP JUMPDEST PUSH0 PUSH1 0xC0 DUP3 ADD SWAP1 POP DUP2 DUP2 SUB PUSH0 DUP4 ADD MSTORE PUSH2 0xCED DUP2 DUP10 PUSH2 0xC8E JUMP JUMPDEST SWAP1 POP DUP2 DUP2 SUB PUSH1 0x20 DUP4 ADD MSTORE PUSH2 0xD01 DUP2 DUP9 PUSH2 0xC8E JUMP JUMPDEST SWAP1 POP PUSH2 0xD10 PUSH1 0x40 DUP4 ADD DUP8 PUSH2 0xCC6 JUMP JUMPDEST PUSH2 0xD1D PUSH1 0x60 DUP4 ADD DUP7 PUSH2 0xCC6 JUMP JUMPDEST PUSH2 0xD2A PUSH1 0x80 DUP4 ADD DUP6 PUSH2 0xC2E JUMP JUMPDEST PUSH2 0xD37 PUSH1 0xA0 DUP4 ADD DUP5 PUSH2 0xCC6 JUMP JUMPDEST SWAP8 SWAP7 POP POP POP POP POP POP POP JUMP JUMPDEST PUSH0 DUP3 DUP3 MSTORE PUSH1 0x20 DUP3 ADD SWAP1 POP SWAP3 SWAP2 POP POP JUMP JUMPDEST PUSH0 PUSH2 0xD5C DUP3 PUSH2 0xC56 JUMP JUMPDEST PUSH2 0xD66 DUP2 DUP6 PUSH2 0xD42 JUMP JUMPDEST SWAP4 POP PUSH2 0xD76 DUP2 DUP6 PUSH1 0x20 DUP7 ADD PUSH2 0xC70 JUMP JUMPDEST PUSH2 0xD7F DUP2 PUSH2 0xC7E JUMP JUMPDEST DUP5 ADD SWAP2 POP POP SWAP3 SWAP2 POP POP JUMP JUMPDEST PUSH2 0xD93 DUP2 PUSH2 0xB2D JUMP JUMPDEST DUP3 MSTORE POP POP JUMP JUMPDEST PUSH2 0xDA2 DUP2 PUSH2 0xC23 JUMP JUMPDEST DUP3 MSTORE POP POP JUMP JUMPDEST PUSH0 PUSH1 0xC0 DUP4 ADD PUSH0 DUP4 ADD MLOAD DUP5 DUP3 SUB PUSH0 DUP7 ADD MSTORE PUSH2 0xDC2 DUP3 DUP3 PUSH2 0xD52 JUMP JUMPDEST SWAP2 POP POP PUSH1 0x20 DUP4 ADD MLOAD DUP5 DUP3 SUB PUSH1 0x20 DUP7 ADD MSTORE PUSH2 0xDDC DUP3 DUP3 PUSH2 0xD52 JUMP JUMPDEST SWAP2 POP POP PUSH1 0x40 DUP4 ADD MLOAD PUSH2 0xDF1 PUSH1 0x40 DUP7 ADD DUP3 PUSH2 0xD8A JUMP JUMPDEST POP PUSH1 0x60 DUP4 ADD MLOAD PUSH2 0xE04 PUSH1 0x60 DUP7 ADD DUP3 PUSH2 0xD8A JUMP JUMPDEST POP PUSH1 0x80 DUP4 ADD MLOAD PUSH2 0xE17 PUSH1 0x80 DUP7 ADD DUP3 PUSH2 0xD99 JUMP JUMPDEST POP PUSH1 0xA0 DUP4 ADD MLOAD PUSH2 0xE2A PUSH1 0xA0 DUP7 ADD DUP3 PUSH2 0xD8A JUMP JUMPDEST POP DUP1 SWAP2 POP POP SWAP3 SWAP2 POP POP JUMP JUMPDEST PUSH0 PUSH1 0x20 DUP3 ADD SWAP1 POP DUP2 DUP2 SUB PUSH0 DUP4 ADD MSTORE PUSH2 0xE4D DUP2 DUP5 PUSH2 0xDA8 JUMP JUMPDEST SWAP1 POP SWAP3 SWAP2 POP POP JUMP JUMPDEST PUSH0 PUSH0 REVERT JUMPDEST PUSH0 PUSH0 REVERT JUMPDEST PUSH32 0x4E487B7100000000000000000000000000000000000000000000000000000000 PUSH0 MSTORE PUSH1 0x41 PUSH1 0x4 MSTORE PUSH1 0x24 PUSH0 REVERT JUMPDEST PUSH2 0xE93 DUP3 PUSH2 0xC7E JUMP JUMPDEST DUP2 ADD DUP2 DUP2 LT PUSH8 0xFFFFFFFFFFFFFFFF DUP3 GT OR ISZERO PUSH2 0xEB2 JUMPI PUSH2 0xEB1 PUSH2 0xE5D JUMP JUMPDEST JUMPDEST DUP1 PUSH1 0x40 MSTORE POP POP POP JUMP JUMPDEST PUSH0 PUSH2 0xEC4 PUSH2 0xB1C JUMP JUMPDEST SWAP1 POP PUSH2 0xED0 DUP3 DUP3 PUSH2 0xE8A JUMP JUMPDEST SWAP2 SWAP1 POP JUMP JUMPDEST PUSH0 PUSH8 0xFFFFFFFFFFFFFFFF DUP3 GT ISZERO PUSH2 0xEEF JUMPI PUSH2 0xEEE PUSH2 0xE5D JUMP JUMPDEST JUMPDEST PUSH2 0xEF8 DUP3 PUSH2 0xC7E JUMP JUMPDEST SWAP1 POP PUSH1 0x20 DUP2 ADD SWAP1 POP SWAP2 SWAP1 POP JUMP JUMPDEST DUP3 DUP2 DUP4 CALLDATACOPY PUSH0 DUP4 DUP4 ADD MSTORE POP POP POP JUMP JUMPDEST PUSH0 PUSH2 0xF25 PUSH2 0xF20 DUP5 PUSH2 0xED5 JUMP JUMPDEST PUSH2 0xEBB JUMP JUMPDEST SWAP1 POP DUP3 DUP2 MSTORE PUSH1 0x20 DUP2 ADD DUP5 DUP5 DUP5 ADD GT ISZERO PUSH2 0xF41 JUMPI PUSH2 0xF40 PUSH2 0xE59 JUMP JUMPDEST JUMPDEST PUSH2 0xF4C DUP5 DUP3 DUP6 PUSH2 0xF05 JUMP JUMPDEST POP SWAP4 SWAP3 POP POP POP JUMP JUMPDEST PUSH0 DUP3 PUSH1 0x1F DUP4 ADD SLT PUSH2 0xF68 JUMPI PUSH2 0xF67 PUSH2 0xE55 JUMP JUMPDEST JUMPDEST DUP2 CALLDATALOAD PUSH2 0xF78 DUP5 DUP3 PUSH1 0x20 DUP7 ADD PUSH2 0xF13 JUMP JUMPDEST SWAP2 POP POP SWAP3 SWAP2 POP POP JUMP JUMPDEST PUSH0 PUSH0 PUSH1 0x40 DUP4 DUP6 SUB SLT ISZERO PUSH2 0xF97 JUMPI PUSH2 0xF96 PUSH2 0xB25 JUMP JUMPDEST JUMPDEST PUSH0 DUP4 ADD CALLDATALOAD PUSH8 0xFFFFFFFFFFFFFFFF DUP2 GT ISZERO PUSH2 0xFB4 JUMPI PUSH2 0xFB3 PUSH2 0xB29 JUMP JUMPDEST JUMPDEST PUSH2 0xFC0 DUP6 DUP3 DUP7 ADD PUSH2 0xF54 JUMP JUMPDEST SWAP3 POP POP PUSH1 0x20 DUP4 ADD CALLDATALOAD PUSH8 0xFFFFFFFFFFFFFFFF DUP2 GT ISZERO PUSH2 0xFE1 JUMPI PUSH2 0xFE0 PUSH2 0xB29 JUMP JUMPDEST JUMPDEST PUSH2 0xFED DUP6 DUP3 DUP7 ADD PUSH2 0xF54 JUMP JUMPDEST SWAP2 POP POP SWAP3 POP SWAP3 SWAP1 POP JUMP JUMPDEST PUSH0 PUSH1 0x20 DUP3 ADD SWAP1 POP PUSH2 0x100A PUSH0 DUP4 ADD DUP5 PUSH2 0xCC6 JUMP JUMPDEST SWAP3 SWAP2 POP POP JUMP JUMPDEST PUSH2 0x1019 DUP2 PUSH2 0xBAA JUMP JUMPDEST DUP3 MSTORE POP POP JUMP JUMPDEST PUSH0 PUSH1 0x20 DUP3 ADD SWAP1 POP PUSH2 0x1032 PUSH0 DUP4 ADD DUP5 PUSH2 0x1010 JUMP JUMPDEST SWAP3 SWAP2 POP POP JUMP JUMPDEST PUSH0 PUSH1 0xFF DUP3 AND SWAP1 POP SWAP2 SWAP1 POP JUMP JUMPDEST PUSH2 0x104D DUP2 PUSH2 0x1038 JUMP JUMPDEST DUP2 EQ PUSH2 0x1057 JUMPI PUSH0 PUSH0 REVERT JUMPDEST POP JUMP JUMPDEST PUSH0 DUP2 CALLDATALOAD SWAP1 POP PUSH2 0x1068 DUP2 PUSH2 0x1044 JUMP JUMPDEST SWAP3 SWAP2 POP POP JUMP JUMPDEST PUSH0 PUSH0 PUSH1 0x40 DUP4 DUP6 SUB SLT ISZERO PUSH2 0x1084 JUMPI PUSH2 0x1083 PUSH2 0xB25 JUMP JUMPDEST JUMPDEST PUSH0 PUSH2 0x1091 DUP6 DUP3 DUP7 ADD PUSH2 0xB4C JUMP JUMPDEST SWAP3 POP POP PUSH1 0x20 PUSH2 0x10A2 DUP6 DUP3 DUP7 ADD PUSH2 0x105A JUMP JUMPDEST SWAP2 POP POP SWAP3 POP SWAP3 SWAP1 POP JUMP JUMPDEST PUSH32 0x4E6F7420617574686F72697A6564000000000000000000000000000000000000 PUSH0 DUP3 ADD MSTORE POP JUMP JUMPDEST PUSH0 PUSH2 0x10E0 PUSH1 0xE DUP4 PUSH2 0xC60 JUMP JUMPDEST SWAP2 POP PUSH2 0x10EB DUP3 PUSH2 0x10AC JUMP JUMPDEST PUSH1 0x20 DUP3 ADD SWAP1 POP SWAP2 SWAP1 POP JUMP JUMPDEST PUSH0 PUSH1 0x20 DUP3 ADD SWAP1 POP DUP2 DUP2 SUB PUSH0 DUP4 ADD MSTORE PUSH2 0x110D DUP2 PUSH2 0x10D4 JUMP JUMPDEST SWAP1 POP SWAP2 SWAP1 POP JUMP JUMPDEST PUSH32 0x4E487B7100000000000000000000000000000000000000000000000000000000 PUSH0 MSTORE PUSH1 0x11 PUSH1 0x4 MSTORE PUSH1 0x24 PUSH0 REVERT JUMPDEST PUSH0 PUSH2 0x114B DUP3 PUSH2 0xB2D JUMP JUMPDEST SWAP2 POP PUSH2 0x1156 DUP4 PUSH2 0xB2D JUMP JUMPDEST SWAP3 POP DUP3 DUP3 ADD SWAP1 POP DUP1 DUP3 GT ISZERO PUSH2 0x116E JUMPI PUSH2 0x116D PUSH2 0x1114 JUMP JUMPDEST JUMPDEST SWAP3 SWAP2 POP POP JUMP JUMPDEST PUSH32 0x566F74696E67207374696C6C2061637469766500000000000000000000000000 PUSH0 DUP3 ADD MSTORE POP JUMP JUMPDEST PUSH0 PUSH2 0x11A8 PUSH1 0x13 DUP4 PUSH2 0xC60 JUMP JUMPDEST SWAP2 POP PUSH2 0x11B3 DUP3 PUSH2 0x1174 JUMP JUMPDEST PUSH1 0x20 DUP3 ADD SWAP1 POP SWAP2 SWAP1 POP JUMP JUMPDEST PUSH0 PUSH1 0x20 DUP3 ADD SWAP1 POP DUP2 DUP2 SUB PUSH0 DUP4 ADD MSTORE PUSH2 0x11D5 DUP2 PUSH2 0x119C JUMP JUMPDEST SWAP1 POP SWAP2 SWAP1 POP JUMP JUMPDEST PUSH32 0x4E487B7100000000000000000000000000000000000000000000000000000000 PUSH0 MSTORE PUSH1 0x22 PUSH1 0x4 MSTORE PUSH1 0x24 PUSH0 REVERT JUMPDEST PUSH0 PUSH1 0x2 DUP3 DIV SWAP1 POP PUSH1 0x1 DUP3 AND DUP1 PUSH2 0x1220 JUMPI PUSH1 0x7F DUP3 AND SWAP2 POP JUMPDEST PUSH1 0x20 DUP3 LT DUP2 SUB PUSH2 0x1233 JUMPI PUSH2 0x1232 PUSH2 0x11DC JUMP JUMPDEST JUMPDEST POP SWAP2 SWAP1 POP JUMP JUMPDEST PUSH0 PUSH2 0x1243 DUP3 PUSH2 0xB2D JUMP JUMPDEST SWAP2 POP PUSH32 0xFFFFFFFFFFFFFFFFFFFFFFFFFFFFFFFFFFFFFFFFFFFFFFFFFFFFFFFFFFFFFFFF DUP3 SUB PUSH2 0x1275 JUMPI PUSH2 0x1274 PUSH2 0x1114 JUMP JUMPDEST JUMPDEST PUSH1 0x1 DUP3 ADD SWAP1 POP SWAP2 SWAP1 POP JUMP JUMPDEST PUSH0 DUP2 SWAP1 POP DUP2 PUSH0 MSTORE PUSH1 0x20 PUSH0 KECCAK256 SWAP1 POP SWAP2 SWAP1 POP JUMP JUMPDEST PUSH0 PUSH1 0x20 PUSH1 0x1F DUP4 ADD DIV SWAP1 POP SWAP2 SWAP1 POP JUMP JUMPDEST PUSH0 DUP3 DUP3 SHL SWAP1 POP SWAP3 SWAP2 POP POP JUMP JUMPDEST PUSH0 PUSH1 0x8 DUP4 MUL PUSH2 0x12DC PUSH32 0xFFFFFFFFFFFFFFFFFFFFFFFFFFFFFFFFFFFFFFFFFFFFFFFFFFFFFFFFFFFFFFFF DUP3 PUSH2 0x12A1 JUMP JUMPDEST PUSH2 0x12E6 DUP7 DUP4 PUSH2 0x12A1 JUMP JUMPDEST SWAP6 POP DUP1 NOT DUP5 AND SWAP4 POP DUP1 DUP7 AND DUP5 OR SWAP3 POP POP POP SWAP4 SWAP3 POP POP POP JUMP JUMPDEST PUSH0 DUP2 SWAP1 POP SWAP2 SWAP1 POP JUMP JUMPDEST PUSH0 PUSH2 0x1321 PUSH2 0x131C PUSH2 0x1317 DUP5 PUSH2 0xB2D JUMP JUMPDEST PUSH2 0x12FE JUMP JUMPDEST PUSH2 0xB2D JUMP JUMPDEST SWAP1 POP SWAP2 SWAP1 POP JUMP JUMPDEST PUSH0 DUP2 SWAP1 POP SWAP2 SWAP1 POP JUMP JUMPDEST PUSH2 0x133A DUP4 PUSH2 0x1307 JUMP JUMPDEST PUSH2 0x134E PUSH2 0x1346 DUP3 PUSH2 0x1328 JUMP JUMPDEST DUP5 DUP5 SLOAD PUSH2 0x12AD JUMP JUMPDEST DUP3 SSTORE POP POP POP POP JUMP JUMPDEST PUSH0 PUSH0 SWAP1 POP SWAP1 JUMP JUMPDEST PUSH2 0x1365 PUSH2 0x1356 JUMP JUMPDEST PUSH2 0x1370 DUP2 DUP5 DUP5 PUSH2 0x1331 JUMP JUMPDEST POP POP POP JUMP JUMPDEST JUMPDEST DUP2 DUP2 LT ISZERO PUSH2 0x1393 JUMPI PUSH2 0x1388 PUSH0 DUP3 PUSH2 0x135D JUMP JUMPDEST PUSH1 0x1 DUP2 ADD SWAP1 POP PUSH2 0x1376 JUMP JUMPDEST POP POP JUMP JUMPDEST PUSH1 0x1F DUP3 GT ISZERO PUSH2 0x13D8 JUMPI PUSH2 0x13A9 DUP2 PUSH2 0x1280 JUMP JUMPDEST PUSH2 0x13B2 DUP5 PUSH2 0x1292 JUMP JUMPDEST DUP2 ADD PUSH1 0x20 DUP6 LT ISZERO PUSH2 0x13C1 JUMPI DUP2 SWAP1 POP JUMPDEST PUSH2 0x13D5 PUSH2 0x13CD DUP6 PUSH2 0x1292 JUMP JUMPDEST DUP4 ADD DUP3 PUSH2 0x1375 JUMP JUMPDEST POP POP JUMPDEST POP POP POP JUMP JUMPDEST PUSH0 DUP3 DUP3 SHR SWAP1 POP SWAP3 SWAP2 POP POP JUMP JUMPDEST PUSH0 PUSH2 0x13F8 PUSH0 NOT DUP5 PUSH1 0x8 MUL PUSH2 0x13DD JUMP JUMPDEST NOT DUP1 DUP4 AND SWAP2 POP POP SWAP3 SWAP2 POP POP JUMP JUMPDEST PUSH0 PUSH2 0x1410 DUP4 DUP4 PUSH2 0x13E9 JUMP JUMPDEST SWAP2 POP DUP3 PUSH1 0x2 MUL DUP3 OR SWAP1 POP SWAP3 SWAP2 POP POP JUMP JUMPDEST PUSH2 0x1429 DUP3 PUSH2 0xC56 JUMP JUMPDEST PUSH8 0xFFFFFFFFFFFFFFFF DUP2 GT ISZERO PUSH2 0x1442 JUMPI PUSH2 0x1441 PUSH2 0xE5D JUMP JUMPDEST JUMPDEST PUSH2 0x144C DUP3 SLOAD PUSH2 0x1209 JUMP JUMPDEST PUSH2 0x1457 DUP3 DUP3 DUP6 PUSH2 0x1397 JUMP JUMPDEST PUSH0 PUSH1 0x20 SWAP1 POP PUSH1 0x1F DUP4 GT PUSH1 0x1 DUP2 EQ PUSH2 0x1488 JUMPI PUSH0 DUP5 ISZERO PUSH2 0x1476 JUMPI DUP3 DUP8 ADD MLOAD SWAP1 POP JUMPDEST PUSH2 0x1480 DUP6 DUP3 PUSH2 0x1405 JUMP JUMPDEST DUP7 SSTORE POP PUSH2 0x14E7 JUMP JUMPDEST PUSH1 0x1F NOT DUP5 AND PUSH2 0x1496 DUP7 PUSH2 0x1280 JUMP JUMPDEST PUSH0 JUMPDEST DUP3 DUP2 LT ISZERO PUSH2 0x14BD JUMPI DUP5 DUP10 ADD MLOAD DUP3 SSTORE PUSH1 0x1 DUP3 ADD SWAP2 POP PUSH1 0x20 DUP6 ADD SWAP5 POP PUSH1 0x20 DUP2 ADD SWAP1 POP PUSH2 0x1498 JUMP JUMPDEST DUP7 DUP4 LT ISZERO PUSH2 0x14DA JUMPI DUP5 DUP10 ADD MLOAD PUSH2 0x14D6 PUSH1 0x1F DUP10 AND DUP3 PUSH2 0x13E9 JUMP JUMPDEST DUP4 SSTORE POP JUMPDEST PUSH1 0x1 PUSH1 0x2 DUP9 MUL ADD DUP9 SSTORE POP POP POP JUMPDEST POP POP POP POP POP POP JUMP JUMPDEST PUSH0 PUSH1 0x40 DUP3 ADD SWAP1 POP DUP2 DUP2 SUB PUSH0 DUP4 ADD MSTORE PUSH2 0x1507 DUP2 DUP6 PUSH2 0xC8E JUMP JUMPDEST SWAP1 POP DUP2 DUP2 SUB PUSH1 0x20 DUP4 ADD MSTORE PUSH2 0x151B DUP2 DUP5 PUSH2 0xC8E JUMP JUMPDEST SWAP1 POP SWAP4 SWAP3 POP POP POP JUMP JUMPDEST PUSH32 0x496E76616C696420626174746C65204944000000000000000000000000000000 PUSH0 DUP3 ADD MSTORE POP JUMP JUMPDEST PUSH0 PUSH2 0x1558 PUSH1 0x11 DUP4 PUSH2 0xC60 JUMP JUMPDEST SWAP2 POP PUSH2 0x1563 DUP3 PUSH2 0x1524 JUMP JUMPDEST PUSH1 0x20 DUP3 ADD SWAP1 POP SWAP2 SWAP1 POP JUMP JUMPDEST PUSH0 PUSH1 0x20 DUP3 ADD SWAP1 POP DUP2 DUP2 SUB PUSH0 DUP4 ADD MSTORE PUSH2 0x1585 DUP2 PUSH2 0x154C JUMP JUMPDEST SWAP1 POP SWAP2 SWAP1 POP JUMP JUMPDEST PUSH32 0x426174746C6520696E6163746976650000000000000000000000000000000000 PUSH0 DUP3 ADD MSTORE POP JUMP JUMPDEST PUSH0 PUSH2 0x15C0 PUSH1 0xF DUP4 PUSH2 0xC60 JUMP JUMPDEST SWAP2 POP PUSH2 0x15CB DUP3 PUSH2 0x158C JUMP JUMPDEST PUSH1 0x20 DUP3 ADD SWAP1 POP SWAP2 SWAP1 POP JUMP JUMPDEST PUSH0 PUSH1 0x20 DUP3 ADD SWAP1 POP DUP2 DUP2 SUB PUSH0 DUP4 ADD MSTORE PUSH2 0x15ED DUP2 PUSH2 0x15B4 JUMP JUMPDEST SWAP1 POP SWAP2 SWAP1 POP JUMP JUMPDEST PUSH32 0x416C726561647920766F74656400000000000000000000000000000000000000 PUSH0 DUP3 ADD MSTORE POP JUMP JUMPDEST PUSH0 PUSH2 0x1628 PUSH1 0xD DUP4 PUSH2 0xC60 JUMP JUMPDEST SWAP2 POP PUSH2 0x1633 DUP3 PUSH2 0x15F4 JUMP JUMPDEST PUSH1 0x20 DUP3 ADD SWAP1 POP SWAP2 SWAP1 POP JUMP JUMPDEST PUSH0 PUSH1 0x20 DUP3 ADD SWAP1 POP DUP2 DUP2 SUB PUSH0 DUP4 ADD MSTORE PUSH2 0x1655 DUP2 PUSH2 0x161C JUMP JUMPDEST SWAP1 POP SWAP2 SWAP1 POP JUMP JUMPDEST PUSH32 0x496E76616C69642063686F696365000000000000000000000000000000000000 PUSH0 DUP3 ADD MSTORE POP JUMP JUMPDEST PUSH0 PUSH2 0x1690 PUSH1 0xE DUP4 PUSH2 0xC60 JUMP JUMPDEST SWAP2 POP PUSH2 0x169B DUP3 PUSH2 0x165C JUMP JUMPDEST PUSH1 0x20 DUP3 ADD SWAP1 POP SWAP2 SWAP1 POP JUMP JUMPDEST PUSH0 PUSH1 0x20 DUP3 ADD SWAP1 POP DUP2 DUP2 SUB PUSH0 DUP4 ADD MSTORE PUSH2 0x16BD DUP2 PUSH2 0x1684 JUMP JUMPDEST SWAP1 POP SWAP2 SWAP1 POP JUMP JUMPDEST PUSH32 0x566F74696E6720706572696F64206F7665720000000000000000000000000000 PUSH0 DUP3 ADD MSTORE POP JUMP JUMPDEST PUSH0 PUSH2 0x16F8 PUSH1 0x12 DUP4 PUSH2 0xC60 JUMP JUMPDEST SWAP2 POP PUSH2 0x1703 DUP3 PUSH2 0x16C4 JUMP JUMPDEST PUSH1 0x20 DUP3 ADD SWAP1 POP SWAP2 SWAP1 POP JUMP JUMPDEST PUSH0 PUSH1 0x20 DUP3 ADD SWAP1 POP DUP2 DUP2 SUB PUSH0 DUP4 ADD MSTORE PUSH2 0x1725 DUP2 PUSH2 0x16EC JUMP JUMPDEST SWAP1 POP SWAP2 SWAP1 POP JUMP JUMPDEST PUSH2 0x1735 DUP2 PUSH2 0x1038 JUMP JUMPDEST DUP3 MSTORE POP POP JUMP JUMPDEST PUSH0 PUSH1 0x20 DUP3 ADD SWAP1 POP PUSH2 0x174E PUSH0 DUP4 ADD DUP5 PUSH2 0x172C JUMP JUMPDEST SWAP3 SWAP2 POP POP JUMP INVALID LOG2 PUSH5 0x6970667358 0x22 SLT KECCAK256 0xB0 0xF 0xDB DUP3 PUSH12 0x98C11E9DAFE2BE3C22BBD75E 0xED DUP12 0xD5 0xD3 BLOCKHASH 0x29 PUSH3 0x84E984 GT DUP10 0xED 0xED PUSH23 0x64736F6C634300081C0033000000000000000000000000 "
		},
		"gasEstimates": {
			"creation": {
				"codeDepositCost": "1205200",
				"executionCost": "25517",
				"totalCost": "1230717"
			},
			"external": {
				"VOTING_PERIOD()": "391",
				"battleCount()": "2513",
				"battles(uint256)": "infinite",
				"createBattle(string,string)": "infinite",
				"endBattle(uint256)": "infinite",
				"getBattle(uint256)": "infinite",
				"hasVoted(uint256,address)": "3093",
				"owner()": "2530",
				"vote(uint256,uint8)": "infinite"
			}
		},
		"methodIdentifiers": {
			"VOTING_PERIOD()": "b1610d7e",
			"battleCount()": "e00b6363",
			"battles(uint256)": "606d2e96",
			"createBattle(string,string)": "86f3c603",
			"endBattle(uint256)": "4157e6ef",
			"getBattle(uint256)": "6dd0ce7a",
			"hasVoted(uint256,address)": "43859632",
			"owner()": "8da5cb5b",
			"vote(uint256,uint8)": "943e8216"
		}
	},
	"abi": [
		{
			"inputs": [],
			"stateMutability": "nonpayable",
			"type": "constructor"
		},
		{
			"anonymous": false,
			"inputs": [
				{
					"indexed": true,
					"internalType": "uint256",
					"name": "battleId",
					"type": "uint256"
				},
				{
					"indexed": false,
					"internalType": "string",
					"name": "castA",
					"type": "string"
				},
				{
					"indexed": false,
					"internalType": "string",
					"name": "castB",
					"type": "string"
				}
			],
			"name": "BattleCreated",
			"type": "event"
		},
		{
			"anonymous": false,
			"inputs": [
				{
					"indexed": true,
					"internalType": "uint256",
					"name": "battleId",
					"type": "uint256"
				},
				{
					"indexed": true,
					"internalType": "address",
					"name": "voter",
					"type": "address"
				},
				{
					"indexed": false,
					"internalType": "uint8",
					"name": "choice",
					"type": "uint8"
				}
			],
			"name": "VoteCast",
			"type": "event"
		},
		{
			"inputs": [],
			"name": "VOTING_PERIOD",
			"outputs": [
				{
					"internalType": "uint256",
					"name": "",
					"type": "uint256"
				}
			],
			"stateMutability": "view",
			"type": "function"
		},
		{
			"inputs": [],
			"name": "battleCount",
			"outputs": [
				{
					"internalType": "uint256",
					"name": "",
					"type": "uint256"
				}
			],
			"stateMutability": "view",
			"type": "function"
		},
		{
			"inputs": [
				{
					"internalType": "uint256",
					"name": "",
					"type": "uint256"
				}
			],
			"name": "battles",
			"outputs": [
				{
					"internalType": "string",
					"name": "castA",
					"type": "string"
				},
				{
					"internalType": "string",
					"name": "castB",
					"type": "string"
				},
				{
					"internalType": "uint256",
					"name": "votesA",
					"type": "uint256"
				},
				{
					"internalType": "uint256",
					"name": "votesB",
					"type": "uint256"
				},
				{
					"internalType": "bool",
					"name": "isActive",
					"type": "bool"
				},
				{
					"internalType": "uint256",
					"name": "createdAt",
					"type": "uint256"
				}
			],
			"stateMutability": "view",
			"type": "function"
		},
		{
			"inputs": [
				{
					"internalType": "string",
					"name": "_castA",
					"type": "string"
				},
				{
					"internalType": "string",
					"name": "_castB",
					"type": "string"
				}
			],
			"name": "createBattle",
			"outputs": [
				{
					"internalType": "uint256",
					"name": "",
					"type": "uint256"
				}
			],
			"stateMutability": "nonpayable",
			"type": "function"
		},
		{
			"inputs": [
				{
					"internalType": "uint256",
					"name": "_battleId",
					"type": "uint256"
				}
			],
			"name": "endBattle",
			"outputs": [],
			"stateMutability": "nonpayable",
			"type": "function"
		},
		{
			"inputs": [
				{
					"internalType": "uint256",
					"name": "_battleId",
					"type": "uint256"
				}
			],
			"name": "getBattle",
			"outputs": [
				{
					"components": [
						{
							"internalType": "string",
							"name": "castA",
							"type": "string"
						},
						{
							"internalType": "string",
							"name": "castB",
							"type": "string"
						},
						{
							"internalType": "uint256",
							"name": "votesA",
							"type": "uint256"
						},
						{
							"internalType": "uint256",
							"name": "votesB",
							"type": "uint256"
						},
						{
							"internalType": "bool",
							"name": "isActive",
							"type": "bool"
						},
						{
							"internalType": "uint256",
							"name": "createdAt",
							"type": "uint256"
						}
					],
					"internalType": "struct MemeBattles.Battle",
					"name": "",
					"type": "tuple"
				}
			],
			"stateMutability": "view",
			"type": "function"
		},
		{
			"inputs": [
				{
					"internalType": "uint256",
					"name": "",
					"type": "uint256"
				},
				{
					"internalType": "address",
					"name": "",
					"type": "address"
				}
			],
			"name": "hasVoted",
			"outputs": [
				{
					"internalType": "bool",
					"name": "",
					"type": "bool"
				}
			],
			"stateMutability": "view",
			"type": "function"
		},
		{
			"inputs": [],
			"name": "owner",
			"outputs": [
				{
					"internalType": "address",
					"name": "",
					"type": "address"
				}
			],
			"stateMutability": "view",
			"type": "function"
		},
		{
			"inputs": [
				{
					"internalType": "uint256",
					"name": "_battleId",
					"type": "uint256"
				},
				{
					"internalType": "uint8",
					"name": "_choice",
					"type": "uint8"
				}
			],
			"name": "vote",
			"outputs": [],
			"stateMutability": "nonpayable",
			"type": "function"
		}
	]
}