{
	"data": {
		"bytecode": {
			"linkReferences": {},
			"object": "60806040525f6001553480156012575f5ffd5b50610ccf806100205f395ff3fe608060405234801561000f575f5ffd5b5060043610610055575f3560e01c80633d48f3ed14610059578063657d14711461008a5780639e00b361146100a8578063ebf1b2c4146100c6578063fe0df6a2146100e2575b5f5ffd5b610073600480360381019061006e9190610642565b6100fe565b604051610081929190610728565b60405180910390f35b61009261029f565b60405161009f919061076e565b60405180910390f35b6100b06102a5565b6040516100bd919061076e565b60405180910390f35b6100e060048036038101906100db91906107b1565b6102ae565b005b6100fc60048036038101906100f79190610642565b61038b565b005b60605f5f73ffffffffffffffffffffffffffffffffffffffff165f846040516101279190610873565b90815260200160405180910390205f015f9054906101000a900473ffffffffffffffffffffffffffffffffffffffff1673ffffffffffffffffffffffffffffffffffffffff16036101ad576040517f08c379a00000000000000000000000000000000000000000000000000000000081526004016101a4906108d3565b60405180910390fd5b5f836040516101bc9190610873565b90815260200160405180910390206002015f846040516101dc9190610873565b90815260200160405180910390205f015f9054906101000a900473ffffffffffffffffffffffffffffffffffffffff168180546102189061091e565b80601f01602080910402602001604051908101604052809291908181526020018280546102449061091e565b801561028f5780601f106102665761010080835404028352916020019161028f565b820191905f5260205f20905b81548152906001019060200180831161027257829003601f168201915b5050505050915091509150915091565b60015481565b5f600154905090565b60405180606001604052808373ffffffffffffffffffffffffffffffffffffffff168152602001848152602001828152505f846040516102ee9190610873565b90815260200160405180910390205f820151815f015f6101000a81548173ffffffffffffffffffffffffffffffffffffffff021916908373ffffffffffffffffffffffffffffffffffffffff16021790555060208201518160010190816103559190610aee565b50604082015181600201908161036b9190610aee565b5090505060015f81548092919061038190610bea565b9190505550505050565b5f73ffffffffffffffffffffffffffffffffffffffff165f826040516103b19190610873565b90815260200160405180910390205f015f9054906101000a900473ffffffffffffffffffffffffffffffffffffffff1673ffffffffffffffffffffffffffffffffffffffff1603610437576040517f08c379a000000000000000000000000000000000000000000000000000000000815260040161042e90610c7b565b60405180910390fd5b5f816040516104469190610873565b90815260200160405180910390205f5f82015f6101000a81549073ffffffffffffffffffffffffffffffffffffffff0219169055600182015f610489919061049d565b600282015f610498919061049d565b505050565b5080546104a99061091e565b5f825580601f106104ba57506104d7565b601f0160209004905f5260205f20908101906104d691906104da565b5b50565b5b808211156104f1575f815f9055506001016104db565b5090565b5f604051905090565b5f5ffd5b5f5ffd5b5f5ffd5b5f5ffd5b5f601f19601f8301169050919050565b7f4e487b71000000000000000000000000000000000000000000000000000000005f52604160045260245ffd5b6105548261050e565b810181811067ffffffffffffffff821117156105735761057261051e565b5b80604052505050565b5f6105856104f5565b9050610591828261054b565b919050565b5f67ffffffffffffffff8211156105b0576105af61051e565b5b6105b98261050e565b9050602081019050919050565b828183375f83830152505050565b5f6105e66105e184610596565b61057c565b9050828152602081018484840111156106025761060161050a565b5b61060d8482856105c6565b509392505050565b5f82601f83011261062957610628610506565b5b81356106398482602086016105d4565b91505092915050565b5f60208284031215610657576106566104fe565b5b5f82013567ffffffffffffffff81111561067457610673610502565b5b61068084828501610615565b91505092915050565b5f81519050919050565b5f82825260208201905092915050565b8281835e5f83830152505050565b5f6106bb82610689565b6106c58185610693565b93506106d58185602086016106a3565b6106de8161050e565b840191505092915050565b5f73ffffffffffffffffffffffffffffffffffffffff82169050919050565b5f610712826106e9565b9050919050565b61072281610708565b82525050565b5f6040820190508181035f83015261074081856106b1565b905061074f6020830184610719565b9392505050565b5f819050919050565b61076881610756565b82525050565b5f6020820190506107815f83018461075f565b92915050565b61079081610708565b811461079a575f5ffd5b50565b5f813590506107ab81610787565b92915050565b5f5f5f606084860312156107c8576107c76104fe565b5b5f84013567ffffffffffffffff8111156107e5576107e4610502565b5b6107f186828701610615565b93505060206108028682870161079d565b925050604084013567ffffffffffffffff81111561082357610822610502565b5b61082f86828701610615565b9150509250925092565b5f81905092915050565b5f61084d82610689565b6108578185610839565b93506108678185602086016106a3565b80840191505092915050565b5f61087e8284610843565b915081905092915050565b7f5573657220646f6573206e6f74206578697374000000000000000000000000005f82015250565b5f6108bd601383610693565b91506108c882610889565b602082019050919050565b5f6020820190508181035f8301526108ea816108b1565b9050919050565b7f4e487b71000000000000000000000000000000000000000000000000000000005f52602260045260245ffd5b5f600282049050600182168061093557607f821691505b602082108103610948576109476108f1565b5b50919050565b5f819050815f5260205f209050919050565b5f6020601f8301049050919050565b5f82821b905092915050565b5f600883026109aa7fffffffffffffffffffffffffffffffffffffffffffffffffffffffffffffffff8261096f565b6109b4868361096f565b95508019841693508086168417925050509392505050565b5f819050919050565b5f6109ef6109ea6109e584610756565b6109cc565b610756565b9050919050565b5f819050919050565b610a08836109d5565b610a1c610a14826109f6565b84845461097b565b825550505050565b5f5f905090565b610a33610a24565b610a3e8184846109ff565b505050565b5b81811015610a6157610a565f82610a2b565b600181019050610a44565b5050565b601f821115610aa657610a778161094e565b610a8084610960565b81016020851015610a8f578190505b610aa3610a9b85610960565b830182610a43565b50505b505050565b5f82821c905092915050565b5f610ac65f1984600802610aab565b1980831691505092915050565b5f610ade8383610ab7565b9150826002028217905092915050565b610af782610689565b67ffffffffffffffff811115610b1057610b0f61051e565b5b610b1a825461091e565b610b25828285610a65565b5f60209050601f831160018114610b56575f8415610b44578287015190505b610b4e8582610ad3565b865550610bb5565b601f198416610b648661094e565b5f5b82811015610b8b57848901518255600182019150602085019450602081019050610b66565b86831015610ba85784890151610ba4601f891682610ab7565b8355505b6001600288020188555050505b505050505050565b7f4e487b71000000000000000000000000000000000000000000000000000000005f52601160045260245ffd5b5f610bf482610756565b91507fffffffffffffffffffffffffffffffffffffffffffffffffffffffffffffffff8203610c2657610c25610bbd565b5b600182019050919050565b7f7573657220646f6573206e6f74206578697374000000000000000000000000005f82015250565b5f610c65601383610693565b9150610c7082610c31565b602082019050919050565b5f6020820190508181035f830152610c9281610c59565b905091905056fea2646970667358221220232a25a31ef4ad31cd057190b9b19a544301c408363772ece48632c1b7d78d7564736f6c634300081c0033",
			"opcodes": "PUSH1 0x80 PUSH1 0x40 MSTORE PUSH0 PUSH1 0x1 SSTORE CALLVALUE DUP1 ISZERO PUSH1 0x12 JUMPI PUSH0 PUSH0 REVERT JUMPDEST POP PUSH2 0xCCF DUP1 PUSH2 0x20 PUSH0 CODECOPY PUSH0 RETURN INVALID PUSH1 0x80 PUSH1 0x40 MSTORE CALLVALUE DUP1 ISZERO PUSH2 0xF JUMPI PUSH0 PUSH0 REVERT JUMPDEST POP PUSH1 0x4 CALLDATASIZE LT PUSH2 0x55 JUMPI PUSH0 CALLDATALOAD PUSH1 0xE0 SHR DUP1 PUSH4 0x3D48F3ED EQ PUSH2 0x59 JUMPI DUP1 PUSH4 0x657D1471 EQ PUSH2 0x8A JUMPI DUP1 PUSH4 0x9E00B361 EQ PUSH2 0xA8 JUMPI DUP1 PUSH4 0xEBF1B2C4 EQ PUSH2 0xC6 JUMPI DUP1 PUSH4 0xFE0DF6A2 EQ PUSH2 0xE2 JUMPI JUMPDEST PUSH0 PUSH0 REVERT JUMPDEST PUSH2 0x73 PUSH1 0x4 DUP1 CALLDATASIZE SUB DUP2 ADD SWAP1 PUSH2 0x6E SWAP2 SWAP1 PUSH2 0x642 JUMP JUMPDEST PUSH2 0xFE JUMP JUMPDEST PUSH1 0x40 MLOAD PUSH2 0x81 SWAP3 SWAP2 SWAP1 PUSH2 0x728 JUMP JUMPDEST PUSH1 0x40 MLOAD DUP1 SWAP2 SUB SWAP1 RETURN JUMPDEST PUSH2 0x92 PUSH2 0x29F JUMP JUMPDEST PUSH1 0x40 MLOAD PUSH2 0x9F SWAP2 SWAP1 PUSH2 0x76E JUMP JUMPDEST PUSH1 0x40 MLOAD DUP1 SWAP2 SUB SWAP1 RETURN JUMPDEST PUSH2 0xB0 PUSH2 0x2A5 JUMP JUMPDEST PUSH1 0x40 MLOAD PUSH2 0xBD SWAP2 SWAP1 PUSH2 0x76E JUMP JUMPDEST PUSH1 0x40 MLOAD DUP1 SWAP2 SUB SWAP1 RETURN JUMPDEST PUSH2 0xE0 PUSH1 0x4 DUP1 CALLDATASIZE SUB DUP2 ADD SWAP1 PUSH2 0xDB SWAP2 SWAP1 PUSH2 0x7B1 JUMP JUMPDEST PUSH2 0x2AE JUMP JUMPDEST STOP JUMPDEST PUSH2 0xFC PUSH1 0x4 DUP1 CALLDATASIZE SUB DUP2 ADD SWAP1 PUSH2 0xF7 SWAP2 SWAP1 PUSH2 0x642 JUMP JUMPDEST PUSH2 0x38B JUMP JUMPDEST STOP JUMPDEST PUSH1 0x60 PUSH0 PUSH0 PUSH20 0xFFFFFFFFFFFFFFFFFFFFFFFFFFFFFFFFFFFFFFFF AND PUSH0 DUP5 PUSH1 0x40 MLOAD PUSH2 0x127 SWAP2 SWAP1 PUSH2 0x873 JUMP JUMPDEST SWAP1 DUP2 MSTORE PUSH1 0x20 ADD PUSH1 0x40 MLOAD DUP1 SWAP2 SUB SWAP1 KECCAK256 PUSH0 ADD PUSH0 SWAP1 SLOAD SWAP1 PUSH2 0x100 EXP SWAP1 DIV PUSH20 0xFFFFFFFFFFFFFFFFFFFFFFFFFFFFFFFFFFFFFFFF AND PUSH20 0xFFFFFFFFFFFFFFFFFFFFFFFFFFFFFFFFFFFFFFFF AND SUB PUSH2 0x1AD JUMPI PUSH1 0x40 MLOAD PUSH32 0x8C379A000000000000000000000000000000000000000000000000000000000 DUP2 MSTORE PUSH1 0x4 ADD PUSH2 0x1A4 SWAP1 PUSH2 0x8D3 JUMP JUMPDEST PUSH1 0x40 MLOAD DUP1 SWAP2 SUB SWAP1 REVERT JUMPDEST PUSH0 DUP4 PUSH1 0x40 MLOAD PUSH2 0x1BC SWAP2 SWAP1 PUSH2 0x873 JUMP JUMPDEST SWAP1 DUP2 MSTORE PUSH1 0x20 ADD PUSH1 0x40 MLOAD DUP1 SWAP2 SUB SWAP1 KECCAK256 PUSH1 0x2 ADD PUSH0 DUP5 PUSH1 0x40 MLOAD PUSH2 0x1DC SWAP2 SWAP1 PUSH2 0x873 JUMP JUMPDEST SWAP1 DUP2 MSTORE PUSH1 0x20 ADD PUSH1 0x40 MLOAD DUP1 SWAP2 SUB SWAP1 KECCAK256 PUSH0 ADD PUSH0 SWAP1 SLOAD SWAP1 PUSH2 0x100 EXP SWAP1 DIV PUSH20 0xFFFFFFFFFFFFFFFFFFFFFFFFFFFFFFFFFFFFFFFF AND DUP2 DUP1 SLOAD PUSH2 0x218 SWAP1 PUSH2 0x91E JUMP JUMPDEST DUP1 PUSH1 0x1F ADD PUSH1 0x20 DUP1 SWAP2 DIV MUL PUSH1 0x20 ADD PUSH1 0x40 MLOAD SWAP1 DUP2 ADD PUSH1 0x40 MSTORE DUP1 SWAP3 SWAP2 SWAP1 DUP2 DUP2 MSTORE PUSH1 0x20 ADD DUP3 DUP1 SLOAD PUSH2 0x244 SWAP1 PUSH2 0x91E JUMP JUMPDEST DUP1 ISZERO PUSH2 0x28F JUMPI DUP1 PUSH1 0x1F LT PUSH2 0x266 JUMPI PUSH2 0x100 DUP1 DUP4 SLOAD DIV MUL DUP4 MSTORE SWAP2 PUSH1 0x20 ADD SWAP2 PUSH2 0x28F JUMP JUMPDEST DUP3 ADD SWAP2 SWAP1 PUSH0 MSTORE PUSH1 0x20 PUSH0 KECCAK256 SWAP1 JUMPDEST DUP2 SLOAD DUP2 MSTORE SWAP1 PUSH1 0x1 ADD SWAP1 PUSH1 0x20 ADD DUP1 DUP4 GT PUSH2 0x272 JUMPI DUP3 SWAP1 SUB PUSH1 0x1F AND DUP3 ADD SWAP2 JUMPDEST POP POP POP POP POP SWAP2 POP SWAP2 POP SWAP2 POP SWAP2 POP SWAP2 JUMP JUMPDEST PUSH1 0x1 SLOAD DUP2 JUMP JUMPDEST PUSH0 PUSH1 0x1 SLOAD SWAP1 POP SWAP1 JUMP JUMPDEST PUSH1 0x40 MLOAD DUP1 PUSH1 0x60 ADD PUSH1 0x40 MSTORE DUP1 DUP4 PUSH20 0xFFFFFFFFFFFFFFFFFFFFFFFFFFFFFFFFFFFFFFFF AND DUP2 MSTORE PUSH1 0x20 ADD DUP5 DUP2 MSTORE PUSH1 0x20 ADD DUP3 DUP2 MSTORE POP PUSH0 DUP5 PUSH1 0x40 MLOAD PUSH2 0x2EE SWAP2 SWAP1 PUSH2 0x873 JUMP JUMPDEST SWAP1 DUP2 MSTORE PUSH1 0x20 ADD PUSH1 0x40 MLOAD DUP1 SWAP2 SUB SWAP1 KECCAK256 PUSH0 DUP3 ADD MLOAD DUP2 PUSH0 ADD PUSH0 PUSH2 0x100 EXP DUP2 SLOAD DUP2 PUSH20 0xFFFFFFFFFFFFFFFFFFFFFFFFFFFFFFFFFFFFFFFF MUL NOT AND SWAP1 DUP4 PUSH20 0xFFFFFFFFFFFFFFFFFFFFFFFFFFFFFFFFFFFFFFFF AND MUL OR SWAP1 SSTORE POP PUSH1 0x20 DUP3 ADD MLOAD DUP2 PUSH1 0x1 ADD SWAP1 DUP2 PUSH2 0x355 SWAP2 SWAP1 PUSH2 0xAEE JUMP JUMPDEST POP PUSH1 0x40 DUP3 ADD MLOAD DUP2 PUSH1 0x2 ADD SWAP1 DUP2 PUSH2 0x36B SWAP2 SWAP1 PUSH2 0xAEE JUMP JUMPDEST POP SWAP1 POP POP PUSH1 0x1 PUSH0 DUP2 SLOAD DUP1 SWAP3 SWAP2 SWAP1 PUSH2 0x381 SWAP1 PUSH2 0xBEA JUMP JUMPDEST SWAP2 SWAP1 POP SSTORE POP POP POP POP JUMP JUMPDEST PUSH0 PUSH20 0xFFFFFFFFFFFFFFFFFFFFFFFFFFFFFFFFFFFFFFFF AND PUSH0 DUP3 PUSH1 0x40 MLOAD PUSH2 0x3B1 SWAP2 SWAP1 PUSH2 0x873 JUMP JUMPDEST SWAP1 DUP2 MSTORE PUSH1 0x20 ADD PUSH1 0x40 MLOAD DUP1 SWAP2 SUB SWAP1 KECCAK256 PUSH0 ADD PUSH0 SWAP1 SLOAD SWAP1 PUSH2 0x100 EXP SWAP1 DIV PUSH20 0xFFFFFFFFFFFFFFFFFFFFFFFFFFFFFFFFFFFFFFFF AND PUSH20 0xFFFFFFFFFFFFFFFFFFFFFFFFFFFFFFFFFFFFFFFF AND SUB PUSH2 0x437 JUMPI PUSH1 0x40 MLOAD PUSH32 0x8C379A000000000000000000000000000000000000000000000000000000000 DUP2 MSTORE PUSH1 0x4 ADD PUSH2 0x42E SWAP1 PUSH2 0xC7B JUMP JUMPDEST PUSH1 0x40 MLOAD DUP1 SWAP2 SUB SWAP1 REVERT JUMPDEST PUSH0 DUP2 PUSH1 0x40 MLOAD PUSH2 0x446 SWAP2 SWAP1 PUSH2 0x873 JUMP JUMPDEST SWAP1 DUP2 MSTORE PUSH1 0x20 ADD PUSH1 0x40 MLOAD DUP1 SWAP2 SUB SWAP1 KECCAK256 PUSH0 PUSH0 DUP3 ADD PUSH0 PUSH2 0x100 EXP DUP2 SLOAD SWAP1 PUSH20 0xFFFFFFFFFFFFFFFFFFFFFFFFFFFFFFFFFFFFFFFF MUL NOT AND SWAP1 SSTORE PUSH1 0x1 DUP3 ADD PUSH0 PUSH2 0x489 SWAP2 SWAP1 PUSH2 0x49D JUMP JUMPDEST PUSH1 0x2 DUP3 ADD PUSH0 PUSH2 0x498 SWAP2 SWAP1 PUSH2 0x49D JUMP JUMPDEST POP POP POP JUMP JUMPDEST POP DUP1 SLOAD PUSH2 0x4A9 SWAP1 PUSH2 0x91E JUMP JUMPDEST PUSH0 DUP3 SSTORE DUP1 PUSH1 0x1F LT PUSH2 0x4BA JUMPI POP PUSH2 0x4D7 JUMP JUMPDEST PUSH1 0x1F ADD PUSH1 0x20 SWAP1 DIV SWAP1 PUSH0 MSTORE PUSH1 0x20 PUSH0 KECCAK256 SWAP1 DUP2 ADD SWAP1 PUSH2 0x4D6 SWAP2 SWAP1 PUSH2 0x4DA JUMP JUMPDEST JUMPDEST POP JUMP JUMPDEST JUMPDEST DUP1 DUP3 GT ISZERO PUSH2 0x4F1 JUMPI PUSH0 DUP2 PUSH0 SWAP1 SSTORE POP PUSH1 0x1 ADD PUSH2 0x4DB JUMP JUMPDEST POP SWAP1 JUMP JUMPDEST PUSH0 PUSH1 0x40 MLOAD SWAP1 POP SWAP1 JUMP JUMPDEST PUSH0 PUSH0 REVERT JUMPDEST PUSH0 PUSH0 REVERT JUMPDEST PUSH0 PUSH0 REVERT JUMPDEST PUSH0 PUSH0 REVERT JUMPDEST PUSH0 PUSH1 0x1F NOT PUSH1 0x1F DUP4 ADD AND SWAP1 POP SWAP2 SWAP1 POP JUMP JUMPDEST PUSH32 0x4E487B7100000000000000000000000000000000000000000000000000000000 PUSH0 MSTORE PUSH1 0x41 PUSH1 0x4 MSTORE PUSH1 0x24 PUSH0 REVERT JUMPDEST PUSH2 0x554 DUP3 PUSH2 0x50E JUMP JUMPDEST DUP2 ADD DUP2 DUP2 LT PUSH8 0xFFFFFFFFFFFFFFFF DUP3 GT OR ISZERO PUSH2 0x573 JUMPI PUSH2 0x572 PUSH2 0x51E JUMP JUMPDEST JUMPDEST DUP1 PUSH1 0x40 MSTORE POP POP POP JUMP JUMPDEST PUSH0 PUSH2 0x585 PUSH2 0x4F5 JUMP JUMPDEST SWAP1 POP PUSH2 0x591 DUP3 DUP3 PUSH2 0x54B JUMP JUMPDEST SWAP2 SWAP1 POP JUMP JUMPDEST PUSH0 PUSH8 0xFFFFFFFFFFFFFFFF DUP3 GT ISZERO PUSH2 0x5B0 JUMPI PUSH2 0x5AF PUSH2 0x51E JUMP JUMPDEST JUMPDEST PUSH2 0x5B9 DUP3 PUSH2 0x50E JUMP JUMPDEST SWAP1 POP PUSH1 0x20 DUP2 ADD SWAP1 POP SWAP2 SWAP1 POP JUMP JUMPDEST DUP3 DUP2 DUP4 CALLDATACOPY PUSH0 DUP4 DUP4 ADD MSTORE POP POP POP JUMP JUMPDEST PUSH0 PUSH2 0x5E6 PUSH2 0x5E1 DUP5 PUSH2 0x596 JUMP JUMPDEST PUSH2 0x57C JUMP JUMPDEST SWAP1 POP DUP3 DUP2 MSTORE PUSH1 0x20 DUP2 ADD DUP5 DUP5 DUP5 ADD GT ISZERO PUSH2 0x602 JUMPI PUSH2 0x601 PUSH2 0x50A JUMP JUMPDEST JUMPDEST PUSH2 0x60D DUP5 DUP3 DUP6 PUSH2 0x5C6 JUMP JUMPDEST POP SWAP4 SWAP3 POP POP POP JUMP JUMPDEST PUSH0 DUP3 PUSH1 0x1F DUP4 ADD SLT PUSH2 0x629 JUMPI PUSH2 0x628 PUSH2 0x506 JUMP JUMPDEST JUMPDEST DUP2 CALLDATALOAD PUSH2 0x639 DUP5 DUP3 PUSH1 0x20 DUP7 ADD PUSH2 0x5D4 JUMP JUMPDEST SWAP2 POP POP SWAP3 SWAP2 POP POP JUMP JUMPDEST PUSH0 PUSH1 0x20 DUP3 DUP5 SUB SLT ISZERO PUSH2 0x657 JUMPI PUSH2 0x656 PUSH2 0x4FE JUMP JUMPDEST JUMPDEST PUSH0 DUP3 ADD CALLDATALOAD PUSH8 0xFFFFFFFFFFFFFFFF DUP2 GT ISZERO PUSH2 0x674 JUMPI PUSH2 0x673 PUSH2 0x502 JUMP JUMPDEST JUMPDEST PUSH2 0x680 DUP5 DUP3 DUP6 ADD PUSH2 0x615 JUMP JUMPDEST SWAP2 POP POP SWAP3 SWAP2 POP POP JUMP JUMPDEST PUSH0 DUP2 MLOAD SWAP1 POP SWAP2 SWAP1 POP JUMP JUMPDEST PUSH0 DUP3 DUP3 MSTORE PUSH1 0x20 DUP3 ADD SWAP1 POP SWAP3 SWAP2 POP POP JUMP JUMPDEST DUP3 DUP2 DUP4 MCOPY PUSH0 DUP4 DUP4 ADD MSTORE POP POP POP JUMP JUMPDEST PUSH0 PUSH2 0x6BB DUP3 PUSH2 0x689 JUMP JUMPDEST PUSH2 0x6C5 DUP2 DUP6 PUSH2 0x693 JUMP JUMPDEST SWAP4 POP PUSH2 0x6D5 DUP2 DUP6 PUSH1 0x20 DUP7 ADD PUSH2 0x6A3 JUMP JUMPDEST PUSH2 0x6DE DUP2 PUSH2 0x50E JUMP JUMPDEST DUP5 ADD SWAP2 POP POP SWAP3 SWAP2 POP POP JUMP JUMPDEST PUSH0 PUSH20 0xFFFFFFFFFFFFFFFFFFFFFFFFFFFFFFFFFFFFFFFF DUP3 AND SWAP1 POP SWAP2 SWAP1 POP JUMP JUMPDEST PUSH0 PUSH2 0x712 DUP3 PUSH2 0x6E9 JUMP JUMPDEST SWAP1 POP SWAP2 SWAP1 POP JUMP JUMPDEST PUSH2 0x722 DUP2 PUSH2 0x708 JUMP JUMPDEST DUP3 MSTORE POP POP JUMP JUMPDEST PUSH0 PUSH1 0x40 DUP3 ADD SWAP1 POP DUP2 DUP2 SUB PUSH0 DUP4 ADD MSTORE PUSH2 0x740 DUP2 DUP6 PUSH2 0x6B1 JUMP JUMPDEST SWAP1 POP PUSH2 0x74F PUSH1 0x20 DUP4 ADD DUP5 PUSH2 0x719 JUMP JUMPDEST SWAP4 SWAP3 POP POP POP JUMP JUMPDEST PUSH0 DUP2 SWAP1 POP SWAP2 SWAP1 POP JUMP JUMPDEST PUSH2 0x768 DUP2 PUSH2 0x756 JUMP JUMPDEST DUP3 MSTORE POP POP JUMP JUMPDEST PUSH0 PUSH1 0x20 DUP3 ADD SWAP1 POP PUSH2 0x781 PUSH0 DUP4 ADD DUP5 PUSH2 0x75F JUMP JUMPDEST SWAP3 SWAP2 POP POP JUMP JUMPDEST PUSH2 0x790 DUP2 PUSH2 0x708 JUMP JUMPDEST DUP2 EQ PUSH2 0x79A JUMPI PUSH0 PUSH0 REVERT JUMPDEST POP JUMP JUMPDEST PUSH0 DUP2 CALLDATALOAD SWAP1 POP PUSH2 0x7AB DUP2 PUSH2 0x787 JUMP JUMPDEST SWAP3 SWAP2 POP POP JUMP JUMPDEST PUSH0 PUSH0 PUSH0 PUSH1 0x60 DUP5 DUP7 SUB SLT ISZERO PUSH2 0x7C8 JUMPI PUSH2 0x7C7 PUSH2 0x4FE JUMP JUMPDEST JUMPDEST PUSH0 DUP5 ADD CALLDATALOAD PUSH8 0xFFFFFFFFFFFFFFFF DUP2 GT ISZERO PUSH2 0x7E5 JUMPI PUSH2 0x7E4 PUSH2 0x502 JUMP JUMPDEST JUMPDEST PUSH2 0x7F1 DUP7 DUP3 DUP8 ADD PUSH2 0x615 JUMP JUMPDEST SWAP4 POP POP PUSH1 0x20 PUSH2 0x802 DUP7 DUP3 DUP8 ADD PUSH2 0x79D JUMP JUMPDEST SWAP3 POP POP PUSH1 0x40 DUP5 ADD CALLDATALOAD PUSH8 0xFFFFFFFFFFFFFFFF DUP2 GT ISZERO PUSH2 0x823 JUMPI PUSH2 0x822 PUSH2 0x502 JUMP JUMPDEST JUMPDEST PUSH2 0x82F DUP7 DUP3 DUP8 ADD PUSH2 0x615 JUMP JUMPDEST SWAP2 POP POP SWAP3 POP SWAP3 POP SWAP3 JUMP JUMPDEST PUSH0 DUP2 SWAP1 POP SWAP3 SWAP2 POP POP JUMP JUMPDEST PUSH0 PUSH2 0x84D DUP3 PUSH2 0x689 JUMP JUMPDEST PUSH2 0x857 DUP2 DUP6 PUSH2 0x839 JUMP JUMPDEST SWAP4 POP PUSH2 0x867 DUP2 DUP6 PUSH1 0x20 DUP7 ADD PUSH2 0x6A3 JUMP JUMPDEST DUP1 DUP5 ADD SWAP2 POP POP SWAP3 SWAP2 POP POP JUMP JUMPDEST PUSH0 PUSH2 0x87E DUP3 DUP5 PUSH2 0x843 JUMP JUMPDEST SWAP2 POP DUP2 SWAP1 POP SWAP3 SWAP2 POP POP JUMP JUMPDEST PUSH32 0x5573657220646F6573206E6F7420657869737400000000000000000000000000 PUSH0 DUP3 ADD MSTORE POP JUMP JUMPDEST PUSH0 PUSH2 0x8BD PUSH1 0x13 DUP4 PUSH2 0x693 JUMP JUMPDEST SWAP2 POP PUSH2 0x8C8 DUP3 PUSH2 0x889 JUMP JUMPDEST PUSH1 0x20 DUP3 ADD SWAP1 POP SWAP2 SWAP1 POP JUMP JUMPDEST PUSH0 PUSH1 0x20 DUP3 ADD SWAP1 POP DUP2 DUP2 SUB PUSH0 DUP4 ADD MSTORE PUSH2 0x8EA DUP2 PUSH2 0x8B1 JUMP JUMPDEST SWAP1 POP SWAP2 SWAP1 POP JUMP JUMPDEST PUSH32 0x4E487B7100000000000000000000000000000000000000000000000000000000 PUSH0 MSTORE PUSH1 0x22 PUSH1 0x4 MSTORE PUSH1 0x24 PUSH0 REVERT JUMPDEST PUSH0 PUSH1 0x2 DUP3 DIV SWAP1 POP PUSH1 0x1 DUP3 AND DUP1 PUSH2 0x935 JUMPI PUSH1 0x7F DUP3 AND SWAP2 POP JUMPDEST PUSH1 0x20 DUP3 LT DUP2 SUB PUSH2 0x948 JUMPI PUSH2 0x947 PUSH2 0x8F1 JUMP JUMPDEST JUMPDEST POP SWAP2 SWAP1 POP JUMP JUMPDEST PUSH0 DUP2 SWAP1 POP DUP2 PUSH0 MSTORE PUSH1 0x20 PUSH0 KECCAK256 SWAP1 POP SWAP2 SWAP1 POP JUMP JUMPDEST PUSH0 PUSH1 0x20 PUSH1 0x1F DUP4 ADD DIV SWAP1 POP SWAP2 SWAP1 POP JUMP JUMPDEST PUSH0 DUP3 DUP3 SHL SWAP1 POP SWAP3 SWAP2 POP POP JUMP JUMPDEST PUSH0 PUSH1 0x8 DUP4 MUL PUSH2 0x9AA PUSH32 0xFFFFFFFFFFFFFFFFFFFFFFFFFFFFFFFFFFFFFFFFFFFFFFFFFFFFFFFFFFFFFFFF DUP3 PUSH2 0x96F JUMP JUMPDEST PUSH2 0x9B4 DUP7 DUP4 PUSH2 0x96F JUMP JUMPDEST SWAP6 POP DUP1 NOT DUP5 AND SWAP4 POP DUP1 DUP7 AND DUP5 OR SWAP3 POP POP POP SWAP4 SWAP3 POP POP POP JUMP JUMPDEST PUSH0 DUP2 SWAP1 POP SWAP2 SWAP1 POP JUMP JUMPDEST PUSH0 PUSH2 0x9EF PUSH2 0x9EA PUSH2 0x9E5 DUP5 PUSH2 0x756 JUMP JUMPDEST PUSH2 0x9CC JUMP JUMPDEST PUSH2 0x756 JUMP JUMPDEST SWAP1 POP SWAP2 SWAP1 POP JUMP JUMPDEST PUSH0 DUP2 SWAP1 POP SWAP2 SWAP1 POP JUMP JUMPDEST PUSH2 0xA08 DUP4 PUSH2 0x9D5 JUMP JUMPDEST PUSH2 0xA1C PUSH2 0xA14 DUP3 PUSH2 0x9F6 JUMP JUMPDEST DUP5 DUP5 SLOAD PUSH2 0x97B JUMP JUMPDEST DUP3 SSTORE POP POP POP POP JUMP JUMPDEST PUSH0 PUSH0 SWAP1 POP SWAP1 JUMP JUMPDEST PUSH2 0xA33 PUSH2 0xA24 JUMP JUMPDEST PUSH2 0xA3E DUP2 DUP5 DUP5 PUSH2 0x9FF JUMP JUMPDEST POP POP POP JUMP JUMPDEST JUMPDEST DUP2 DUP2 LT ISZERO PUSH2 0xA61 JUMPI PUSH2 0xA56 PUSH0 DUP3 PUSH2 0xA2B JUMP JUMPDEST PUSH1 0x1 DUP2 ADD SWAP1 POP PUSH2 0xA44 JUMP JUMPDEST POP POP JUMP JUMPDEST PUSH1 0x1F DUP3 GT ISZERO PUSH2 0xAA6 JUMPI PUSH2 0xA77 DUP2 PUSH2 0x94E JUMP JUMPDEST PUSH2 0xA80 DUP5 PUSH2 0x960 JUMP JUMPDEST DUP2 ADD PUSH1 0x20 DUP6 LT ISZERO PUSH2 0xA8F JUMPI DUP2 SWAP1 POP JUMPDEST PUSH2 0xAA3 PUSH2 0xA9B DUP6 PUSH2 0x960 JUMP JUMPDEST DUP4 ADD DUP3 PUSH2 0xA43 JUMP JUMPDEST POP POP JUMPDEST POP POP POP JUMP JUMPDEST PUSH0 DUP3 DUP3 SHR SWAP1 POP SWAP3 SWAP2 POP POP JUMP JUMPDEST PUSH0 PUSH2 0xAC6 PUSH0 NOT DUP5 PUSH1 0x8 MUL PUSH2 0xAAB JUMP JUMPDEST NOT DUP1 DUP4 AND SWAP2 POP POP SWAP3 SWAP2 POP POP JUMP JUMPDEST PUSH0 PUSH2 0xADE DUP4 DUP4 PUSH2 0xAB7 JUMP JUMPDEST SWAP2 POP DUP3 PUSH1 0x2 MUL DUP3 OR SWAP1 POP SWAP3 SWAP2 POP POP JUMP JUMPDEST PUSH2 0xAF7 DUP3 PUSH2 0x689 JUMP JUMPDEST PUSH8 0xFFFFFFFFFFFFFFFF DUP2 GT ISZERO PUSH2 0xB10 JUMPI PUSH2 0xB0F PUSH2 0x51E JUMP JUMPDEST JUMPDEST PUSH2 0xB1A DUP3 SLOAD PUSH2 0x91E JUMP JUMPDEST PUSH2 0xB25 DUP3 DUP3 DUP6 PUSH2 0xA65 JUMP JUMPDEST PUSH0 PUSH1 0x20 SWAP1 POP PUSH1 0x1F DUP4 GT PUSH1 0x1 DUP2 EQ PUSH2 0xB56 JUMPI PUSH0 DUP5 ISZERO PUSH2 0xB44 JUMPI DUP3 DUP8 ADD MLOAD SWAP1 POP JUMPDEST PUSH2 0xB4E DUP6 DUP3 PUSH2 0xAD3 JUMP JUMPDEST DUP7 SSTORE POP PUSH2 0xBB5 JUMP JUMPDEST PUSH1 0x1F NOT DUP5 AND PUSH2 0xB64 DUP7 PUSH2 0x94E JUMP JUMPDEST PUSH0 JUMPDEST DUP3 DUP2 LT ISZERO PUSH2 0xB8B JUMPI DUP5 DUP10 ADD MLOAD DUP3 SSTORE PUSH1 0x1 DUP3 ADD SWAP2 POP PUSH1 0x20 DUP6 ADD SWAP5 POP PUSH1 0x20 DUP2 ADD SWAP1 POP PUSH2 0xB66 JUMP JUMPDEST DUP7 DUP4 LT ISZERO PUSH2 0xBA8 JUMPI DUP5 DUP10 ADD MLOAD PUSH2 0xBA4 PUSH1 0x1F DUP10 AND DUP3 PUSH2 0xAB7 JUMP JUMPDEST DUP4 SSTORE POP JUMPDEST PUSH1 0x1 PUSH1 0x2 DUP9 MUL ADD DUP9 SSTORE POP POP POP JUMPDEST POP POP POP POP POP POP JUMP JUMPDEST PUSH32 0x4E487B7100000000000000000000000000000000000000000000000000000000 PUSH0 MSTORE PUSH1 0x11 PUSH1 0x4 MSTORE PUSH1 0x24 PUSH0 REVERT JUMPDEST PUSH0 PUSH2 0xBF4 DUP3 PUSH2 0x756 JUMP JUMPDEST SWAP2 POP PUSH32 0xFFFFFFFFFFFFFFFFFFFFFFFFFFFFFFFFFFFFFFFFFFFFFFFFFFFFFFFFFFFFFFFF DUP3 SUB PUSH2 0xC26 JUMPI PUSH2 0xC25 PUSH2 0xBBD JUMP JUMPDEST JUMPDEST PUSH1 0x1 DUP3 ADD SWAP1 POP SWAP2 SWAP1 POP JUMP JUMPDEST PUSH32 0x7573657220646F6573206E6F7420657869737400000000000000000000000000 PUSH0 DUP3 ADD MSTORE POP JUMP JUMPDEST PUSH0 PUSH2 0xC65 PUSH1 0x13 DUP4 PUSH2 0x693 JUMP JUMPDEST SWAP2 POP PUSH2 0xC70 DUP3 PUSH2 0xC31 JUMP JUMPDEST PUSH1 0x20 DUP3 ADD SWAP1 POP SWAP2 SWAP1 POP JUMP JUMPDEST PUSH0 PUSH1 0x20 DUP3 ADD SWAP1 POP DUP2 DUP2 SUB PUSH0 DUP4 ADD MSTORE PUSH2 0xC92 DUP2 PUSH2 0xC59 JUMP JUMPDEST SWAP1 POP SWAP2 SWAP1 POP JUMP INVALID LOG2 PUSH5 0x6970667358 0x22 SLT KECCAK256 0x23 0x2A 0x25 LOG3 0x1E DELEGATECALL 0xAD BALANCE 0xCD SDIV PUSH18 0x90B9B19A544301C408363772ECE48632C1B7 0xD7 DUP14 PUSH22 0x64736F6C634300081C00330000000000000000000000 "
		},
		"gasEstimates": {
			"creation": {
				"codeDepositCost": "655800",
				"executionCost": "5692",
				"totalCost": "661492"
			},
			"external": {
				"adduserdata(string,address,string)": "infinite",
				"gettotalusers()": "2454",
				"getuserdata(string)": "infinite",
				"removeuserdata(string)": "infinite",
				"totalusers()": "2425"
			}
		},
		"methodIdentifiers": {
			"adduserdata(string,address,string)": "ebf1b2c4",
			"gettotalusers()": "9e00b361",
			"getuserdata(string)": "3d48f3ed",
			"removeuserdata(string)": "fe0df6a2",
			"totalusers()": "657d1471"
		}
	},
	"abi": [
		{
			"inputs": [
				{
					"internalType": "string",
					"name": "_username",
					"type": "string"
				},
				{
					"internalType": "address",
					"name": "walletaddress",
					"type": "address"
				},
				{
					"internalType": "string",
					"name": "_socialaccount",
					"type": "string"
				}
			],
			"name": "adduserdata",
			"outputs": [],
			"stateMutability": "nonpayable",
			"type": "function"
		},
		{
			"inputs": [],
			"name": "gettotalusers",
			"outputs": [
				{
					"internalType": "uint256",
					"name": "",
					"type": "uint256"
				}
			],
			"stateMutability": "view",
			"type": "function"
		},
		{
			"inputs": [
				{
					"internalType": "string",
					"name": "_username",
					"type": "string"
				}
			],
			"name": "getuserdata",
			"outputs": [
				{
					"internalType": "string",
					"name": "",
					"type": "string"
				},
				{
					"internalType": "address",
					"name": "",
					"type": "address"
				}
			],
			"stateMutability": "view",
			"type": "function"
		},
		{
			"inputs": [
				{
					"internalType": "string",
					"name": "_username",
					"type": "string"
				}
			],
			"name": "removeuserdata",
			"outputs": [],
			"stateMutability": "nonpayable",
			"type": "function"
		},
		{
			"inputs": [],
			"name": "totalusers",
			"outputs": [
				{
					"internalType": "uint256",
					"name": "",
					"type": "uint256"
				}
			],
			"stateMutability": "view",
			"type": "function"
		}
	]
}