{
	"pratice/memebattlefee.sol": {
		"MemeBattles": {
			"abi": [
				{
					"inputs": [],
					"stateMutability": "nonpayable",
					"type": "constructor"
				},
				{
					"anonymous": false,
					"inputs": [
						{
							"indexed": true,
							"internalType": "uint256",
							"name": "battleId",
							"type": "uint256"
						},
						{
							"indexed": false,
							"internalType": "string",
							"name": "castA",
							"type": "string"
						},
						{
							"indexed": false,
							"internalType": "string",
							"name": "castB",
							"type": "string"
						}
					],
					"name": "BattleCreated",
					"type": "event"
				},
				{
					"anonymous": false,
					"inputs": [
						{
							"indexed": true,
							"internalType": "uint256",
							"name": "battleId",
							"type": "uint256"
						},
						{
							"indexed": true,
							"internalType": "address",
							"name": "voter",
							"type": "address"
						},
						{
							"indexed": false,
							"internalType": "uint8",
							"name": "choice",
							"type": "uint8"
						}
					],
					"name": "VoteCast",
					"type": "event"
				},
				{
					"stateMutability": "payable",
					"type": "fallback"
				},
				{
					"inputs": [],
					"name": "VOTE_FEE",
					"outputs": [
						{
							"internalType": "uint256",
							"name": "",
							"type": "uint256"
						}
					],
					"stateMutability": "view",
					"type": "function"
				},
				{
					"inputs": [],
					"name": "VOTING_PERIOD",
					"outputs": [
						{
							"internalType": "uint256",
							"name": "",
							"type": "uint256"
						}
					],
					"stateMutability": "view",
					"type": "function"
				},
				{
					"inputs": [],
					"name": "battleCount",
					"outputs": [
						{
							"internalType": "uint256",
							"name": "",
							"type": "uint256"
						}
					],
					"stateMutability": "view",
					"type": "function"
				},
				{
					"inputs": [
						{
							"internalType": "uint256",
							"name": "",
							"type": "uint256"
						}
					],
					"name": "battles",
					"outputs": [
						{
							"internalType": "string",
							"name": "castA",
							"type": "string"
						},
						{
							"internalType": "string",
							"name": "castB",
							"type": "string"
						},
						{
							"internalType": "uint256",
							"name": "votesA",
							"type": "uint256"
						},
						{
							"internalType": "uint256",
							"name": "votesB",
							"type": "uint256"
						},
						{
							"internalType": "bool",
							"name": "isActive",
							"type": "bool"
						},
						{
							"internalType": "uint256",
							"name": "createdAt",
							"type": "uint256"
						}
					],
					"stateMutability": "view",
					"type": "function"
				},
				{
					"inputs": [
						{
							"internalType": "string",
							"name": "_castA",
							"type": "string"
						},
						{
							"internalType": "string",
							"name": "_castB",
							"type": "string"
						}
					],
					"name": "createBattle",
					"outputs": [
						{
							"internalType": "uint256",
							"name": "",
							"type": "uint256"
						}
					],
					"stateMutability": "nonpayable",
					"type": "function"
				},
				{
					"inputs": [
						{
							"internalType": "uint256",
							"name": "_battleId",
							"type": "uint256"
						}
					],
					"name": "endBattle",
					"outputs": [],
					"stateMutability": "nonpayable",
					"type": "function"
				},
				{
					"inputs": [
						{
							"internalType": "uint256",
							"name": "_battleId",
							"type": "uint256"
						}
					],
					"name": "getBattle",
					"outputs": [
						{
							"components": [
								{
									"internalType": "string",
									"name": "castA",
									"type": "string"
								},
								{
									"internalType": "string",
									"name": "castB",
									"type": "string"
								},
								{
									"internalType": "uint256",
									"name": "votesA",
									"type": "uint256"
								},
								{
									"internalType": "uint256",
									"name": "votesB",
									"type": "uint256"
								},
								{
									"internalType": "bool",
									"name": "isActive",
									"type": "bool"
								},
								{
									"internalType": "uint256",
									"name": "createdAt",
									"type": "uint256"
								}
							],
							"internalType": "struct MemeBattles.Battle",
							"name": "",
							"type": "tuple"
						}
					],
					"stateMutability": "view",
					"type": "function"
				},
				{
					"inputs": [
						{
							"internalType": "uint256",
							"name": "",
							"type": "uint256"
						},
						{
							"internalType": "address",
							"name": "",
							"type": "address"
						}
					],
					"name": "hasVoted",
					"outputs": [
						{
							"internalType": "bool",
							"name": "",
							"type": "bool"
						}
					],
					"stateMutability": "view",
					"type": "function"
				},
				{
					"inputs": [],
					"name": "owner",
					"outputs": [
						{
							"internalType": "address",
							"name": "",
							"type": "address"
						}
					],
					"stateMutability": "view",
					"type": "function"
				},
				{
					"inputs": [
						{
							"internalType": "uint256",
							"name": "_battleId",
							"type": "uint256"
						},
						{
							"internalType": "uint8",
							"name": "_choice",
							"type": "uint8"
						}
					],
					"name": "vote",
					"outputs": [],
					"stateMutability": "payable",
					"type": "function"
				},
				{
					"inputs": [],
					"name": "withdrawFees",
					"outputs": [],
					"stateMutability": "nonpayable",
					"type": "function"
				},
				{
					"stateMutability": "payable",
					"type": "receive"
				}
			],
			"devdoc": {
				"kind": "dev",
				"methods": {},
				"version": 1
			},
			"evm": {
				"assembly": "    /* \"pratice/memebattlefee.sol\":93:2827  contract MemeBattles {... */\n  mstore(0x40, 0x80)\n    /* \"pratice/memebattlefee.sol\":778:829  constructor() {... */\n  callvalue\n  dup1\n  iszero\n  tag_1\n  jumpi\n  revert(0x00, 0x00)\ntag_1:\n  pop\n    /* \"pratice/memebattlefee.sol\":811:821  msg.sender */\n  caller\n    /* \"pratice/memebattlefee.sol\":803:808  owner */\n  0x03\n  0x00\n    /* \"pratice/memebattlefee.sol\":803:821  owner = msg.sender */\n  0x0100\n  exp\n  dup2\n  sload\n  dup2\n  0xffffffffffffffffffffffffffffffffffffffff\n  mul\n  not\n  and\n  swap1\n  dup4\n  0xffffffffffffffffffffffffffffffffffffffff\n  and\n  mul\n  or\n  swap1\n  sstore\n  pop\n    /* \"pratice/memebattlefee.sol\":93:2827  contract MemeBattles {... */\n  dataSize(sub_0)\n  dup1\n  dataOffset(sub_0)\n  0x00\n  codecopy\n  0x00\n  return\nstop\n\nsub_0: assembly {\n        /* \"pratice/memebattlefee.sol\":93:2827  contract MemeBattles {... */\n      mstore(0x40, 0x80)\n      jumpi(tag_1, lt(calldatasize, 0x04))\n      shr(0xe0, calldataload(0x00))\n      dup1\n      0x7ef4aa7b\n      gt\n      tag_14\n      jumpi\n      dup1\n      0x7ef4aa7b\n      eq\n      tag_8\n      jumpi\n      dup1\n      0x86f3c603\n      eq\n      tag_9\n      jumpi\n      dup1\n      0x8da5cb5b\n      eq\n      tag_10\n      jumpi\n      dup1\n      0x943e8216\n      eq\n      tag_11\n      jumpi\n      dup1\n      0xb1610d7e\n      eq\n      tag_12\n      jumpi\n      dup1\n      0xe00b6363\n      eq\n      tag_13\n      jumpi\n      jump(tag_2)\n    tag_14:\n      dup1\n      0x4157e6ef\n      eq\n      tag_3\n      jumpi\n      dup1\n      0x43859632\n      eq\n      tag_4\n      jumpi\n      dup1\n      0x476343ee\n      eq\n      tag_5\n      jumpi\n      dup1\n      0x606d2e96\n      eq\n      tag_6\n      jumpi\n      dup1\n      0x6dd0ce7a\n      eq\n      tag_7\n      jumpi\n      jump(tag_2)\n    tag_1:\n    tag_2:\n      stop\n        /* \"pratice/memebattlefee.sol\":2224:2430  function endBattle(uint256 _battleId) external {... */\n    tag_3:\n      callvalue\n      dup1\n      iszero\n      tag_19\n      jumpi\n      revert(0x00, 0x00)\n    tag_19:\n      pop\n      tag_20\n      0x04\n      dup1\n      calldatasize\n      sub\n      dup2\n      add\n      swap1\n      tag_21\n      swap2\n      swap1\n      tag_22\n      jump\t// in\n    tag_21:\n      tag_23\n      jump\t// in\n    tag_20:\n      stop\n        /* \"pratice/memebattlefee.sol\":347:407  mapping(uint256 => mapping(address => bool)) public hasVoted */\n    tag_4:\n      callvalue\n      dup1\n      iszero\n      tag_24\n      jumpi\n      revert(0x00, 0x00)\n    tag_24:\n      pop\n      tag_25\n      0x04\n      dup1\n      calldatasize\n      sub\n      dup2\n      add\n      swap1\n      tag_26\n      swap2\n      swap1\n      tag_27\n      jump\t// in\n    tag_26:\n      tag_28\n      jump\t// in\n    tag_25:\n      mload(0x40)\n      tag_29\n      swap2\n      swap1\n      tag_30\n      jump\t// in\n    tag_29:\n      mload(0x40)\n      dup1\n      swap2\n      sub\n      swap1\n      return\n        /* \"pratice/memebattlefee.sol\":2438:2751  function withdrawFees() external {... */\n    tag_5:\n      callvalue\n      dup1\n      iszero\n      tag_31\n      jumpi\n      revert(0x00, 0x00)\n    tag_31:\n      pop\n      tag_32\n      tag_33\n      jump\t// in\n    tag_32:\n      stop\n        /* \"pratice/memebattlefee.sol\":299:340  mapping(uint256 => Battle) public battles */\n    tag_6:\n      callvalue\n      dup1\n      iszero\n      tag_34\n      jumpi\n      revert(0x00, 0x00)\n    tag_34:\n      pop\n      tag_35\n      0x04\n      dup1\n      calldatasize\n      sub\n      dup2\n      add\n      swap1\n      tag_36\n      swap2\n      swap1\n      tag_22\n      jump\t// in\n    tag_36:\n      tag_37\n      jump\t// in\n    tag_35:\n      mload(0x40)\n      tag_38\n      swap7\n      swap6\n      swap5\n      swap4\n      swap3\n      swap2\n      swap1\n      tag_39\n      jump\t// in\n    tag_38:\n      mload(0x40)\n      dup1\n      swap2\n      sub\n      swap1\n      return\n        /* \"pratice/memebattlefee.sol\":2096:2216  function getBattle(uint256 _battleId) external view returns (Battle memory) {... */\n    tag_7:\n      callvalue\n      dup1\n      iszero\n      tag_40\n      jumpi\n      revert(0x00, 0x00)\n    tag_40:\n      pop\n      tag_41\n      0x04\n      dup1\n      calldatasize\n      sub\n      dup2\n      add\n      swap1\n      tag_42\n      swap2\n      swap1\n      tag_22\n      jump\t// in\n    tag_42:\n      tag_43\n      jump\t// in\n    tag_41:\n      mload(0x40)\n      tag_44\n      swap2\n      swap1\n      tag_45\n      jump\t// in\n    tag_44:\n      mload(0x40)\n      dup1\n      swap2\n      sub\n      swap1\n      return\n        /* \"pratice/memebattlefee.sol\":529:578  uint256 public constant VOTE_FEE = 20000000000000 */\n    tag_8:\n      callvalue\n      dup1\n      iszero\n      tag_46\n      jumpi\n      revert(0x00, 0x00)\n    tag_46:\n      pop\n      tag_47\n      tag_48\n      jump\t// in\n    tag_47:\n      mload(0x40)\n      tag_49\n      swap2\n      swap1\n      tag_50\n      jump\t// in\n    tag_49:\n      mload(0x40)\n      dup1\n      swap2\n      sub\n      swap1\n      return\n        /* \"pratice/memebattlefee.sol\":837:1278  function createBattle(string memory _castA, string memory _castB) external returns (uint256) {... */\n    tag_9:\n      callvalue\n      dup1\n      iszero\n      tag_51\n      jumpi\n      revert(0x00, 0x00)\n    tag_51:\n      pop\n      tag_52\n      0x04\n      dup1\n      calldatasize\n      sub\n      dup2\n      add\n      swap1\n      tag_53\n      swap2\n      swap1\n      tag_54\n      jump\t// in\n    tag_53:\n      tag_55\n      jump\t// in\n    tag_52:\n      mload(0x40)\n      tag_56\n      swap2\n      swap1\n      tag_50\n      jump\t// in\n    tag_56:\n      mload(0x40)\n      dup1\n      swap2\n      sub\n      swap1\n      return\n        /* \"pratice/memebattlefee.sol\":502:522  address public owner */\n    tag_10:\n      callvalue\n      dup1\n      iszero\n      tag_57\n      jumpi\n      revert(0x00, 0x00)\n    tag_57:\n      pop\n      tag_58\n      tag_59\n      jump\t// in\n    tag_58:\n      mload(0x40)\n      tag_60\n      swap2\n      swap1\n      tag_61\n      jump\t// in\n    tag_60:\n      mload(0x40)\n      dup1\n      swap2\n      sub\n      swap1\n      return\n        /* \"pratice/memebattlefee.sol\":1286:2088  function vote(uint256 _battleId, uint8 _choice) external payable {... */\n    tag_11:\n      tag_62\n      0x04\n      dup1\n      calldatasize\n      sub\n      dup2\n      add\n      swap1\n      tag_63\n      swap2\n      swap1\n      tag_64\n      jump\t// in\n    tag_63:\n      tag_65\n      jump\t// in\n    tag_62:\n      stop\n        /* \"pratice/memebattlefee.sol\":449:495  uint256 public constant VOTING_PERIOD = 7 days */\n    tag_12:\n      callvalue\n      dup1\n      iszero\n      tag_66\n      jumpi\n      revert(0x00, 0x00)\n    tag_66:\n      pop\n      tag_67\n      tag_68\n      jump\t// in\n    tag_67:\n      mload(0x40)\n      tag_69\n      swap2\n      swap1\n      tag_50\n      jump\t// in\n    tag_69:\n      mload(0x40)\n      dup1\n      swap2\n      sub\n      swap1\n      return\n        /* \"pratice/memebattlefee.sol\":416:442  uint256 public battleCount */\n    tag_13:\n      callvalue\n      dup1\n      iszero\n      tag_70\n      jumpi\n      revert(0x00, 0x00)\n    tag_70:\n      pop\n      tag_71\n      tag_72\n      jump\t// in\n    tag_71:\n      mload(0x40)\n      tag_73\n      swap2\n      swap1\n      tag_50\n      jump\t// in\n    tag_73:\n      mload(0x40)\n      dup1\n      swap2\n      sub\n      swap1\n      return\n        /* \"pratice/memebattlefee.sol\":2224:2430  function endBattle(uint256 _battleId) external {... */\n    tag_23:\n        /* \"pratice/memebattlefee.sol\":489:495  7 days */\n      0x093a80\n        /* \"pratice/memebattlefee.sol\":2308:2315  battles */\n      0x00\n        /* \"pratice/memebattlefee.sol\":2308:2326  battles[_battleId] */\n      0x00\n        /* \"pratice/memebattlefee.sol\":2316:2325  _battleId */\n      dup4\n        /* \"pratice/memebattlefee.sol\":2308:2326  battles[_battleId] */\n      dup2\n      mstore\n      0x20\n      add\n      swap1\n      dup2\n      mstore\n      0x20\n      add\n      0x00\n      keccak256\n        /* \"pratice/memebattlefee.sol\":2308:2336  battles[_battleId].createdAt */\n      0x05\n      add\n      sload\n        /* \"pratice/memebattlefee.sol\":2308:2352  battles[_battleId].createdAt + VOTING_PERIOD */\n      tag_75\n      swap2\n      swap1\n      tag_76\n      jump\t// in\n    tag_75:\n        /* \"pratice/memebattlefee.sol\":2290:2305  block.timestamp */\n      timestamp\n        /* \"pratice/memebattlefee.sol\":2290:2352  block.timestamp > battles[_battleId].createdAt + VOTING_PERIOD */\n      gt\n        /* \"pratice/memebattlefee.sol\":2282:2376  require(block.timestamp > battles[_battleId].createdAt + VOTING_PERIOD, \"Voting still active\") */\n      tag_77\n      jumpi\n      mload(0x40)\n      0x08c379a000000000000000000000000000000000000000000000000000000000\n      dup2\n      mstore\n      0x04\n      add\n      tag_78\n      swap1\n      tag_79\n      jump\t// in\n    tag_78:\n      mload(0x40)\n      dup1\n      swap2\n      sub\n      swap1\n      revert\n    tag_77:\n        /* \"pratice/memebattlefee.sol\":2417:2422  false */\n      0x00\n        /* \"pratice/memebattlefee.sol\":2387:2394  battles */\n      0x00\n        /* \"pratice/memebattlefee.sol\":2387:2405  battles[_battleId] */\n      0x00\n        /* \"pratice/memebattlefee.sol\":2395:2404  _battleId */\n      dup4\n        /* \"pratice/memebattlefee.sol\":2387:2405  battles[_battleId] */\n      dup2\n      mstore\n      0x20\n      add\n      swap1\n      dup2\n      mstore\n      0x20\n      add\n      0x00\n      keccak256\n        /* \"pratice/memebattlefee.sol\":2387:2414  battles[_battleId].isActive */\n      0x04\n      add\n      0x00\n        /* \"pratice/memebattlefee.sol\":2387:2422  battles[_battleId].isActive = false */\n      0x0100\n      exp\n      dup2\n      sload\n      dup2\n      0xff\n      mul\n      not\n      and\n      swap1\n      dup4\n      iszero\n      iszero\n      mul\n      or\n      swap1\n      sstore\n      pop\n        /* \"pratice/memebattlefee.sol\":2224:2430  function endBattle(uint256 _battleId) external {... */\n      pop\n      jump\t// out\n        /* \"pratice/memebattlefee.sol\":347:407  mapping(uint256 => mapping(address => bool)) public hasVoted */\n    tag_28:\n      mstore(0x20, 0x01)\n      dup2\n      0x00\n      mstore\n      mstore(0x20, keccak256(0x00, 0x40))\n      dup1\n      0x00\n      mstore\n      keccak256(0x00, 0x40)\n      0x00\n      swap2\n      pop\n      swap2\n      pop\n      swap1\n      sload\n      swap1\n      0x0100\n      exp\n      swap1\n      div\n      0xff\n      and\n      dup2\n      jump\t// out\n        /* \"pratice/memebattlefee.sol\":2438:2751  function withdrawFees() external {... */\n    tag_33:\n        /* \"pratice/memebattlefee.sol\":2504:2509  owner */\n      0x03\n      0x00\n      swap1\n      sload\n      swap1\n      0x0100\n      exp\n      swap1\n      div\n      0xffffffffffffffffffffffffffffffffffffffff\n      and\n        /* \"pratice/memebattlefee.sol\":2490:2509  msg.sender == owner */\n      0xffffffffffffffffffffffffffffffffffffffff\n      and\n        /* \"pratice/memebattlefee.sol\":2490:2500  msg.sender */\n      caller\n        /* \"pratice/memebattlefee.sol\":2490:2509  msg.sender == owner */\n      0xffffffffffffffffffffffffffffffffffffffff\n      and\n      eq\n        /* \"pratice/memebattlefee.sol\":2482:2523  require(msg.sender == owner, \"Not owner\") */\n      tag_81\n      jumpi\n      mload(0x40)\n      0x08c379a000000000000000000000000000000000000000000000000000000000\n      dup2\n      mstore\n      0x04\n      add\n      tag_82\n      swap1\n      tag_83\n      jump\t// in\n    tag_82:\n      mload(0x40)\n      dup1\n      swap2\n      sub\n      swap1\n      revert\n    tag_81:\n        /* \"pratice/memebattlefee.sol\":2534:2549  uint256 balance */\n      0x00\n        /* \"pratice/memebattlefee.sol\":2552:2573  address(this).balance */\n      selfbalance\n        /* \"pratice/memebattlefee.sol\":2534:2573  uint256 balance = address(this).balance */\n      swap1\n      pop\n        /* \"pratice/memebattlefee.sol\":2602:2603  0 */\n      0x00\n        /* \"pratice/memebattlefee.sol\":2592:2599  balance */\n      dup2\n        /* \"pratice/memebattlefee.sol\":2592:2603  balance > 0 */\n      gt\n        /* \"pratice/memebattlefee.sol\":2584:2627  require(balance > 0, \"No fees to withdraw\") */\n      tag_84\n      jumpi\n      mload(0x40)\n      0x08c379a000000000000000000000000000000000000000000000000000000000\n      dup2\n      mstore\n      0x04\n      add\n      tag_85\n      swap1\n      tag_86\n      jump\t// in\n    tag_85:\n      mload(0x40)\n      dup1\n      swap2\n      sub\n      swap1\n      revert\n    tag_84:\n        /* \"pratice/memebattlefee.sol\":2649:2661  bool success */\n      0x00\n        /* \"pratice/memebattlefee.sol\":2667:2672  owner */\n      0x03\n      0x00\n      swap1\n      sload\n      swap1\n      0x0100\n      exp\n      swap1\n      div\n      0xffffffffffffffffffffffffffffffffffffffff\n      and\n        /* \"pratice/memebattlefee.sol\":2667:2677  owner.call */\n      0xffffffffffffffffffffffffffffffffffffffff\n      and\n        /* \"pratice/memebattlefee.sol\":2685:2692  balance */\n      dup3\n        /* \"pratice/memebattlefee.sol\":2667:2697  owner.call{value: balance}(\"\") */\n      mload(0x40)\n      tag_87\n      swap1\n      tag_88\n      jump\t// in\n    tag_87:\n      0x00\n      mload(0x40)\n      dup1\n      dup4\n      sub\n      dup2\n      dup6\n      dup8\n      gas\n      call\n      swap3\n      pop\n      pop\n      pop\n      returndatasize\n      dup1\n      0x00\n      dup2\n      eq\n      tag_91\n      jumpi\n      mload(0x40)\n      swap2\n      pop\n      and(add(returndatasize, 0x3f), not(0x1f))\n      dup3\n      add\n      0x40\n      mstore\n      returndatasize\n      dup3\n      mstore\n      returndatasize\n      0x00\n      0x20\n      dup5\n      add\n      returndatacopy\n      jump(tag_90)\n    tag_91:\n      0x60\n      swap2\n      pop\n    tag_90:\n      pop\n        /* \"pratice/memebattlefee.sol\":2648:2697  (bool success, ) = owner.call{value: balance}(\"\") */\n      pop\n      swap1\n      pop\n        /* \"pratice/memebattlefee.sol\":2716:2723  success */\n      dup1\n        /* \"pratice/memebattlefee.sol\":2708:2743  require(success, \"Transfer failed\") */\n      tag_92\n      jumpi\n      mload(0x40)\n      0x08c379a000000000000000000000000000000000000000000000000000000000\n      dup2\n      mstore\n      0x04\n      add\n      tag_93\n      swap1\n      tag_94\n      jump\t// in\n    tag_93:\n      mload(0x40)\n      dup1\n      swap2\n      sub\n      swap1\n      revert\n    tag_92:\n        /* \"pratice/memebattlefee.sol\":2471:2751  {... */\n      pop\n      pop\n        /* \"pratice/memebattlefee.sol\":2438:2751  function withdrawFees() external {... */\n      jump\t// out\n        /* \"pratice/memebattlefee.sol\":299:340  mapping(uint256 => Battle) public battles */\n    tag_37:\n      mstore(0x20, 0x00)\n      dup1\n      0x00\n      mstore\n      keccak256(0x00, 0x40)\n      0x00\n      swap2\n      pop\n      swap1\n      pop\n      dup1\n      0x00\n      add\n      dup1\n      sload\n      tag_95\n      swap1\n      tag_96\n      jump\t// in\n    tag_95:\n      dup1\n      0x1f\n      add\n      0x20\n      dup1\n      swap2\n      div\n      mul\n      0x20\n      add\n      mload(0x40)\n      swap1\n      dup2\n      add\n      0x40\n      mstore\n      dup1\n      swap3\n      swap2\n      swap1\n      dup2\n      dup2\n      mstore\n      0x20\n      add\n      dup3\n      dup1\n      sload\n      tag_97\n      swap1\n      tag_96\n      jump\t// in\n    tag_97:\n      dup1\n      iszero\n      tag_98\n      jumpi\n      dup1\n      0x1f\n      lt\n      tag_99\n      jumpi\n      0x0100\n      dup1\n      dup4\n      sload\n      div\n      mul\n      dup4\n      mstore\n      swap2\n      0x20\n      add\n      swap2\n      jump(tag_98)\n    tag_99:\n      dup3\n      add\n      swap2\n      swap1\n      0x00\n      mstore\n      keccak256(0x00, 0x20)\n      swap1\n    tag_100:\n      dup2\n      sload\n      dup2\n      mstore\n      swap1\n      0x01\n      add\n      swap1\n      0x20\n      add\n      dup1\n      dup4\n      gt\n      tag_100\n      jumpi\n      dup3\n      swap1\n      sub\n      0x1f\n      and\n      dup3\n      add\n      swap2\n    tag_98:\n      pop\n      pop\n      pop\n      pop\n      pop\n      swap1\n      dup1\n      0x01\n      add\n      dup1\n      sload\n      tag_101\n      swap1\n      tag_96\n      jump\t// in\n    tag_101:\n      dup1\n      0x1f\n      add\n      0x20\n      dup1\n      swap2\n      div\n      mul\n      0x20\n      add\n      mload(0x40)\n      swap1\n      dup2\n      add\n      0x40\n      mstore\n      dup1\n      swap3\n      swap2\n      swap1\n      dup2\n      dup2\n      mstore\n      0x20\n      add\n      dup3\n      dup1\n      sload\n      tag_102\n      swap1\n      tag_96\n      jump\t// in\n    tag_102:\n      dup1\n      iszero\n      tag_103\n      jumpi\n      dup1\n      0x1f\n      lt\n      tag_104\n      jumpi\n      0x0100\n      dup1\n      dup4\n      sload\n      div\n      mul\n      dup4\n      mstore\n      swap2\n      0x20\n      add\n      swap2\n      jump(tag_103)\n    tag_104:\n      dup3\n      add\n      swap2\n      swap1\n      0x00\n      mstore\n      keccak256(0x00, 0x20)\n      swap1\n    tag_105:\n      dup2\n      sload\n      dup2\n      mstore\n      swap1\n      0x01\n      add\n      swap1\n      0x20\n      add\n      dup1\n      dup4\n      gt\n      tag_105\n      jumpi\n      dup3\n      swap1\n      sub\n      0x1f\n      and\n      dup3\n      add\n      swap2\n    tag_103:\n      pop\n      pop\n      pop\n      pop\n      pop\n      swap1\n      dup1\n      0x02\n      add\n      sload\n      swap1\n      dup1\n      0x03\n      add\n      sload\n      swap1\n      dup1\n      0x04\n      add\n      0x00\n      swap1\n      sload\n      swap1\n      0x0100\n      exp\n      swap1\n      div\n      0xff\n      and\n      swap1\n      dup1\n      0x05\n      add\n      sload\n      swap1\n      pop\n      dup7\n      jump\t// out\n        /* \"pratice/memebattlefee.sol\":2096:2216  function getBattle(uint256 _battleId) external view returns (Battle memory) {... */\n    tag_43:\n        /* \"pratice/memebattlefee.sol\":2157:2170  Battle memory */\n      tag_106\n      tag_107\n      jump\t// in\n    tag_106:\n        /* \"pratice/memebattlefee.sol\":2190:2197  battles */\n      0x00\n        /* \"pratice/memebattlefee.sol\":2190:2208  battles[_battleId] */\n      0x00\n        /* \"pratice/memebattlefee.sol\":2198:2207  _battleId */\n      dup4\n        /* \"pratice/memebattlefee.sol\":2190:2208  battles[_battleId] */\n      dup2\n      mstore\n      0x20\n      add\n      swap1\n      dup2\n      mstore\n      0x20\n      add\n      0x00\n      keccak256\n        /* \"pratice/memebattlefee.sol\":2183:2208  return battles[_battleId] */\n      mload(0x40)\n      dup1\n      0xc0\n      add\n      0x40\n      mstore\n      swap1\n      dup2\n      0x00\n      dup3\n      add\n      dup1\n      sload\n      tag_109\n      swap1\n      tag_96\n      jump\t// in\n    tag_109:\n      dup1\n      0x1f\n      add\n      0x20\n      dup1\n      swap2\n      div\n      mul\n      0x20\n      add\n      mload(0x40)\n      swap1\n      dup2\n      add\n      0x40\n      mstore\n      dup1\n      swap3\n      swap2\n      swap1\n      dup2\n      dup2\n      mstore\n      0x20\n      add\n      dup3\n      dup1\n      sload\n      tag_110\n      swap1\n      tag_96\n      jump\t// in\n    tag_110:\n      dup1\n      iszero\n      tag_111\n      jumpi\n      dup1\n      0x1f\n      lt\n      tag_112\n      jumpi\n      0x0100\n      dup1\n      dup4\n      sload\n      div\n      mul\n      dup4\n      mstore\n      swap2\n      0x20\n      add\n      swap2\n      jump(tag_111)\n    tag_112:\n      dup3\n      add\n      swap2\n      swap1\n      0x00\n      mstore\n      keccak256(0x00, 0x20)\n      swap1\n    tag_113:\n      dup2\n      sload\n      dup2\n      mstore\n      swap1\n      0x01\n      add\n      swap1\n      0x20\n      add\n      dup1\n      dup4\n      gt\n      tag_113\n      jumpi\n      dup3\n      swap1\n      sub\n      0x1f\n      and\n      dup3\n      add\n      swap2\n    tag_111:\n      pop\n      pop\n      pop\n      pop\n      pop\n      dup2\n      mstore\n      0x20\n      add\n      0x01\n      dup3\n      add\n      dup1\n      sload\n      tag_114\n      swap1\n      tag_96\n      jump\t// in\n    tag_114:\n      dup1\n      0x1f\n      add\n      0x20\n      dup1\n      swap2\n      div\n      mul\n      0x20\n      add\n      mload(0x40)\n      swap1\n      dup2\n      add\n      0x40\n      mstore\n      dup1\n      swap3\n      swap2\n      swap1\n      dup2\n      dup2\n      mstore\n      0x20\n      add\n      dup3\n      dup1\n      sload\n      tag_115\n      swap1\n      tag_96\n      jump\t// in\n    tag_115:\n      dup1\n      iszero\n      tag_116\n      jumpi\n      dup1\n      0x1f\n      lt\n      tag_117\n      jumpi\n      0x0100\n      dup1\n      dup4\n      sload\n      div\n      mul\n      dup4\n      mstore\n      swap2\n      0x20\n      add\n      swap2\n      jump(tag_116)\n    tag_117:\n      dup3\n      add\n      swap2\n      swap1\n      0x00\n      mstore\n      keccak256(0x00, 0x20)\n      swap1\n    tag_118:\n      dup2\n      sload\n      dup2\n      mstore\n      swap1\n      0x01\n      add\n      swap1\n      0x20\n      add\n      dup1\n      dup4\n      gt\n      tag_118\n      jumpi\n      dup3\n      swap1\n      sub\n      0x1f\n      and\n      dup3\n      add\n      swap2\n    tag_116:\n      pop\n      pop\n      pop\n      pop\n      pop\n      dup2\n      mstore\n      0x20\n      add\n      0x02\n      dup3\n      add\n      sload\n      dup2\n      mstore\n      0x20\n      add\n      0x03\n      dup3\n      add\n      sload\n      dup2\n      mstore\n      0x20\n      add\n      0x04\n      dup3\n      add\n      0x00\n      swap1\n      sload\n      swap1\n      0x0100\n      exp\n      swap1\n      div\n      0xff\n      and\n      iszero\n      iszero\n      iszero\n      iszero\n      dup2\n      mstore\n      0x20\n      add\n      0x05\n      dup3\n      add\n      sload\n      dup2\n      mstore\n      pop\n      pop\n      swap1\n      pop\n        /* \"pratice/memebattlefee.sol\":2096:2216  function getBattle(uint256 _battleId) external view returns (Battle memory) {... */\n      swap2\n      swap1\n      pop\n      jump\t// out\n        /* \"pratice/memebattlefee.sol\":529:578  uint256 public constant VOTE_FEE = 20000000000000 */\n    tag_48:\n        /* \"pratice/memebattlefee.sol\":564:578  20000000000000 */\n      0x12309ce54000\n        /* \"pratice/memebattlefee.sol\":529:578  uint256 public constant VOTE_FEE = 20000000000000 */\n      dup2\n      jump\t// out\n        /* \"pratice/memebattlefee.sol\":837:1278  function createBattle(string memory _castA, string memory _castB) external returns (uint256) {... */\n    tag_55:\n        /* \"pratice/memebattlefee.sol\":921:928  uint256 */\n      0x00\n        /* \"pratice/memebattlefee.sol\":941:952  battleCount */\n      0x02\n      0x00\n        /* \"pratice/memebattlefee.sol\":941:954  battleCount++ */\n      dup2\n      sload\n      dup1\n      swap3\n      swap2\n      swap1\n      tag_120\n      swap1\n      tag_121\n      jump\t// in\n    tag_120:\n      swap2\n      swap1\n      pop\n      sstore\n      pop\n        /* \"pratice/memebattlefee.sol\":988:1181  Battle({... */\n      mload(0x40)\n      dup1\n      0xc0\n      add\n      0x40\n      mstore\n      dup1\n        /* \"pratice/memebattlefee.sol\":1017:1023  _castA */\n      dup5\n        /* \"pratice/memebattlefee.sol\":988:1181  Battle({... */\n      dup2\n      mstore\n      0x20\n      add\n        /* \"pratice/memebattlefee.sol\":1045:1051  _castB */\n      dup4\n        /* \"pratice/memebattlefee.sol\":988:1181  Battle({... */\n      dup2\n      mstore\n      0x20\n      add\n        /* \"pratice/memebattlefee.sol\":1074:1075  0 */\n      0x00\n        /* \"pratice/memebattlefee.sol\":988:1181  Battle({... */\n      dup2\n      mstore\n      0x20\n      add\n        /* \"pratice/memebattlefee.sol\":1098:1099  0 */\n      0x00\n        /* \"pratice/memebattlefee.sol\":988:1181  Battle({... */\n      dup2\n      mstore\n      0x20\n      add\n        /* \"pratice/memebattlefee.sol\":1124:1128  true */\n      0x01\n        /* \"pratice/memebattlefee.sol\":988:1181  Battle({... */\n      iszero\n      iszero\n      dup2\n      mstore\n      0x20\n      add\n        /* \"pratice/memebattlefee.sol\":1154:1169  block.timestamp */\n      timestamp\n        /* \"pratice/memebattlefee.sol\":988:1181  Battle({... */\n      dup2\n      mstore\n      pop\n        /* \"pratice/memebattlefee.sol\":965:972  battles */\n      0x00\n        /* \"pratice/memebattlefee.sol\":965:985  battles[battleCount] */\n      0x00\n        /* \"pratice/memebattlefee.sol\":973:984  battleCount */\n      sload(0x02)\n        /* \"pratice/memebattlefee.sol\":965:985  battles[battleCount] */\n      dup2\n      mstore\n      0x20\n      add\n      swap1\n      dup2\n      mstore\n      0x20\n      add\n      0x00\n      keccak256\n        /* \"pratice/memebattlefee.sol\":965:1181  battles[battleCount] = Battle({... */\n      0x00\n      dup3\n      add\n      mload\n      dup2\n      0x00\n      add\n      swap1\n      dup2\n      tag_122\n      swap2\n      swap1\n      tag_123\n      jump\t// in\n    tag_122:\n      pop\n      0x20\n      dup3\n      add\n      mload\n      dup2\n      0x01\n      add\n      swap1\n      dup2\n      tag_124\n      swap2\n      swap1\n      tag_123\n      jump\t// in\n    tag_124:\n      pop\n      0x40\n      dup3\n      add\n      mload\n      dup2\n      0x02\n      add\n      sstore\n      0x60\n      dup3\n      add\n      mload\n      dup2\n      0x03\n      add\n      sstore\n      0x80\n      dup3\n      add\n      mload\n      dup2\n      0x04\n      add\n      exp(0x0100, 0x00)\n      dup2\n      sload\n      dup2\n      0xff\n      mul\n      not\n      and\n      swap1\n      dup4\n      iszero\n      iszero\n      mul\n      or\n      swap1\n      sstore\n      pop\n      0xa0\n      dup3\n      add\n      mload\n      dup2\n      0x05\n      add\n      sstore\n      swap1\n      pop\n      pop\n        /* \"pratice/memebattlefee.sol\":1213:1224  battleCount */\n      sload(0x02)\n        /* \"pratice/memebattlefee.sol\":1199:1241  BattleCreated(battleCount, _castA, _castB) */\n      0x993302b004445be4887eaa46f6e83bf3dfb94f0fa8a144f76841f9a5dd51a183\n        /* \"pratice/memebattlefee.sol\":1226:1232  _castA */\n      dup5\n        /* \"pratice/memebattlefee.sol\":1234:1240  _castB */\n      dup5\n        /* \"pratice/memebattlefee.sol\":1199:1241  BattleCreated(battleCount, _castA, _castB) */\n      mload(0x40)\n      tag_125\n      swap3\n      swap2\n      swap1\n      tag_126\n      jump\t// in\n    tag_125:\n      mload(0x40)\n      dup1\n      swap2\n      sub\n      swap1\n      log2\n        /* \"pratice/memebattlefee.sol\":1259:1270  battleCount */\n      sload(0x02)\n        /* \"pratice/memebattlefee.sol\":1252:1270  return battleCount */\n      swap1\n      pop\n        /* \"pratice/memebattlefee.sol\":837:1278  function createBattle(string memory _castA, string memory _castB) external returns (uint256) {... */\n      swap3\n      swap2\n      pop\n      pop\n      jump\t// out\n        /* \"pratice/memebattlefee.sol\":502:522  address public owner */\n    tag_59:\n      0x03\n      0x00\n      swap1\n      sload\n      swap1\n      0x0100\n      exp\n      swap1\n      div\n      0xffffffffffffffffffffffffffffffffffffffff\n      and\n      dup2\n      jump\t// out\n        /* \"pratice/memebattlefee.sol\":1286:2088  function vote(uint256 _battleId, uint8 _choice) external payable {... */\n    tag_65:\n        /* \"pratice/memebattlefee.sol\":564:578  20000000000000 */\n      0x12309ce54000\n        /* \"pratice/memebattlefee.sol\":1370:1379  msg.value */\n      callvalue\n        /* \"pratice/memebattlefee.sol\":1370:1391  msg.value == VOTE_FEE */\n      eq\n        /* \"pratice/memebattlefee.sol\":1362:1414  require(msg.value == VOTE_FEE, \"Exact fee required\") */\n      tag_128\n      jumpi\n      mload(0x40)\n      0x08c379a000000000000000000000000000000000000000000000000000000000\n      dup2\n      mstore\n      0x04\n      add\n      tag_129\n      swap1\n      tag_130\n      jump\t// in\n    tag_129:\n      mload(0x40)\n      dup1\n      swap2\n      sub\n      swap1\n      revert\n    tag_128:\n        /* \"pratice/memebattlefee.sol\":1471:1482  battleCount */\n      sload(0x02)\n        /* \"pratice/memebattlefee.sol\":1458:1467  _battleId */\n      dup3\n        /* \"pratice/memebattlefee.sol\":1458:1482  _battleId <= battleCount */\n      gt\n      iszero\n        /* \"pratice/memebattlefee.sol\":1458:1499  _battleId <= battleCount && _battleId > 0 */\n      dup1\n      iszero\n      tag_131\n      jumpi\n      pop\n        /* \"pratice/memebattlefee.sol\":1498:1499  0 */\n      0x00\n        /* \"pratice/memebattlefee.sol\":1486:1495  _battleId */\n      dup3\n        /* \"pratice/memebattlefee.sol\":1486:1499  _battleId > 0 */\n      gt\n        /* \"pratice/memebattlefee.sol\":1458:1499  _battleId <= battleCount && _battleId > 0 */\n    tag_131:\n        /* \"pratice/memebattlefee.sol\":1450:1521  require(_battleId <= battleCount && _battleId > 0, \"Invalid battle ID\") */\n      tag_132\n      jumpi\n      mload(0x40)\n      0x08c379a000000000000000000000000000000000000000000000000000000000\n      dup2\n      mstore\n      0x04\n      add\n      tag_133\n      swap1\n      tag_134\n      jump\t// in\n    tag_133:\n      mload(0x40)\n      dup1\n      swap2\n      sub\n      swap1\n      revert\n    tag_132:\n        /* \"pratice/memebattlefee.sol\":1540:1547  battles */\n      0x00\n        /* \"pratice/memebattlefee.sol\":1540:1558  battles[_battleId] */\n      0x00\n        /* \"pratice/memebattlefee.sol\":1548:1557  _battleId */\n      dup4\n        /* \"pratice/memebattlefee.sol\":1540:1558  battles[_battleId] */\n      dup2\n      mstore\n      0x20\n      add\n      swap1\n      dup2\n      mstore\n      0x20\n      add\n      0x00\n      keccak256\n        /* \"pratice/memebattlefee.sol\":1540:1567  battles[_battleId].isActive */\n      0x04\n      add\n      0x00\n      swap1\n      sload\n      swap1\n      0x0100\n      exp\n      swap1\n      div\n      0xff\n      and\n        /* \"pratice/memebattlefee.sol\":1532:1587  require(battles[_battleId].isActive, \"Battle inactive\") */\n      tag_135\n      jumpi\n      mload(0x40)\n      0x08c379a000000000000000000000000000000000000000000000000000000000\n      dup2\n      mstore\n      0x04\n      add\n      tag_136\n      swap1\n      tag_137\n      jump\t// in\n    tag_136:\n      mload(0x40)\n      dup1\n      swap2\n      sub\n      swap1\n      revert\n    tag_135:\n        /* \"pratice/memebattlefee.sol\":1607:1615  hasVoted */\n      0x01\n        /* \"pratice/memebattlefee.sol\":1607:1626  hasVoted[_battleId] */\n      0x00\n        /* \"pratice/memebattlefee.sol\":1616:1625  _battleId */\n      dup4\n        /* \"pratice/memebattlefee.sol\":1607:1626  hasVoted[_battleId] */\n      dup2\n      mstore\n      0x20\n      add\n      swap1\n      dup2\n      mstore\n      0x20\n      add\n      0x00\n      keccak256\n        /* \"pratice/memebattlefee.sol\":1607:1638  hasVoted[_battleId][msg.sender] */\n      0x00\n        /* \"pratice/memebattlefee.sol\":1627:1637  msg.sender */\n      caller\n        /* \"pratice/memebattlefee.sol\":1607:1638  hasVoted[_battleId][msg.sender] */\n      0xffffffffffffffffffffffffffffffffffffffff\n      and\n      0xffffffffffffffffffffffffffffffffffffffff\n      and\n      dup2\n      mstore\n      0x20\n      add\n      swap1\n      dup2\n      mstore\n      0x20\n      add\n      0x00\n      keccak256\n      0x00\n      swap1\n      sload\n      swap1\n      0x0100\n      exp\n      swap1\n      div\n      0xff\n      and\n        /* \"pratice/memebattlefee.sol\":1606:1638  !hasVoted[_battleId][msg.sender] */\n      iszero\n        /* \"pratice/memebattlefee.sol\":1598:1656  require(!hasVoted[_battleId][msg.sender], \"Already voted\") */\n      tag_138\n      jumpi\n      mload(0x40)\n      0x08c379a000000000000000000000000000000000000000000000000000000000\n      dup2\n      mstore\n      0x04\n      add\n      tag_139\n      swap1\n      tag_140\n      jump\t// in\n    tag_139:\n      mload(0x40)\n      dup1\n      swap2\n      sub\n      swap1\n      revert\n    tag_138:\n        /* \"pratice/memebattlefee.sol\":1686:1687  1 */\n      0x01\n        /* \"pratice/memebattlefee.sol\":1675:1682  _choice */\n      dup2\n        /* \"pratice/memebattlefee.sol\":1675:1687  _choice == 1 */\n      0xff\n      and\n      eq\n        /* \"pratice/memebattlefee.sol\":1675:1703  _choice == 1 || _choice == 2 */\n      dup1\n      tag_141\n      jumpi\n      pop\n        /* \"pratice/memebattlefee.sol\":1702:1703  2 */\n      0x02\n        /* \"pratice/memebattlefee.sol\":1691:1698  _choice */\n      dup2\n        /* \"pratice/memebattlefee.sol\":1691:1703  _choice == 2 */\n      0xff\n      and\n      eq\n        /* \"pratice/memebattlefee.sol\":1675:1703  _choice == 1 || _choice == 2 */\n    tag_141:\n        /* \"pratice/memebattlefee.sol\":1667:1722  require(_choice == 1 || _choice == 2, \"Invalid choice\") */\n      tag_142\n      jumpi\n      mload(0x40)\n      0x08c379a000000000000000000000000000000000000000000000000000000000\n      dup2\n      mstore\n      0x04\n      add\n      tag_143\n      swap1\n      tag_144\n      jump\t// in\n    tag_143:\n      mload(0x40)\n      dup1\n      swap2\n      sub\n      swap1\n      revert\n    tag_142:\n        /* \"pratice/memebattlefee.sol\":489:495  7 days */\n      0x093a80\n        /* \"pratice/memebattlefee.sol\":1760:1767  battles */\n      0x00\n        /* \"pratice/memebattlefee.sol\":1760:1778  battles[_battleId] */\n      0x00\n        /* \"pratice/memebattlefee.sol\":1768:1777  _battleId */\n      dup5\n        /* \"pratice/memebattlefee.sol\":1760:1778  battles[_battleId] */\n      dup2\n      mstore\n      0x20\n      add\n      swap1\n      dup2\n      mstore\n      0x20\n      add\n      0x00\n      keccak256\n        /* \"pratice/memebattlefee.sol\":1760:1788  battles[_battleId].createdAt */\n      0x05\n      add\n      sload\n        /* \"pratice/memebattlefee.sol\":1760:1804  battles[_battleId].createdAt + VOTING_PERIOD */\n      tag_145\n      swap2\n      swap1\n      tag_76\n      jump\t// in\n    tag_145:\n        /* \"pratice/memebattlefee.sol\":1741:1756  block.timestamp */\n      timestamp\n        /* \"pratice/memebattlefee.sol\":1741:1804  block.timestamp <= battles[_battleId].createdAt + VOTING_PERIOD */\n      gt\n      iszero\n        /* \"pratice/memebattlefee.sol\":1733:1827  require(block.timestamp <= battles[_battleId].createdAt + VOTING_PERIOD, \"Voting period over\") */\n      tag_146\n      jumpi\n      mload(0x40)\n      0x08c379a000000000000000000000000000000000000000000000000000000000\n      dup2\n      mstore\n      0x04\n      add\n      tag_147\n      swap1\n      tag_148\n      jump\t// in\n    tag_147:\n      mload(0x40)\n      dup1\n      swap2\n      sub\n      swap1\n      revert\n    tag_146:\n        /* \"pratice/memebattlefee.sol\":1874:1878  true */\n      0x01\n        /* \"pratice/memebattlefee.sol\":1840:1848  hasVoted */\n      dup1\n        /* \"pratice/memebattlefee.sol\":1840:1859  hasVoted[_battleId] */\n      0x00\n        /* \"pratice/memebattlefee.sol\":1849:1858  _battleId */\n      dup5\n        /* \"pratice/memebattlefee.sol\":1840:1859  hasVoted[_battleId] */\n      dup2\n      mstore\n      0x20\n      add\n      swap1\n      dup2\n      mstore\n      0x20\n      add\n      0x00\n      keccak256\n        /* \"pratice/memebattlefee.sol\":1840:1871  hasVoted[_battleId][msg.sender] */\n      0x00\n        /* \"pratice/memebattlefee.sol\":1860:1870  msg.sender */\n      caller\n        /* \"pratice/memebattlefee.sol\":1840:1871  hasVoted[_battleId][msg.sender] */\n      0xffffffffffffffffffffffffffffffffffffffff\n      and\n      0xffffffffffffffffffffffffffffffffffffffff\n      and\n      dup2\n      mstore\n      0x20\n      add\n      swap1\n      dup2\n      mstore\n      0x20\n      add\n      0x00\n      keccak256\n      0x00\n        /* \"pratice/memebattlefee.sol\":1840:1878  hasVoted[_battleId][msg.sender] = true */\n      0x0100\n      exp\n      dup2\n      sload\n      dup2\n      0xff\n      mul\n      not\n      and\n      swap1\n      dup4\n      iszero\n      iszero\n      mul\n      or\n      swap1\n      sstore\n      pop\n        /* \"pratice/memebattlefee.sol\":1906:1907  1 */\n      0x01\n        /* \"pratice/memebattlefee.sol\":1895:1902  _choice */\n      dup2\n        /* \"pratice/memebattlefee.sol\":1895:1907  _choice == 1 */\n      0xff\n      and\n      sub\n        /* \"pratice/memebattlefee.sol\":1891:2023  if (_choice == 1) {... */\n      tag_149\n      jumpi\n        /* \"pratice/memebattlefee.sol\":1924:1931  battles */\n      0x00\n        /* \"pratice/memebattlefee.sol\":1924:1942  battles[_battleId] */\n      0x00\n        /* \"pratice/memebattlefee.sol\":1932:1941  _battleId */\n      dup4\n        /* \"pratice/memebattlefee.sol\":1924:1942  battles[_battleId] */\n      dup2\n      mstore\n      0x20\n      add\n      swap1\n      dup2\n      mstore\n      0x20\n      add\n      0x00\n      keccak256\n        /* \"pratice/memebattlefee.sol\":1924:1949  battles[_battleId].votesA */\n      0x02\n      add\n      0x00\n        /* \"pratice/memebattlefee.sol\":1924:1951  battles[_battleId].votesA++ */\n      dup2\n      sload\n      dup1\n      swap3\n      swap2\n      swap1\n      tag_150\n      swap1\n      tag_121\n      jump\t// in\n    tag_150:\n      swap2\n      swap1\n      pop\n      sstore\n      pop\n        /* \"pratice/memebattlefee.sol\":1891:2023  if (_choice == 1) {... */\n      jump(tag_151)\n    tag_149:\n        /* \"pratice/memebattlefee.sol\":1984:1991  battles */\n      0x00\n        /* \"pratice/memebattlefee.sol\":1984:2002  battles[_battleId] */\n      0x00\n        /* \"pratice/memebattlefee.sol\":1992:2001  _battleId */\n      dup4\n        /* \"pratice/memebattlefee.sol\":1984:2002  battles[_battleId] */\n      dup2\n      mstore\n      0x20\n      add\n      swap1\n      dup2\n      mstore\n      0x20\n      add\n      0x00\n      keccak256\n        /* \"pratice/memebattlefee.sol\":1984:2009  battles[_battleId].votesB */\n      0x03\n      add\n      0x00\n        /* \"pratice/memebattlefee.sol\":1984:2011  battles[_battleId].votesB++ */\n      dup2\n      sload\n      dup1\n      swap3\n      swap2\n      swap1\n      tag_152\n      swap1\n      tag_121\n      jump\t// in\n    tag_152:\n      swap2\n      swap1\n      pop\n      sstore\n      pop\n        /* \"pratice/memebattlefee.sol\":1891:2023  if (_choice == 1) {... */\n    tag_151:\n        /* \"pratice/memebattlefee.sol\":2060:2070  msg.sender */\n      caller\n        /* \"pratice/memebattlefee.sol\":2040:2080  VoteCast(_battleId, msg.sender, _choice) */\n      0xffffffffffffffffffffffffffffffffffffffff\n      and\n        /* \"pratice/memebattlefee.sol\":2049:2058  _battleId */\n      dup3\n        /* \"pratice/memebattlefee.sol\":2040:2080  VoteCast(_battleId, msg.sender, _choice) */\n      0xeba4866100b822f0f391e610e7edfab790b9e8766c0012733c26b2f1858e8dd7\n        /* \"pratice/memebattlefee.sol\":2072:2079  _choice */\n      dup4\n        /* \"pratice/memebattlefee.sol\":2040:2080  VoteCast(_battleId, msg.sender, _choice) */\n      mload(0x40)\n      tag_153\n      swap2\n      swap1\n      tag_154\n      jump\t// in\n    tag_153:\n      mload(0x40)\n      dup1\n      swap2\n      sub\n      swap1\n      log3\n        /* \"pratice/memebattlefee.sol\":1286:2088  function vote(uint256 _battleId, uint8 _choice) external payable {... */\n      pop\n      pop\n      jump\t// out\n        /* \"pratice/memebattlefee.sol\":449:495  uint256 public constant VOTING_PERIOD = 7 days */\n    tag_68:\n        /* \"pratice/memebattlefee.sol\":489:495  7 days */\n      0x093a80\n        /* \"pratice/memebattlefee.sol\":449:495  uint256 public constant VOTING_PERIOD = 7 days */\n      dup2\n      jump\t// out\n        /* \"pratice/memebattlefee.sol\":416:442  uint256 public battleCount */\n    tag_72:\n      sload(0x02)\n      dup2\n      jump\t// out\n    tag_107:\n      mload(0x40)\n      dup1\n      0xc0\n      add\n      0x40\n      mstore\n      dup1\n      0x60\n      dup2\n      mstore\n      0x20\n      add\n      0x60\n      dup2\n      mstore\n      0x20\n      add\n      0x00\n      dup2\n      mstore\n      0x20\n      add\n      0x00\n      dup2\n      mstore\n      0x20\n      add\n      iszero(iszero(0x00))\n      dup2\n      mstore\n      0x20\n      add\n      0x00\n      dup2\n      mstore\n      pop\n      swap1\n      jump\t// out\n        /* \"#utility.yul\":7:82   */\n    tag_155:\n        /* \"#utility.yul\":40:46   */\n      0x00\n        /* \"#utility.yul\":73:75   */\n      0x40\n        /* \"#utility.yul\":67:76   */\n      mload\n        /* \"#utility.yul\":57:76   */\n      swap1\n      pop\n        /* \"#utility.yul\":7:82   */\n      swap1\n      jump\t// out\n        /* \"#utility.yul\":88:205   */\n    tag_156:\n        /* \"#utility.yul\":197:198   */\n      0x00\n        /* \"#utility.yul\":194:195   */\n      0x00\n        /* \"#utility.yul\":187:199   */\n      revert\n        /* \"#utility.yul\":211:328   */\n    tag_157:\n        /* \"#utility.yul\":320:321   */\n      0x00\n        /* \"#utility.yul\":317:318   */\n      0x00\n        /* \"#utility.yul\":310:322   */\n      revert\n        /* \"#utility.yul\":334:411   */\n    tag_158:\n        /* \"#utility.yul\":371:378   */\n      0x00\n        /* \"#utility.yul\":400:405   */\n      dup2\n        /* \"#utility.yul\":389:405   */\n      swap1\n      pop\n        /* \"#utility.yul\":334:411   */\n      swap2\n      swap1\n      pop\n      jump\t// out\n        /* \"#utility.yul\":417:539   */\n    tag_159:\n        /* \"#utility.yul\":490:514   */\n      tag_238\n        /* \"#utility.yul\":508:513   */\n      dup2\n        /* \"#utility.yul\":490:514   */\n      tag_158\n      jump\t// in\n    tag_238:\n        /* \"#utility.yul\":483:488   */\n      dup2\n        /* \"#utility.yul\":480:515   */\n      eq\n        /* \"#utility.yul\":470:533   */\n      tag_239\n      jumpi\n        /* \"#utility.yul\":529:530   */\n      0x00\n        /* \"#utility.yul\":526:527   */\n      0x00\n        /* \"#utility.yul\":519:531   */\n      revert\n        /* \"#utility.yul\":470:533   */\n    tag_239:\n        /* \"#utility.yul\":417:539   */\n      pop\n      jump\t// out\n        /* \"#utility.yul\":545:684   */\n    tag_160:\n        /* \"#utility.yul\":591:596   */\n      0x00\n        /* \"#utility.yul\":629:635   */\n      dup2\n        /* \"#utility.yul\":616:636   */\n      calldataload\n        /* \"#utility.yul\":607:636   */\n      swap1\n      pop\n        /* \"#utility.yul\":645:678   */\n      tag_241\n        /* \"#utility.yul\":672:677   */\n      dup2\n        /* \"#utility.yul\":645:678   */\n      tag_159\n      jump\t// in\n    tag_241:\n        /* \"#utility.yul\":545:684   */\n      swap3\n      swap2\n      pop\n      pop\n      jump\t// out\n        /* \"#utility.yul\":690:1019   */\n    tag_22:\n        /* \"#utility.yul\":749:755   */\n      0x00\n        /* \"#utility.yul\":798:800   */\n      0x20\n        /* \"#utility.yul\":786:795   */\n      dup3\n        /* \"#utility.yul\":777:784   */\n      dup5\n        /* \"#utility.yul\":773:796   */\n      sub\n        /* \"#utility.yul\":769:801   */\n      slt\n        /* \"#utility.yul\":766:885   */\n      iszero\n      tag_243\n      jumpi\n        /* \"#utility.yul\":804:883   */\n      tag_244\n      tag_156\n      jump\t// in\n    tag_244:\n        /* \"#utility.yul\":766:885   */\n    tag_243:\n        /* \"#utility.yul\":924:925   */\n      0x00\n        /* \"#utility.yul\":949:1002   */\n      tag_245\n        /* \"#utility.yul\":994:1001   */\n      dup5\n        /* \"#utility.yul\":985:991   */\n      dup3\n        /* \"#utility.yul\":974:983   */\n      dup6\n        /* \"#utility.yul\":970:992   */\n      add\n        /* \"#utility.yul\":949:1002   */\n      tag_160\n      jump\t// in\n    tag_245:\n        /* \"#utility.yul\":939:1002   */\n      swap2\n      pop\n        /* \"#utility.yul\":895:1012   */\n      pop\n        /* \"#utility.yul\":690:1019   */\n      swap3\n      swap2\n      pop\n      pop\n      jump\t// out\n        /* \"#utility.yul\":1025:1151   */\n    tag_161:\n        /* \"#utility.yul\":1062:1069   */\n      0x00\n        /* \"#utility.yul\":1102:1144   */\n      0xffffffffffffffffffffffffffffffffffffffff\n        /* \"#utility.yul\":1095:1100   */\n      dup3\n        /* \"#utility.yul\":1091:1145   */\n      and\n        /* \"#utility.yul\":1080:1145   */\n      swap1\n      pop\n        /* \"#utility.yul\":1025:1151   */\n      swap2\n      swap1\n      pop\n      jump\t// out\n        /* \"#utility.yul\":1157:1253   */\n    tag_162:\n        /* \"#utility.yul\":1194:1201   */\n      0x00\n        /* \"#utility.yul\":1223:1247   */\n      tag_248\n        /* \"#utility.yul\":1241:1246   */\n      dup3\n        /* \"#utility.yul\":1223:1247   */\n      tag_161\n      jump\t// in\n    tag_248:\n        /* \"#utility.yul\":1212:1247   */\n      swap1\n      pop\n        /* \"#utility.yul\":1157:1253   */\n      swap2\n      swap1\n      pop\n      jump\t// out\n        /* \"#utility.yul\":1259:1381   */\n    tag_163:\n        /* \"#utility.yul\":1332:1356   */\n      tag_250\n        /* \"#utility.yul\":1350:1355   */\n      dup2\n        /* \"#utility.yul\":1332:1356   */\n      tag_162\n      jump\t// in\n    tag_250:\n        /* \"#utility.yul\":1325:1330   */\n      dup2\n        /* \"#utility.yul\":1322:1357   */\n      eq\n        /* \"#utility.yul\":1312:1375   */\n      tag_251\n      jumpi\n        /* \"#utility.yul\":1371:1372   */\n      0x00\n        /* \"#utility.yul\":1368:1369   */\n      0x00\n        /* \"#utility.yul\":1361:1373   */\n      revert\n        /* \"#utility.yul\":1312:1375   */\n    tag_251:\n        /* \"#utility.yul\":1259:1381   */\n      pop\n      jump\t// out\n        /* \"#utility.yul\":1387:1526   */\n    tag_164:\n        /* \"#utility.yul\":1433:1438   */\n      0x00\n        /* \"#utility.yul\":1471:1477   */\n      dup2\n        /* \"#utility.yul\":1458:1478   */\n      calldataload\n        /* \"#utility.yul\":1449:1478   */\n      swap1\n      pop\n        /* \"#utility.yul\":1487:1520   */\n      tag_253\n        /* \"#utility.yul\":1514:1519   */\n      dup2\n        /* \"#utility.yul\":1487:1520   */\n      tag_163\n      jump\t// in\n    tag_253:\n        /* \"#utility.yul\":1387:1526   */\n      swap3\n      swap2\n      pop\n      pop\n      jump\t// out\n        /* \"#utility.yul\":1532:2006   */\n    tag_27:\n        /* \"#utility.yul\":1600:1606   */\n      0x00\n        /* \"#utility.yul\":1608:1614   */\n      0x00\n        /* \"#utility.yul\":1657:1659   */\n      0x40\n        /* \"#utility.yul\":1645:1654   */\n      dup4\n        /* \"#utility.yul\":1636:1643   */\n      dup6\n        /* \"#utility.yul\":1632:1655   */\n      sub\n        /* \"#utility.yul\":1628:1660   */\n      slt\n        /* \"#utility.yul\":1625:1744   */\n      iszero\n      tag_255\n      jumpi\n        /* \"#utility.yul\":1663:1742   */\n      tag_256\n      tag_156\n      jump\t// in\n    tag_256:\n        /* \"#utility.yul\":1625:1744   */\n    tag_255:\n        /* \"#utility.yul\":1783:1784   */\n      0x00\n        /* \"#utility.yul\":1808:1861   */\n      tag_257\n        /* \"#utility.yul\":1853:1860   */\n      dup6\n        /* \"#utility.yul\":1844:1850   */\n      dup3\n        /* \"#utility.yul\":1833:1842   */\n      dup7\n        /* \"#utility.yul\":1829:1851   */\n      add\n        /* \"#utility.yul\":1808:1861   */\n      tag_160\n      jump\t// in\n    tag_257:\n        /* \"#utility.yul\":1798:1861   */\n      swap3\n      pop\n        /* \"#utility.yul\":1754:1871   */\n      pop\n        /* \"#utility.yul\":1910:1912   */\n      0x20\n        /* \"#utility.yul\":1936:1989   */\n      tag_258\n        /* \"#utility.yul\":1981:1988   */\n      dup6\n        /* \"#utility.yul\":1972:1978   */\n      dup3\n        /* \"#utility.yul\":1961:1970   */\n      dup7\n        /* \"#utility.yul\":1957:1979   */\n      add\n        /* \"#utility.yul\":1936:1989   */\n      tag_164\n      jump\t// in\n    tag_258:\n        /* \"#utility.yul\":1926:1989   */\n      swap2\n      pop\n        /* \"#utility.yul\":1881:1999   */\n      pop\n        /* \"#utility.yul\":1532:2006   */\n      swap3\n      pop\n      swap3\n      swap1\n      pop\n      jump\t// out\n        /* \"#utility.yul\":2012:2102   */\n    tag_165:\n        /* \"#utility.yul\":2046:2053   */\n      0x00\n        /* \"#utility.yul\":2089:2094   */\n      dup2\n        /* \"#utility.yul\":2082:2095   */\n      iszero\n        /* \"#utility.yul\":2075:2096   */\n      iszero\n        /* \"#utility.yul\":2064:2096   */\n      swap1\n      pop\n        /* \"#utility.yul\":2012:2102   */\n      swap2\n      swap1\n      pop\n      jump\t// out\n        /* \"#utility.yul\":2108:2217   */\n    tag_166:\n        /* \"#utility.yul\":2189:2210   */\n      tag_261\n        /* \"#utility.yul\":2204:2209   */\n      dup2\n        /* \"#utility.yul\":2189:2210   */\n      tag_165\n      jump\t// in\n    tag_261:\n        /* \"#utility.yul\":2184:2187   */\n      dup3\n        /* \"#utility.yul\":2177:2211   */\n      mstore\n        /* \"#utility.yul\":2108:2217   */\n      pop\n      pop\n      jump\t// out\n        /* \"#utility.yul\":2223:2433   */\n    tag_30:\n        /* \"#utility.yul\":2310:2314   */\n      0x00\n        /* \"#utility.yul\":2348:2350   */\n      0x20\n        /* \"#utility.yul\":2337:2346   */\n      dup3\n        /* \"#utility.yul\":2333:2351   */\n      add\n        /* \"#utility.yul\":2325:2351   */\n      swap1\n      pop\n        /* \"#utility.yul\":2361:2426   */\n      tag_263\n        /* \"#utility.yul\":2423:2424   */\n      0x00\n        /* \"#utility.yul\":2412:2421   */\n      dup4\n        /* \"#utility.yul\":2408:2425   */\n      add\n        /* \"#utility.yul\":2399:2405   */\n      dup5\n        /* \"#utility.yul\":2361:2426   */\n      tag_166\n      jump\t// in\n    tag_263:\n        /* \"#utility.yul\":2223:2433   */\n      swap3\n      swap2\n      pop\n      pop\n      jump\t// out\n        /* \"#utility.yul\":2439:2538   */\n    tag_167:\n        /* \"#utility.yul\":2491:2497   */\n      0x00\n        /* \"#utility.yul\":2525:2530   */\n      dup2\n        /* \"#utility.yul\":2519:2531   */\n      mload\n        /* \"#utility.yul\":2509:2531   */\n      swap1\n      pop\n        /* \"#utility.yul\":2439:2538   */\n      swap2\n      swap1\n      pop\n      jump\t// out\n        /* \"#utility.yul\":2544:2713   */\n    tag_168:\n        /* \"#utility.yul\":2628:2639   */\n      0x00\n        /* \"#utility.yul\":2662:2668   */\n      dup3\n        /* \"#utility.yul\":2657:2660   */\n      dup3\n        /* \"#utility.yul\":2650:2669   */\n      mstore\n        /* \"#utility.yul\":2702:2706   */\n      0x20\n        /* \"#utility.yul\":2697:2700   */\n      dup3\n        /* \"#utility.yul\":2693:2707   */\n      add\n        /* \"#utility.yul\":2678:2707   */\n      swap1\n      pop\n        /* \"#utility.yul\":2544:2713   */\n      swap3\n      swap2\n      pop\n      pop\n      jump\t// out\n        /* \"#utility.yul\":2719:2858   */\n    tag_169:\n        /* \"#utility.yul\":2808:2814   */\n      dup3\n        /* \"#utility.yul\":2803:2806   */\n      dup2\n        /* \"#utility.yul\":2798:2801   */\n      dup4\n        /* \"#utility.yul\":2792:2815   */\n      mcopy\n        /* \"#utility.yul\":2849:2850   */\n      0x00\n        /* \"#utility.yul\":2840:2846   */\n      dup4\n        /* \"#utility.yul\":2835:2838   */\n      dup4\n        /* \"#utility.yul\":2831:2847   */\n      add\n        /* \"#utility.yul\":2824:2851   */\n      mstore\n        /* \"#utility.yul\":2719:2858   */\n      pop\n      pop\n      pop\n      jump\t// out\n        /* \"#utility.yul\":2864:2966   */\n    tag_170:\n        /* \"#utility.yul\":2905:2911   */\n      0x00\n        /* \"#utility.yul\":2956:2958   */\n      0x1f\n        /* \"#utility.yul\":2952:2959   */\n      not\n        /* \"#utility.yul\":2947:2949   */\n      0x1f\n        /* \"#utility.yul\":2940:2945   */\n      dup4\n        /* \"#utility.yul\":2936:2950   */\n      add\n        /* \"#utility.yul\":2932:2960   */\n      and\n        /* \"#utility.yul\":2922:2960   */\n      swap1\n      pop\n        /* \"#utility.yul\":2864:2966   */\n      swap2\n      swap1\n      pop\n      jump\t// out\n        /* \"#utility.yul\":2972:3349   */\n    tag_171:\n        /* \"#utility.yul\":3060:3063   */\n      0x00\n        /* \"#utility.yul\":3088:3127   */\n      tag_269\n        /* \"#utility.yul\":3121:3126   */\n      dup3\n        /* \"#utility.yul\":3088:3127   */\n      tag_167\n      jump\t// in\n    tag_269:\n        /* \"#utility.yul\":3143:3214   */\n      tag_270\n        /* \"#utility.yul\":3207:3213   */\n      dup2\n        /* \"#utility.yul\":3202:3205   */\n      dup6\n        /* \"#utility.yul\":3143:3214   */\n      tag_168\n      jump\t// in\n    tag_270:\n        /* \"#utility.yul\":3136:3214   */\n      swap4\n      pop\n        /* \"#utility.yul\":3223:3288   */\n      tag_271\n        /* \"#utility.yul\":3281:3287   */\n      dup2\n        /* \"#utility.yul\":3276:3279   */\n      dup6\n        /* \"#utility.yul\":3269:3273   */\n      0x20\n        /* \"#utility.yul\":3262:3267   */\n      dup7\n        /* \"#utility.yul\":3258:3274   */\n      add\n        /* \"#utility.yul\":3223:3288   */\n      tag_169\n      jump\t// in\n    tag_271:\n        /* \"#utility.yul\":3313:3342   */\n      tag_272\n        /* \"#utility.yul\":3335:3341   */\n      dup2\n        /* \"#utility.yul\":3313:3342   */\n      tag_170\n      jump\t// in\n    tag_272:\n        /* \"#utility.yul\":3308:3311   */\n      dup5\n        /* \"#utility.yul\":3304:3343   */\n      add\n        /* \"#utility.yul\":3297:3343   */\n      swap2\n      pop\n        /* \"#utility.yul\":3064:3349   */\n      pop\n        /* \"#utility.yul\":2972:3349   */\n      swap3\n      swap2\n      pop\n      pop\n      jump\t// out\n        /* \"#utility.yul\":3355:3473   */\n    tag_172:\n        /* \"#utility.yul\":3442:3466   */\n      tag_274\n        /* \"#utility.yul\":3460:3465   */\n      dup2\n        /* \"#utility.yul\":3442:3466   */\n      tag_158\n      jump\t// in\n    tag_274:\n        /* \"#utility.yul\":3437:3440   */\n      dup3\n        /* \"#utility.yul\":3430:3467   */\n      mstore\n        /* \"#utility.yul\":3355:3473   */\n      pop\n      pop\n      jump\t// out\n        /* \"#utility.yul\":3479:4424   */\n    tag_39:\n        /* \"#utility.yul\":3746:3750   */\n      0x00\n        /* \"#utility.yul\":3784:3787   */\n      0xc0\n        /* \"#utility.yul\":3773:3782   */\n      dup3\n        /* \"#utility.yul\":3769:3788   */\n      add\n        /* \"#utility.yul\":3761:3788   */\n      swap1\n      pop\n        /* \"#utility.yul\":3834:3843   */\n      dup2\n        /* \"#utility.yul\":3828:3832   */\n      dup2\n        /* \"#utility.yul\":3824:3844   */\n      sub\n        /* \"#utility.yul\":3820:3821   */\n      0x00\n        /* \"#utility.yul\":3809:3818   */\n      dup4\n        /* \"#utility.yul\":3805:3822   */\n      add\n        /* \"#utility.yul\":3798:3845   */\n      mstore\n        /* \"#utility.yul\":3862:3940   */\n      tag_276\n        /* \"#utility.yul\":3935:3939   */\n      dup2\n        /* \"#utility.yul\":3926:3932   */\n      dup10\n        /* \"#utility.yul\":3862:3940   */\n      tag_171\n      jump\t// in\n    tag_276:\n        /* \"#utility.yul\":3854:3940   */\n      swap1\n      pop\n        /* \"#utility.yul\":3987:3996   */\n      dup2\n        /* \"#utility.yul\":3981:3985   */\n      dup2\n        /* \"#utility.yul\":3977:3997   */\n      sub\n        /* \"#utility.yul\":3972:3974   */\n      0x20\n        /* \"#utility.yul\":3961:3970   */\n      dup4\n        /* \"#utility.yul\":3957:3975   */\n      add\n        /* \"#utility.yul\":3950:3998   */\n      mstore\n        /* \"#utility.yul\":4015:4093   */\n      tag_277\n        /* \"#utility.yul\":4088:4092   */\n      dup2\n        /* \"#utility.yul\":4079:4085   */\n      dup9\n        /* \"#utility.yul\":4015:4093   */\n      tag_171\n      jump\t// in\n    tag_277:\n        /* \"#utility.yul\":4007:4093   */\n      swap1\n      pop\n        /* \"#utility.yul\":4103:4175   */\n      tag_278\n        /* \"#utility.yul\":4171:4173   */\n      0x40\n        /* \"#utility.yul\":4160:4169   */\n      dup4\n        /* \"#utility.yul\":4156:4174   */\n      add\n        /* \"#utility.yul\":4147:4153   */\n      dup8\n        /* \"#utility.yul\":4103:4175   */\n      tag_172\n      jump\t// in\n    tag_278:\n        /* \"#utility.yul\":4185:4257   */\n      tag_279\n        /* \"#utility.yul\":4253:4255   */\n      0x60\n        /* \"#utility.yul\":4242:4251   */\n      dup4\n        /* \"#utility.yul\":4238:4256   */\n      add\n        /* \"#utility.yul\":4229:4235   */\n      dup7\n        /* \"#utility.yul\":4185:4257   */\n      tag_172\n      jump\t// in\n    tag_279:\n        /* \"#utility.yul\":4267:4334   */\n      tag_280\n        /* \"#utility.yul\":4329:4332   */\n      0x80\n        /* \"#utility.yul\":4318:4327   */\n      dup4\n        /* \"#utility.yul\":4314:4333   */\n      add\n        /* \"#utility.yul\":4305:4311   */\n      dup6\n        /* \"#utility.yul\":4267:4334   */\n      tag_166\n      jump\t// in\n    tag_280:\n        /* \"#utility.yul\":4344:4417   */\n      tag_281\n        /* \"#utility.yul\":4412:4415   */\n      0xa0\n        /* \"#utility.yul\":4401:4410   */\n      dup4\n        /* \"#utility.yul\":4397:4416   */\n      add\n        /* \"#utility.yul\":4388:4394   */\n      dup5\n        /* \"#utility.yul\":4344:4417   */\n      tag_172\n      jump\t// in\n    tag_281:\n        /* \"#utility.yul\":3479:4424   */\n      swap8\n      swap7\n      pop\n      pop\n      pop\n      pop\n      pop\n      pop\n      pop\n      jump\t// out\n        /* \"#utility.yul\":4430:4589   */\n    tag_173:\n        /* \"#utility.yul\":4504:4515   */\n      0x00\n        /* \"#utility.yul\":4538:4544   */\n      dup3\n        /* \"#utility.yul\":4533:4536   */\n      dup3\n        /* \"#utility.yul\":4526:4545   */\n      mstore\n        /* \"#utility.yul\":4578:4582   */\n      0x20\n        /* \"#utility.yul\":4573:4576   */\n      dup3\n        /* \"#utility.yul\":4569:4583   */\n      add\n        /* \"#utility.yul\":4554:4583   */\n      swap1\n      pop\n        /* \"#utility.yul\":4430:4589   */\n      swap3\n      swap2\n      pop\n      pop\n      jump\t// out\n        /* \"#utility.yul\":4595:4952   */\n    tag_174:\n        /* \"#utility.yul\":4673:4676   */\n      0x00\n        /* \"#utility.yul\":4701:4740   */\n      tag_284\n        /* \"#utility.yul\":4734:4739   */\n      dup3\n        /* \"#utility.yul\":4701:4740   */\n      tag_167\n      jump\t// in\n    tag_284:\n        /* \"#utility.yul\":4756:4817   */\n      tag_285\n        /* \"#utility.yul\":4810:4816   */\n      dup2\n        /* \"#utility.yul\":4805:4808   */\n      dup6\n        /* \"#utility.yul\":4756:4817   */\n      tag_173\n      jump\t// in\n    tag_285:\n        /* \"#utility.yul\":4749:4817   */\n      swap4\n      pop\n        /* \"#utility.yul\":4826:4891   */\n      tag_286\n        /* \"#utility.yul\":4884:4890   */\n      dup2\n        /* \"#utility.yul\":4879:4882   */\n      dup6\n        /* \"#utility.yul\":4872:4876   */\n      0x20\n        /* \"#utility.yul\":4865:4870   */\n      dup7\n        /* \"#utility.yul\":4861:4877   */\n      add\n        /* \"#utility.yul\":4826:4891   */\n      tag_169\n      jump\t// in\n    tag_286:\n        /* \"#utility.yul\":4916:4945   */\n      tag_287\n        /* \"#utility.yul\":4938:4944   */\n      dup2\n        /* \"#utility.yul\":4916:4945   */\n      tag_170\n      jump\t// in\n    tag_287:\n        /* \"#utility.yul\":4911:4914   */\n      dup5\n        /* \"#utility.yul\":4907:4946   */\n      add\n        /* \"#utility.yul\":4900:4946   */\n      swap2\n      pop\n        /* \"#utility.yul\":4677:4952   */\n      pop\n        /* \"#utility.yul\":4595:4952   */\n      swap3\n      swap2\n      pop\n      pop\n      jump\t// out\n        /* \"#utility.yul\":4958:5066   */\n    tag_175:\n        /* \"#utility.yul\":5035:5059   */\n      tag_289\n        /* \"#utility.yul\":5053:5058   */\n      dup2\n        /* \"#utility.yul\":5035:5059   */\n      tag_158\n      jump\t// in\n    tag_289:\n        /* \"#utility.yul\":5030:5033   */\n      dup3\n        /* \"#utility.yul\":5023:5060   */\n      mstore\n        /* \"#utility.yul\":4958:5066   */\n      pop\n      pop\n      jump\t// out\n        /* \"#utility.yul\":5072:5171   */\n    tag_176:\n        /* \"#utility.yul\":5143:5164   */\n      tag_291\n        /* \"#utility.yul\":5158:5163   */\n      dup2\n        /* \"#utility.yul\":5143:5164   */\n      tag_165\n      jump\t// in\n    tag_291:\n        /* \"#utility.yul\":5138:5141   */\n      dup3\n        /* \"#utility.yul\":5131:5165   */\n      mstore\n        /* \"#utility.yul\":5072:5171   */\n      pop\n      pop\n      jump\t// out\n        /* \"#utility.yul\":5239:6615   */\n    tag_177:\n        /* \"#utility.yul\":5352:5355   */\n      0x00\n        /* \"#utility.yul\":5388:5392   */\n      0xc0\n        /* \"#utility.yul\":5383:5386   */\n      dup4\n        /* \"#utility.yul\":5379:5393   */\n      add\n        /* \"#utility.yul\":5476:5480   */\n      0x00\n        /* \"#utility.yul\":5469:5474   */\n      dup4\n        /* \"#utility.yul\":5465:5481   */\n      add\n        /* \"#utility.yul\":5459:5482   */\n      mload\n        /* \"#utility.yul\":5529:5532   */\n      dup5\n        /* \"#utility.yul\":5523:5527   */\n      dup3\n        /* \"#utility.yul\":5519:5533   */\n      sub\n        /* \"#utility.yul\":5512:5516   */\n      0x00\n        /* \"#utility.yul\":5507:5510   */\n      dup7\n        /* \"#utility.yul\":5503:5517   */\n      add\n        /* \"#utility.yul\":5496:5534   */\n      mstore\n        /* \"#utility.yul\":5555:5628   */\n      tag_293\n        /* \"#utility.yul\":5623:5627   */\n      dup3\n        /* \"#utility.yul\":5609:5621   */\n      dup3\n        /* \"#utility.yul\":5555:5628   */\n      tag_174\n      jump\t// in\n    tag_293:\n        /* \"#utility.yul\":5547:5628   */\n      swap2\n      pop\n        /* \"#utility.yul\":5403:5639   */\n      pop\n        /* \"#utility.yul\":5722:5726   */\n      0x20\n        /* \"#utility.yul\":5715:5720   */\n      dup4\n        /* \"#utility.yul\":5711:5727   */\n      add\n        /* \"#utility.yul\":5705:5728   */\n      mload\n        /* \"#utility.yul\":5775:5778   */\n      dup5\n        /* \"#utility.yul\":5769:5773   */\n      dup3\n        /* \"#utility.yul\":5765:5779   */\n      sub\n        /* \"#utility.yul\":5758:5762   */\n      0x20\n        /* \"#utility.yul\":5753:5756   */\n      dup7\n        /* \"#utility.yul\":5749:5763   */\n      add\n        /* \"#utility.yul\":5742:5780   */\n      mstore\n        /* \"#utility.yul\":5801:5874   */\n      tag_294\n        /* \"#utility.yul\":5869:5873   */\n      dup3\n        /* \"#utility.yul\":5855:5867   */\n      dup3\n        /* \"#utility.yul\":5801:5874   */\n      tag_174\n      jump\t// in\n    tag_294:\n        /* \"#utility.yul\":5793:5874   */\n      swap2\n      pop\n        /* \"#utility.yul\":5649:5885   */\n      pop\n        /* \"#utility.yul\":5969:5973   */\n      0x40\n        /* \"#utility.yul\":5962:5967   */\n      dup4\n        /* \"#utility.yul\":5958:5974   */\n      add\n        /* \"#utility.yul\":5952:5975   */\n      mload\n        /* \"#utility.yul\":5988:6051   */\n      tag_295\n        /* \"#utility.yul\":6045:6049   */\n      0x40\n        /* \"#utility.yul\":6040:6043   */\n      dup7\n        /* \"#utility.yul\":6036:6050   */\n      add\n        /* \"#utility.yul\":6022:6034   */\n      dup3\n        /* \"#utility.yul\":5988:6051   */\n      tag_175\n      jump\t// in\n    tag_295:\n        /* \"#utility.yul\":5895:6061   */\n      pop\n        /* \"#utility.yul\":6145:6149   */\n      0x60\n        /* \"#utility.yul\":6138:6143   */\n      dup4\n        /* \"#utility.yul\":6134:6150   */\n      add\n        /* \"#utility.yul\":6128:6151   */\n      mload\n        /* \"#utility.yul\":6164:6227   */\n      tag_296\n        /* \"#utility.yul\":6221:6225   */\n      0x60\n        /* \"#utility.yul\":6216:6219   */\n      dup7\n        /* \"#utility.yul\":6212:6226   */\n      add\n        /* \"#utility.yul\":6198:6210   */\n      dup3\n        /* \"#utility.yul\":6164:6227   */\n      tag_175\n      jump\t// in\n    tag_296:\n        /* \"#utility.yul\":6071:6237   */\n      pop\n        /* \"#utility.yul\":6323:6327   */\n      0x80\n        /* \"#utility.yul\":6316:6321   */\n      dup4\n        /* \"#utility.yul\":6312:6328   */\n      add\n        /* \"#utility.yul\":6306:6329   */\n      mload\n        /* \"#utility.yul\":6342:6399   */\n      tag_297\n        /* \"#utility.yul\":6393:6397   */\n      0x80\n        /* \"#utility.yul\":6388:6391   */\n      dup7\n        /* \"#utility.yul\":6384:6398   */\n      add\n        /* \"#utility.yul\":6370:6382   */\n      dup3\n        /* \"#utility.yul\":6342:6399   */\n      tag_176\n      jump\t// in\n    tag_297:\n        /* \"#utility.yul\":6247:6409   */\n      pop\n        /* \"#utility.yul\":6496:6500   */\n      0xa0\n        /* \"#utility.yul\":6489:6494   */\n      dup4\n        /* \"#utility.yul\":6485:6501   */\n      add\n        /* \"#utility.yul\":6479:6502   */\n      mload\n        /* \"#utility.yul\":6515:6578   */\n      tag_298\n        /* \"#utility.yul\":6572:6576   */\n      0xa0\n        /* \"#utility.yul\":6567:6570   */\n      dup7\n        /* \"#utility.yul\":6563:6577   */\n      add\n        /* \"#utility.yul\":6549:6561   */\n      dup3\n        /* \"#utility.yul\":6515:6578   */\n      tag_175\n      jump\t// in\n    tag_298:\n        /* \"#utility.yul\":6419:6588   */\n      pop\n        /* \"#utility.yul\":6605:6609   */\n      dup1\n        /* \"#utility.yul\":6598:6609   */\n      swap2\n      pop\n        /* \"#utility.yul\":5357:6615   */\n      pop\n        /* \"#utility.yul\":5239:6615   */\n      swap3\n      swap2\n      pop\n      pop\n      jump\t// out\n        /* \"#utility.yul\":6621:6982   */\n    tag_45:\n        /* \"#utility.yul\":6758:6762   */\n      0x00\n        /* \"#utility.yul\":6796:6798   */\n      0x20\n        /* \"#utility.yul\":6785:6794   */\n      dup3\n        /* \"#utility.yul\":6781:6799   */\n      add\n        /* \"#utility.yul\":6773:6799   */\n      swap1\n      pop\n        /* \"#utility.yul\":6845:6854   */\n      dup2\n        /* \"#utility.yul\":6839:6843   */\n      dup2\n        /* \"#utility.yul\":6835:6855   */\n      sub\n        /* \"#utility.yul\":6831:6832   */\n      0x00\n        /* \"#utility.yul\":6820:6829   */\n      dup4\n        /* \"#utility.yul\":6816:6833   */\n      add\n        /* \"#utility.yul\":6809:6856   */\n      mstore\n        /* \"#utility.yul\":6873:6975   */\n      tag_300\n        /* \"#utility.yul\":6970:6974   */\n      dup2\n        /* \"#utility.yul\":6961:6967   */\n      dup5\n        /* \"#utility.yul\":6873:6975   */\n      tag_177\n      jump\t// in\n    tag_300:\n        /* \"#utility.yul\":6865:6975   */\n      swap1\n      pop\n        /* \"#utility.yul\":6621:6982   */\n      swap3\n      swap2\n      pop\n      pop\n      jump\t// out\n        /* \"#utility.yul\":6988:7210   */\n    tag_50:\n        /* \"#utility.yul\":7081:7085   */\n      0x00\n        /* \"#utility.yul\":7119:7121   */\n      0x20\n        /* \"#utility.yul\":7108:7117   */\n      dup3\n        /* \"#utility.yul\":7104:7122   */\n      add\n        /* \"#utility.yul\":7096:7122   */\n      swap1\n      pop\n        /* \"#utility.yul\":7132:7203   */\n      tag_302\n        /* \"#utility.yul\":7200:7201   */\n      0x00\n        /* \"#utility.yul\":7189:7198   */\n      dup4\n        /* \"#utility.yul\":7185:7202   */\n      add\n        /* \"#utility.yul\":7176:7182   */\n      dup5\n        /* \"#utility.yul\":7132:7203   */\n      tag_172\n      jump\t// in\n    tag_302:\n        /* \"#utility.yul\":6988:7210   */\n      swap3\n      swap2\n      pop\n      pop\n      jump\t// out\n        /* \"#utility.yul\":7216:7333   */\n    tag_178:\n        /* \"#utility.yul\":7325:7326   */\n      0x00\n        /* \"#utility.yul\":7322:7323   */\n      0x00\n        /* \"#utility.yul\":7315:7327   */\n      revert\n        /* \"#utility.yul\":7339:7456   */\n    tag_179:\n        /* \"#utility.yul\":7448:7449   */\n      0x00\n        /* \"#utility.yul\":7445:7446   */\n      0x00\n        /* \"#utility.yul\":7438:7450   */\n      revert\n        /* \"#utility.yul\":7462:7642   */\n    tag_180:\n        /* \"#utility.yul\":7510:7587   */\n      0x4e487b7100000000000000000000000000000000000000000000000000000000\n        /* \"#utility.yul\":7507:7508   */\n      0x00\n        /* \"#utility.yul\":7500:7588   */\n      mstore\n        /* \"#utility.yul\":7607:7611   */\n      0x41\n        /* \"#utility.yul\":7604:7605   */\n      0x04\n        /* \"#utility.yul\":7597:7612   */\n      mstore\n        /* \"#utility.yul\":7631:7635   */\n      0x24\n        /* \"#utility.yul\":7628:7629   */\n      0x00\n        /* \"#utility.yul\":7621:7636   */\n      revert\n        /* \"#utility.yul\":7648:7929   */\n    tag_181:\n        /* \"#utility.yul\":7731:7758   */\n      tag_307\n        /* \"#utility.yul\":7753:7757   */\n      dup3\n        /* \"#utility.yul\":7731:7758   */\n      tag_170\n      jump\t// in\n    tag_307:\n        /* \"#utility.yul\":7723:7729   */\n      dup2\n        /* \"#utility.yul\":7719:7759   */\n      add\n        /* \"#utility.yul\":7861:7867   */\n      dup2\n        /* \"#utility.yul\":7849:7859   */\n      dup2\n        /* \"#utility.yul\":7846:7868   */\n      lt\n        /* \"#utility.yul\":7825:7843   */\n      0xffffffffffffffff\n        /* \"#utility.yul\":7813:7823   */\n      dup3\n        /* \"#utility.yul\":7810:7844   */\n      gt\n        /* \"#utility.yul\":7807:7869   */\n      or\n        /* \"#utility.yul\":7804:7892   */\n      iszero\n      tag_308\n      jumpi\n        /* \"#utility.yul\":7872:7890   */\n      tag_309\n      tag_180\n      jump\t// in\n    tag_309:\n        /* \"#utility.yul\":7804:7892   */\n    tag_308:\n        /* \"#utility.yul\":7912:7922   */\n      dup1\n        /* \"#utility.yul\":7908:7910   */\n      0x40\n        /* \"#utility.yul\":7901:7923   */\n      mstore\n        /* \"#utility.yul\":7691:7929   */\n      pop\n        /* \"#utility.yul\":7648:7929   */\n      pop\n      pop\n      jump\t// out\n        /* \"#utility.yul\":7935:8064   */\n    tag_182:\n        /* \"#utility.yul\":7969:7975   */\n      0x00\n        /* \"#utility.yul\":7996:8016   */\n      tag_311\n      tag_155\n      jump\t// in\n    tag_311:\n        /* \"#utility.yul\":7986:8016   */\n      swap1\n      pop\n        /* \"#utility.yul\":8025:8058   */\n      tag_312\n        /* \"#utility.yul\":8053:8057   */\n      dup3\n        /* \"#utility.yul\":8045:8051   */\n      dup3\n        /* \"#utility.yul\":8025:8058   */\n      tag_181\n      jump\t// in\n    tag_312:\n        /* \"#utility.yul\":7935:8064   */\n      swap2\n      swap1\n      pop\n      jump\t// out\n        /* \"#utility.yul\":8070:8378   */\n    tag_183:\n        /* \"#utility.yul\":8132:8136   */\n      0x00\n        /* \"#utility.yul\":8222:8240   */\n      0xffffffffffffffff\n        /* \"#utility.yul\":8214:8220   */\n      dup3\n        /* \"#utility.yul\":8211:8241   */\n      gt\n        /* \"#utility.yul\":8208:8264   */\n      iszero\n      tag_314\n      jumpi\n        /* \"#utility.yul\":8244:8262   */\n      tag_315\n      tag_180\n      jump\t// in\n    tag_315:\n        /* \"#utility.yul\":8208:8264   */\n    tag_314:\n        /* \"#utility.yul\":8282:8311   */\n      tag_316\n        /* \"#utility.yul\":8304:8310   */\n      dup3\n        /* \"#utility.yul\":8282:8311   */\n      tag_170\n      jump\t// in\n    tag_316:\n        /* \"#utility.yul\":8274:8311   */\n      swap1\n      pop\n        /* \"#utility.yul\":8366:8370   */\n      0x20\n        /* \"#utility.yul\":8360:8364   */\n      dup2\n        /* \"#utility.yul\":8356:8371   */\n      add\n        /* \"#utility.yul\":8348:8371   */\n      swap1\n      pop\n        /* \"#utility.yul\":8070:8378   */\n      swap2\n      swap1\n      pop\n      jump\t// out\n        /* \"#utility.yul\":8384:8532   */\n    tag_184:\n        /* \"#utility.yul\":8482:8488   */\n      dup3\n        /* \"#utility.yul\":8477:8480   */\n      dup2\n        /* \"#utility.yul\":8472:8475   */\n      dup4\n        /* \"#utility.yul\":8459:8489   */\n      calldatacopy\n        /* \"#utility.yul\":8523:8524   */\n      0x00\n        /* \"#utility.yul\":8514:8520   */\n      dup4\n        /* \"#utility.yul\":8509:8512   */\n      dup4\n        /* \"#utility.yul\":8505:8521   */\n      add\n        /* \"#utility.yul\":8498:8525   */\n      mstore\n        /* \"#utility.yul\":8384:8532   */\n      pop\n      pop\n      pop\n      jump\t// out\n        /* \"#utility.yul\":8538:8963   */\n    tag_185:\n        /* \"#utility.yul\":8616:8621   */\n      0x00\n        /* \"#utility.yul\":8641:8707   */\n      tag_319\n        /* \"#utility.yul\":8657:8706   */\n      tag_320\n        /* \"#utility.yul\":8699:8705   */\n      dup5\n        /* \"#utility.yul\":8657:8706   */\n      tag_183\n      jump\t// in\n    tag_320:\n        /* \"#utility.yul\":8641:8707   */\n      tag_182\n      jump\t// in\n    tag_319:\n        /* \"#utility.yul\":8632:8707   */\n      swap1\n      pop\n        /* \"#utility.yul\":8730:8736   */\n      dup3\n        /* \"#utility.yul\":8723:8728   */\n      dup2\n        /* \"#utility.yul\":8716:8737   */\n      mstore\n        /* \"#utility.yul\":8768:8772   */\n      0x20\n        /* \"#utility.yul\":8761:8766   */\n      dup2\n        /* \"#utility.yul\":8757:8773   */\n      add\n        /* \"#utility.yul\":8806:8809   */\n      dup5\n        /* \"#utility.yul\":8797:8803   */\n      dup5\n        /* \"#utility.yul\":8792:8795   */\n      dup5\n        /* \"#utility.yul\":8788:8804   */\n      add\n        /* \"#utility.yul\":8785:8810   */\n      gt\n        /* \"#utility.yul\":8782:8894   */\n      iszero\n      tag_321\n      jumpi\n        /* \"#utility.yul\":8813:8892   */\n      tag_322\n      tag_179\n      jump\t// in\n    tag_322:\n        /* \"#utility.yul\":8782:8894   */\n    tag_321:\n        /* \"#utility.yul\":8903:8957   */\n      tag_323\n        /* \"#utility.yul\":8950:8956   */\n      dup5\n        /* \"#utility.yul\":8945:8948   */\n      dup3\n        /* \"#utility.yul\":8940:8943   */\n      dup6\n        /* \"#utility.yul\":8903:8957   */\n      tag_184\n      jump\t// in\n    tag_323:\n        /* \"#utility.yul\":8622:8963   */\n      pop\n        /* \"#utility.yul\":8538:8963   */\n      swap4\n      swap3\n      pop\n      pop\n      pop\n      jump\t// out\n        /* \"#utility.yul\":8983:9323   */\n    tag_186:\n        /* \"#utility.yul\":9039:9044   */\n      0x00\n        /* \"#utility.yul\":9088:9091   */\n      dup3\n        /* \"#utility.yul\":9081:9085   */\n      0x1f\n        /* \"#utility.yul\":9073:9079   */\n      dup4\n        /* \"#utility.yul\":9069:9086   */\n      add\n        /* \"#utility.yul\":9065:9092   */\n      slt\n        /* \"#utility.yul\":9055:9177   */\n      tag_325\n      jumpi\n        /* \"#utility.yul\":9096:9175   */\n      tag_326\n      tag_178\n      jump\t// in\n    tag_326:\n        /* \"#utility.yul\":9055:9177   */\n    tag_325:\n        /* \"#utility.yul\":9213:9219   */\n      dup2\n        /* \"#utility.yul\":9200:9220   */\n      calldataload\n        /* \"#utility.yul\":9238:9317   */\n      tag_327\n        /* \"#utility.yul\":9313:9316   */\n      dup5\n        /* \"#utility.yul\":9305:9311   */\n      dup3\n        /* \"#utility.yul\":9298:9302   */\n      0x20\n        /* \"#utility.yul\":9290:9296   */\n      dup7\n        /* \"#utility.yul\":9286:9303   */\n      add\n        /* \"#utility.yul\":9238:9317   */\n      tag_185\n      jump\t// in\n    tag_327:\n        /* \"#utility.yul\":9229:9317   */\n      swap2\n      pop\n        /* \"#utility.yul\":9045:9323   */\n      pop\n        /* \"#utility.yul\":8983:9323   */\n      swap3\n      swap2\n      pop\n      pop\n      jump\t// out\n        /* \"#utility.yul\":9329:10163   */\n    tag_54:\n        /* \"#utility.yul\":9417:9423   */\n      0x00\n        /* \"#utility.yul\":9425:9431   */\n      0x00\n        /* \"#utility.yul\":9474:9476   */\n      0x40\n        /* \"#utility.yul\":9462:9471   */\n      dup4\n        /* \"#utility.yul\":9453:9460   */\n      dup6\n        /* \"#utility.yul\":9449:9472   */\n      sub\n        /* \"#utility.yul\":9445:9477   */\n      slt\n        /* \"#utility.yul\":9442:9561   */\n      iszero\n      tag_329\n      jumpi\n        /* \"#utility.yul\":9480:9559   */\n      tag_330\n      tag_156\n      jump\t// in\n    tag_330:\n        /* \"#utility.yul\":9442:9561   */\n    tag_329:\n        /* \"#utility.yul\":9628:9629   */\n      0x00\n        /* \"#utility.yul\":9617:9626   */\n      dup4\n        /* \"#utility.yul\":9613:9630   */\n      add\n        /* \"#utility.yul\":9600:9631   */\n      calldataload\n        /* \"#utility.yul\":9658:9676   */\n      0xffffffffffffffff\n        /* \"#utility.yul\":9650:9656   */\n      dup2\n        /* \"#utility.yul\":9647:9677   */\n      gt\n        /* \"#utility.yul\":9644:9761   */\n      iszero\n      tag_331\n      jumpi\n        /* \"#utility.yul\":9680:9759   */\n      tag_332\n      tag_157\n      jump\t// in\n    tag_332:\n        /* \"#utility.yul\":9644:9761   */\n    tag_331:\n        /* \"#utility.yul\":9785:9848   */\n      tag_333\n        /* \"#utility.yul\":9840:9847   */\n      dup6\n        /* \"#utility.yul\":9831:9837   */\n      dup3\n        /* \"#utility.yul\":9820:9829   */\n      dup7\n        /* \"#utility.yul\":9816:9838   */\n      add\n        /* \"#utility.yul\":9785:9848   */\n      tag_186\n      jump\t// in\n    tag_333:\n        /* \"#utility.yul\":9775:9848   */\n      swap3\n      pop\n        /* \"#utility.yul\":9571:9858   */\n      pop\n        /* \"#utility.yul\":9925:9927   */\n      0x20\n        /* \"#utility.yul\":9914:9923   */\n      dup4\n        /* \"#utility.yul\":9910:9928   */\n      add\n        /* \"#utility.yul\":9897:9929   */\n      calldataload\n        /* \"#utility.yul\":9956:9974   */\n      0xffffffffffffffff\n        /* \"#utility.yul\":9948:9954   */\n      dup2\n        /* \"#utility.yul\":9945:9975   */\n      gt\n        /* \"#utility.yul\":9942:10059   */\n      iszero\n      tag_334\n      jumpi\n        /* \"#utility.yul\":9978:10057   */\n      tag_335\n      tag_157\n      jump\t// in\n    tag_335:\n        /* \"#utility.yul\":9942:10059   */\n    tag_334:\n        /* \"#utility.yul\":10083:10146   */\n      tag_336\n        /* \"#utility.yul\":10138:10145   */\n      dup6\n        /* \"#utility.yul\":10129:10135   */\n      dup3\n        /* \"#utility.yul\":10118:10127   */\n      dup7\n        /* \"#utility.yul\":10114:10136   */\n      add\n        /* \"#utility.yul\":10083:10146   */\n      tag_186\n      jump\t// in\n    tag_336:\n        /* \"#utility.yul\":10073:10146   */\n      swap2\n      pop\n        /* \"#utility.yul\":9868:10156   */\n      pop\n        /* \"#utility.yul\":9329:10163   */\n      swap3\n      pop\n      swap3\n      swap1\n      pop\n      jump\t// out\n        /* \"#utility.yul\":10169:10287   */\n    tag_187:\n        /* \"#utility.yul\":10256:10280   */\n      tag_338\n        /* \"#utility.yul\":10274:10279   */\n      dup2\n        /* \"#utility.yul\":10256:10280   */\n      tag_162\n      jump\t// in\n    tag_338:\n        /* \"#utility.yul\":10251:10254   */\n      dup3\n        /* \"#utility.yul\":10244:10281   */\n      mstore\n        /* \"#utility.yul\":10169:10287   */\n      pop\n      pop\n      jump\t// out\n        /* \"#utility.yul\":10293:10515   */\n    tag_61:\n        /* \"#utility.yul\":10386:10390   */\n      0x00\n        /* \"#utility.yul\":10424:10426   */\n      0x20\n        /* \"#utility.yul\":10413:10422   */\n      dup3\n        /* \"#utility.yul\":10409:10427   */\n      add\n        /* \"#utility.yul\":10401:10427   */\n      swap1\n      pop\n        /* \"#utility.yul\":10437:10508   */\n      tag_340\n        /* \"#utility.yul\":10505:10506   */\n      0x00\n        /* \"#utility.yul\":10494:10503   */\n      dup4\n        /* \"#utility.yul\":10490:10507   */\n      add\n        /* \"#utility.yul\":10481:10487   */\n      dup5\n        /* \"#utility.yul\":10437:10508   */\n      tag_187\n      jump\t// in\n    tag_340:\n        /* \"#utility.yul\":10293:10515   */\n      swap3\n      swap2\n      pop\n      pop\n      jump\t// out\n        /* \"#utility.yul\":10521:10607   */\n    tag_188:\n        /* \"#utility.yul\":10556:10563   */\n      0x00\n        /* \"#utility.yul\":10596:10600   */\n      0xff\n        /* \"#utility.yul\":10589:10594   */\n      dup3\n        /* \"#utility.yul\":10585:10601   */\n      and\n        /* \"#utility.yul\":10574:10601   */\n      swap1\n      pop\n        /* \"#utility.yul\":10521:10607   */\n      swap2\n      swap1\n      pop\n      jump\t// out\n        /* \"#utility.yul\":10613:10731   */\n    tag_189:\n        /* \"#utility.yul\":10684:10706   */\n      tag_343\n        /* \"#utility.yul\":10700:10705   */\n      dup2\n        /* \"#utility.yul\":10684:10706   */\n      tag_188\n      jump\t// in\n    tag_343:\n        /* \"#utility.yul\":10677:10682   */\n      dup2\n        /* \"#utility.yul\":10674:10707   */\n      eq\n        /* \"#utility.yul\":10664:10725   */\n      tag_344\n      jumpi\n        /* \"#utility.yul\":10721:10722   */\n      0x00\n        /* \"#utility.yul\":10718:10719   */\n      0x00\n        /* \"#utility.yul\":10711:10723   */\n      revert\n        /* \"#utility.yul\":10664:10725   */\n    tag_344:\n        /* \"#utility.yul\":10613:10731   */\n      pop\n      jump\t// out\n        /* \"#utility.yul\":10737:10872   */\n    tag_190:\n        /* \"#utility.yul\":10781:10786   */\n      0x00\n        /* \"#utility.yul\":10819:10825   */\n      dup2\n        /* \"#utility.yul\":10806:10826   */\n      calldataload\n        /* \"#utility.yul\":10797:10826   */\n      swap1\n      pop\n        /* \"#utility.yul\":10835:10866   */\n      tag_346\n        /* \"#utility.yul\":10860:10865   */\n      dup2\n        /* \"#utility.yul\":10835:10866   */\n      tag_189\n      jump\t// in\n    tag_346:\n        /* \"#utility.yul\":10737:10872   */\n      swap3\n      swap2\n      pop\n      pop\n      jump\t// out\n        /* \"#utility.yul\":10878:11348   */\n    tag_64:\n        /* \"#utility.yul\":10944:10950   */\n      0x00\n        /* \"#utility.yul\":10952:10958   */\n      0x00\n        /* \"#utility.yul\":11001:11003   */\n      0x40\n        /* \"#utility.yul\":10989:10998   */\n      dup4\n        /* \"#utility.yul\":10980:10987   */\n      dup6\n        /* \"#utility.yul\":10976:10999   */\n      sub\n        /* \"#utility.yul\":10972:11004   */\n      slt\n        /* \"#utility.yul\":10969:11088   */\n      iszero\n      tag_348\n      jumpi\n        /* \"#utility.yul\":11007:11086   */\n      tag_349\n      tag_156\n      jump\t// in\n    tag_349:\n        /* \"#utility.yul\":10969:11088   */\n    tag_348:\n        /* \"#utility.yul\":11127:11128   */\n      0x00\n        /* \"#utility.yul\":11152:11205   */\n      tag_350\n        /* \"#utility.yul\":11197:11204   */\n      dup6\n        /* \"#utility.yul\":11188:11194   */\n      dup3\n        /* \"#utility.yul\":11177:11186   */\n      dup7\n        /* \"#utility.yul\":11173:11195   */\n      add\n        /* \"#utility.yul\":11152:11205   */\n      tag_160\n      jump\t// in\n    tag_350:\n        /* \"#utility.yul\":11142:11205   */\n      swap3\n      pop\n        /* \"#utility.yul\":11098:11215   */\n      pop\n        /* \"#utility.yul\":11254:11256   */\n      0x20\n        /* \"#utility.yul\":11280:11331   */\n      tag_351\n        /* \"#utility.yul\":11323:11330   */\n      dup6\n        /* \"#utility.yul\":11314:11320   */\n      dup3\n        /* \"#utility.yul\":11303:11312   */\n      dup7\n        /* \"#utility.yul\":11299:11321   */\n      add\n        /* \"#utility.yul\":11280:11331   */\n      tag_190\n      jump\t// in\n    tag_351:\n        /* \"#utility.yul\":11270:11331   */\n      swap2\n      pop\n        /* \"#utility.yul\":11225:11341   */\n      pop\n        /* \"#utility.yul\":10878:11348   */\n      swap3\n      pop\n      swap3\n      swap1\n      pop\n      jump\t// out\n        /* \"#utility.yul\":11354:11534   */\n    tag_191:\n        /* \"#utility.yul\":11402:11479   */\n      0x4e487b7100000000000000000000000000000000000000000000000000000000\n        /* \"#utility.yul\":11399:11400   */\n      0x00\n        /* \"#utility.yul\":11392:11480   */\n      mstore\n        /* \"#utility.yul\":11499:11503   */\n      0x11\n        /* \"#utility.yul\":11496:11497   */\n      0x04\n        /* \"#utility.yul\":11489:11504   */\n      mstore\n        /* \"#utility.yul\":11523:11527   */\n      0x24\n        /* \"#utility.yul\":11520:11521   */\n      0x00\n        /* \"#utility.yul\":11513:11528   */\n      revert\n        /* \"#utility.yul\":11540:11731   */\n    tag_76:\n        /* \"#utility.yul\":11580:11583   */\n      0x00\n        /* \"#utility.yul\":11599:11619   */\n      tag_354\n        /* \"#utility.yul\":11617:11618   */\n      dup3\n        /* \"#utility.yul\":11599:11619   */\n      tag_158\n      jump\t// in\n    tag_354:\n        /* \"#utility.yul\":11594:11619   */\n      swap2\n      pop\n        /* \"#utility.yul\":11633:11653   */\n      tag_355\n        /* \"#utility.yul\":11651:11652   */\n      dup4\n        /* \"#utility.yul\":11633:11653   */\n      tag_158\n      jump\t// in\n    tag_355:\n        /* \"#utility.yul\":11628:11653   */\n      swap3\n      pop\n        /* \"#utility.yul\":11676:11677   */\n      dup3\n        /* \"#utility.yul\":11673:11674   */\n      dup3\n        /* \"#utility.yul\":11669:11678   */\n      add\n        /* \"#utility.yul\":11662:11678   */\n      swap1\n      pop\n        /* \"#utility.yul\":11697:11700   */\n      dup1\n        /* \"#utility.yul\":11694:11695   */\n      dup3\n        /* \"#utility.yul\":11691:11701   */\n      gt\n        /* \"#utility.yul\":11688:11724   */\n      iszero\n      tag_356\n      jumpi\n        /* \"#utility.yul\":11704:11722   */\n      tag_357\n      tag_191\n      jump\t// in\n    tag_357:\n        /* \"#utility.yul\":11688:11724   */\n    tag_356:\n        /* \"#utility.yul\":11540:11731   */\n      swap3\n      swap2\n      pop\n      pop\n      jump\t// out\n        /* \"#utility.yul\":11737:11906   */\n    tag_192:\n        /* \"#utility.yul\":11877:11898   */\n      0x566f74696e67207374696c6c2061637469766500000000000000000000000000\n        /* \"#utility.yul\":11873:11874   */\n      0x00\n        /* \"#utility.yul\":11865:11871   */\n      dup3\n        /* \"#utility.yul\":11861:11875   */\n      add\n        /* \"#utility.yul\":11854:11899   */\n      mstore\n        /* \"#utility.yul\":11737:11906   */\n      pop\n      jump\t// out\n        /* \"#utility.yul\":11912:12278   */\n    tag_193:\n        /* \"#utility.yul\":12054:12057   */\n      0x00\n        /* \"#utility.yul\":12075:12142   */\n      tag_360\n        /* \"#utility.yul\":12139:12141   */\n      0x13\n        /* \"#utility.yul\":12134:12137   */\n      dup4\n        /* \"#utility.yul\":12075:12142   */\n      tag_168\n      jump\t// in\n    tag_360:\n        /* \"#utility.yul\":12068:12142   */\n      swap2\n      pop\n        /* \"#utility.yul\":12151:12244   */\n      tag_361\n        /* \"#utility.yul\":12240:12243   */\n      dup3\n        /* \"#utility.yul\":12151:12244   */\n      tag_192\n      jump\t// in\n    tag_361:\n        /* \"#utility.yul\":12269:12271   */\n      0x20\n        /* \"#utility.yul\":12264:12267   */\n      dup3\n        /* \"#utility.yul\":12260:12272   */\n      add\n        /* \"#utility.yul\":12253:12272   */\n      swap1\n      pop\n        /* \"#utility.yul\":11912:12278   */\n      swap2\n      swap1\n      pop\n      jump\t// out\n        /* \"#utility.yul\":12284:12703   */\n    tag_79:\n        /* \"#utility.yul\":12450:12454   */\n      0x00\n        /* \"#utility.yul\":12488:12490   */\n      0x20\n        /* \"#utility.yul\":12477:12486   */\n      dup3\n        /* \"#utility.yul\":12473:12491   */\n      add\n        /* \"#utility.yul\":12465:12491   */\n      swap1\n      pop\n        /* \"#utility.yul\":12537:12546   */\n      dup2\n        /* \"#utility.yul\":12531:12535   */\n      dup2\n        /* \"#utility.yul\":12527:12547   */\n      sub\n        /* \"#utility.yul\":12523:12524   */\n      0x00\n        /* \"#utility.yul\":12512:12521   */\n      dup4\n        /* \"#utility.yul\":12508:12525   */\n      add\n        /* \"#utility.yul\":12501:12548   */\n      mstore\n        /* \"#utility.yul\":12565:12696   */\n      tag_363\n        /* \"#utility.yul\":12691:12695   */\n      dup2\n        /* \"#utility.yul\":12565:12696   */\n      tag_193\n      jump\t// in\n    tag_363:\n        /* \"#utility.yul\":12557:12696   */\n      swap1\n      pop\n        /* \"#utility.yul\":12284:12703   */\n      swap2\n      swap1\n      pop\n      jump\t// out\n        /* \"#utility.yul\":12709:12868   */\n    tag_194:\n        /* \"#utility.yul\":12849:12860   */\n      0x4e6f74206f776e65720000000000000000000000000000000000000000000000\n        /* \"#utility.yul\":12845:12846   */\n      0x00\n        /* \"#utility.yul\":12837:12843   */\n      dup3\n        /* \"#utility.yul\":12833:12847   */\n      add\n        /* \"#utility.yul\":12826:12861   */\n      mstore\n        /* \"#utility.yul\":12709:12868   */\n      pop\n      jump\t// out\n        /* \"#utility.yul\":12874:13239   */\n    tag_195:\n        /* \"#utility.yul\":13016:13019   */\n      0x00\n        /* \"#utility.yul\":13037:13103   */\n      tag_366\n        /* \"#utility.yul\":13101:13102   */\n      0x09\n        /* \"#utility.yul\":13096:13099   */\n      dup4\n        /* \"#utility.yul\":13037:13103   */\n      tag_168\n      jump\t// in\n    tag_366:\n        /* \"#utility.yul\":13030:13103   */\n      swap2\n      pop\n        /* \"#utility.yul\":13112:13205   */\n      tag_367\n        /* \"#utility.yul\":13201:13204   */\n      dup3\n        /* \"#utility.yul\":13112:13205   */\n      tag_194\n      jump\t// in\n    tag_367:\n        /* \"#utility.yul\":13230:13232   */\n      0x20\n        /* \"#utility.yul\":13225:13228   */\n      dup3\n        /* \"#utility.yul\":13221:13233   */\n      add\n        /* \"#utility.yul\":13214:13233   */\n      swap1\n      pop\n        /* \"#utility.yul\":12874:13239   */\n      swap2\n      swap1\n      pop\n      jump\t// out\n        /* \"#utility.yul\":13245:13664   */\n    tag_83:\n        /* \"#utility.yul\":13411:13415   */\n      0x00\n        /* \"#utility.yul\":13449:13451   */\n      0x20\n        /* \"#utility.yul\":13438:13447   */\n      dup3\n        /* \"#utility.yul\":13434:13452   */\n      add\n        /* \"#utility.yul\":13426:13452   */\n      swap1\n      pop\n        /* \"#utility.yul\":13498:13507   */\n      dup2\n        /* \"#utility.yul\":13492:13496   */\n      dup2\n        /* \"#utility.yul\":13488:13508   */\n      sub\n        /* \"#utility.yul\":13484:13485   */\n      0x00\n        /* \"#utility.yul\":13473:13482   */\n      dup4\n        /* \"#utility.yul\":13469:13486   */\n      add\n        /* \"#utility.yul\":13462:13509   */\n      mstore\n        /* \"#utility.yul\":13526:13657   */\n      tag_369\n        /* \"#utility.yul\":13652:13656   */\n      dup2\n        /* \"#utility.yul\":13526:13657   */\n      tag_195\n      jump\t// in\n    tag_369:\n        /* \"#utility.yul\":13518:13657   */\n      swap1\n      pop\n        /* \"#utility.yul\":13245:13664   */\n      swap2\n      swap1\n      pop\n      jump\t// out\n        /* \"#utility.yul\":13670:13839   */\n    tag_196:\n        /* \"#utility.yul\":13810:13831   */\n      0x4e6f206665657320746f20776974686472617700000000000000000000000000\n        /* \"#utility.yul\":13806:13807   */\n      0x00\n        /* \"#utility.yul\":13798:13804   */\n      dup3\n        /* \"#utility.yul\":13794:13808   */\n      add\n        /* \"#utility.yul\":13787:13832   */\n      mstore\n        /* \"#utility.yul\":13670:13839   */\n      pop\n      jump\t// out\n        /* \"#utility.yul\":13845:14211   */\n    tag_197:\n        /* \"#utility.yul\":13987:13990   */\n      0x00\n        /* \"#utility.yul\":14008:14075   */\n      tag_372\n        /* \"#utility.yul\":14072:14074   */\n      0x13\n        /* \"#utility.yul\":14067:14070   */\n      dup4\n        /* \"#utility.yul\":14008:14075   */\n      tag_168\n      jump\t// in\n    tag_372:\n        /* \"#utility.yul\":14001:14075   */\n      swap2\n      pop\n        /* \"#utility.yul\":14084:14177   */\n      tag_373\n        /* \"#utility.yul\":14173:14176   */\n      dup3\n        /* \"#utility.yul\":14084:14177   */\n      tag_196\n      jump\t// in\n    tag_373:\n        /* \"#utility.yul\":14202:14204   */\n      0x20\n        /* \"#utility.yul\":14197:14200   */\n      dup3\n        /* \"#utility.yul\":14193:14205   */\n      add\n        /* \"#utility.yul\":14186:14205   */\n      swap1\n      pop\n        /* \"#utility.yul\":13845:14211   */\n      swap2\n      swap1\n      pop\n      jump\t// out\n        /* \"#utility.yul\":14217:14636   */\n    tag_86:\n        /* \"#utility.yul\":14383:14387   */\n      0x00\n        /* \"#utility.yul\":14421:14423   */\n      0x20\n        /* \"#utility.yul\":14410:14419   */\n      dup3\n        /* \"#utility.yul\":14406:14424   */\n      add\n        /* \"#utility.yul\":14398:14424   */\n      swap1\n      pop\n        /* \"#utility.yul\":14470:14479   */\n      dup2\n        /* \"#utility.yul\":14464:14468   */\n      dup2\n        /* \"#utility.yul\":14460:14480   */\n      sub\n        /* \"#utility.yul\":14456:14457   */\n      0x00\n        /* \"#utility.yul\":14445:14454   */\n      dup4\n        /* \"#utility.yul\":14441:14458   */\n      add\n        /* \"#utility.yul\":14434:14481   */\n      mstore\n        /* \"#utility.yul\":14498:14629   */\n      tag_375\n        /* \"#utility.yul\":14624:14628   */\n      dup2\n        /* \"#utility.yul\":14498:14629   */\n      tag_197\n      jump\t// in\n    tag_375:\n        /* \"#utility.yul\":14490:14629   */\n      swap1\n      pop\n        /* \"#utility.yul\":14217:14636   */\n      swap2\n      swap1\n      pop\n      jump\t// out\n        /* \"#utility.yul\":14642:14789   */\n    tag_198:\n        /* \"#utility.yul\":14743:14754   */\n      0x00\n        /* \"#utility.yul\":14780:14783   */\n      dup2\n        /* \"#utility.yul\":14765:14783   */\n      swap1\n      pop\n        /* \"#utility.yul\":14642:14789   */\n      swap3\n      swap2\n      pop\n      pop\n      jump\t// out\n        /* \"#utility.yul\":14795:14909   */\n    tag_199:\n      pop\n      jump\t// out\n        /* \"#utility.yul\":14915:15313   */\n    tag_200:\n        /* \"#utility.yul\":15074:15077   */\n      0x00\n        /* \"#utility.yul\":15095:15178   */\n      tag_379\n        /* \"#utility.yul\":15176:15177   */\n      0x00\n        /* \"#utility.yul\":15171:15174   */\n      dup4\n        /* \"#utility.yul\":15095:15178   */\n      tag_198\n      jump\t// in\n    tag_379:\n        /* \"#utility.yul\":15088:15178   */\n      swap2\n      pop\n        /* \"#utility.yul\":15187:15280   */\n      tag_380\n        /* \"#utility.yul\":15276:15279   */\n      dup3\n        /* \"#utility.yul\":15187:15280   */\n      tag_199\n      jump\t// in\n    tag_380:\n        /* \"#utility.yul\":15305:15306   */\n      0x00\n        /* \"#utility.yul\":15300:15303   */\n      dup3\n        /* \"#utility.yul\":15296:15307   */\n      add\n        /* \"#utility.yul\":15289:15307   */\n      swap1\n      pop\n        /* \"#utility.yul\":14915:15313   */\n      swap2\n      swap1\n      pop\n      jump\t// out\n        /* \"#utility.yul\":15319:15698   */\n    tag_88:\n        /* \"#utility.yul\":15503:15506   */\n      0x00\n        /* \"#utility.yul\":15525:15672   */\n      tag_382\n        /* \"#utility.yul\":15668:15671   */\n      dup3\n        /* \"#utility.yul\":15525:15672   */\n      tag_200\n      jump\t// in\n    tag_382:\n        /* \"#utility.yul\":15518:15672   */\n      swap2\n      pop\n        /* \"#utility.yul\":15689:15692   */\n      dup2\n        /* \"#utility.yul\":15682:15692   */\n      swap1\n      pop\n        /* \"#utility.yul\":15319:15698   */\n      swap2\n      swap1\n      pop\n      jump\t// out\n        /* \"#utility.yul\":15704:15869   */\n    tag_201:\n        /* \"#utility.yul\":15844:15861   */\n      0x5472616e73666572206661696c65640000000000000000000000000000000000\n        /* \"#utility.yul\":15840:15841   */\n      0x00\n        /* \"#utility.yul\":15832:15838   */\n      dup3\n        /* \"#utility.yul\":15828:15842   */\n      add\n        /* \"#utility.yul\":15821:15862   */\n      mstore\n        /* \"#utility.yul\":15704:15869   */\n      pop\n      jump\t// out\n        /* \"#utility.yul\":15875:16241   */\n    tag_202:\n        /* \"#utility.yul\":16017:16020   */\n      0x00\n        /* \"#utility.yul\":16038:16105   */\n      tag_385\n        /* \"#utility.yul\":16102:16104   */\n      0x0f\n        /* \"#utility.yul\":16097:16100   */\n      dup4\n        /* \"#utility.yul\":16038:16105   */\n      tag_168\n      jump\t// in\n    tag_385:\n        /* \"#utility.yul\":16031:16105   */\n      swap2\n      pop\n        /* \"#utility.yul\":16114:16207   */\n      tag_386\n        /* \"#utility.yul\":16203:16206   */\n      dup3\n        /* \"#utility.yul\":16114:16207   */\n      tag_201\n      jump\t// in\n    tag_386:\n        /* \"#utility.yul\":16232:16234   */\n      0x20\n        /* \"#utility.yul\":16227:16230   */\n      dup3\n        /* \"#utility.yul\":16223:16235   */\n      add\n        /* \"#utility.yul\":16216:16235   */\n      swap1\n      pop\n        /* \"#utility.yul\":15875:16241   */\n      swap2\n      swap1\n      pop\n      jump\t// out\n        /* \"#utility.yul\":16247:16666   */\n    tag_94:\n        /* \"#utility.yul\":16413:16417   */\n      0x00\n        /* \"#utility.yul\":16451:16453   */\n      0x20\n        /* \"#utility.yul\":16440:16449   */\n      dup3\n        /* \"#utility.yul\":16436:16454   */\n      add\n        /* \"#utility.yul\":16428:16454   */\n      swap1\n      pop\n        /* \"#utility.yul\":16500:16509   */\n      dup2\n        /* \"#utility.yul\":16494:16498   */\n      dup2\n        /* \"#utility.yul\":16490:16510   */\n      sub\n        /* \"#utility.yul\":16486:16487   */\n      0x00\n        /* \"#utility.yul\":16475:16484   */\n      dup4\n        /* \"#utility.yul\":16471:16488   */\n      add\n        /* \"#utility.yul\":16464:16511   */\n      mstore\n        /* \"#utility.yul\":16528:16659   */\n      tag_388\n        /* \"#utility.yul\":16654:16658   */\n      dup2\n        /* \"#utility.yul\":16528:16659   */\n      tag_202\n      jump\t// in\n    tag_388:\n        /* \"#utility.yul\":16520:16659   */\n      swap1\n      pop\n        /* \"#utility.yul\":16247:16666   */\n      swap2\n      swap1\n      pop\n      jump\t// out\n        /* \"#utility.yul\":16672:16852   */\n    tag_203:\n        /* \"#utility.yul\":16720:16797   */\n      0x4e487b7100000000000000000000000000000000000000000000000000000000\n        /* \"#utility.yul\":16717:16718   */\n      0x00\n        /* \"#utility.yul\":16710:16798   */\n      mstore\n        /* \"#utility.yul\":16817:16821   */\n      0x22\n        /* \"#utility.yul\":16814:16815   */\n      0x04\n        /* \"#utility.yul\":16807:16822   */\n      mstore\n        /* \"#utility.yul\":16841:16845   */\n      0x24\n        /* \"#utility.yul\":16838:16839   */\n      0x00\n        /* \"#utility.yul\":16831:16846   */\n      revert\n        /* \"#utility.yul\":16858:17178   */\n    tag_96:\n        /* \"#utility.yul\":16902:16908   */\n      0x00\n        /* \"#utility.yul\":16939:16940   */\n      0x02\n        /* \"#utility.yul\":16933:16937   */\n      dup3\n        /* \"#utility.yul\":16929:16941   */\n      div\n        /* \"#utility.yul\":16919:16941   */\n      swap1\n      pop\n        /* \"#utility.yul\":16986:16987   */\n      0x01\n        /* \"#utility.yul\":16980:16984   */\n      dup3\n        /* \"#utility.yul\":16976:16988   */\n      and\n        /* \"#utility.yul\":17007:17025   */\n      dup1\n        /* \"#utility.yul\":16997:17078   */\n      tag_391\n      jumpi\n        /* \"#utility.yul\":17063:17067   */\n      0x7f\n        /* \"#utility.yul\":17055:17061   */\n      dup3\n        /* \"#utility.yul\":17051:17068   */\n      and\n        /* \"#utility.yul\":17041:17068   */\n      swap2\n      pop\n        /* \"#utility.yul\":16997:17078   */\n    tag_391:\n        /* \"#utility.yul\":17125:17127   */\n      0x20\n        /* \"#utility.yul\":17117:17123   */\n      dup3\n        /* \"#utility.yul\":17114:17128   */\n      lt\n        /* \"#utility.yul\":17094:17112   */\n      dup2\n        /* \"#utility.yul\":17091:17129   */\n      sub\n        /* \"#utility.yul\":17088:17172   */\n      tag_392\n      jumpi\n        /* \"#utility.yul\":17144:17162   */\n      tag_393\n      tag_203\n      jump\t// in\n    tag_393:\n        /* \"#utility.yul\":17088:17172   */\n    tag_392:\n        /* \"#utility.yul\":16909:17178   */\n      pop\n        /* \"#utility.yul\":16858:17178   */\n      swap2\n      swap1\n      pop\n      jump\t// out\n        /* \"#utility.yul\":17184:17417   */\n    tag_121:\n        /* \"#utility.yul\":17223:17226   */\n      0x00\n        /* \"#utility.yul\":17246:17270   */\n      tag_395\n        /* \"#utility.yul\":17264:17269   */\n      dup3\n        /* \"#utility.yul\":17246:17270   */\n      tag_158\n      jump\t// in\n    tag_395:\n        /* \"#utility.yul\":17237:17270   */\n      swap2\n      pop\n        /* \"#utility.yul\":17292:17358   */\n      0xffffffffffffffffffffffffffffffffffffffffffffffffffffffffffffffff\n        /* \"#utility.yul\":17285:17290   */\n      dup3\n        /* \"#utility.yul\":17282:17359   */\n      sub\n        /* \"#utility.yul\":17279:17382   */\n      tag_396\n      jumpi\n        /* \"#utility.yul\":17362:17380   */\n      tag_397\n      tag_191\n      jump\t// in\n    tag_397:\n        /* \"#utility.yul\":17279:17382   */\n    tag_396:\n        /* \"#utility.yul\":17409:17410   */\n      0x01\n        /* \"#utility.yul\":17402:17407   */\n      dup3\n        /* \"#utility.yul\":17398:17411   */\n      add\n        /* \"#utility.yul\":17391:17411   */\n      swap1\n      pop\n        /* \"#utility.yul\":17184:17417   */\n      swap2\n      swap1\n      pop\n      jump\t// out\n        /* \"#utility.yul\":17423:17564   */\n    tag_204:\n        /* \"#utility.yul\":17472:17476   */\n      0x00\n        /* \"#utility.yul\":17495:17498   */\n      dup2\n        /* \"#utility.yul\":17487:17498   */\n      swap1\n      pop\n        /* \"#utility.yul\":17518:17521   */\n      dup2\n        /* \"#utility.yul\":17515:17516   */\n      0x00\n        /* \"#utility.yul\":17508:17522   */\n      mstore\n        /* \"#utility.yul\":17552:17556   */\n      0x20\n        /* \"#utility.yul\":17549:17550   */\n      0x00\n        /* \"#utility.yul\":17539:17557   */\n      keccak256\n        /* \"#utility.yul\":17531:17557   */\n      swap1\n      pop\n        /* \"#utility.yul\":17423:17564   */\n      swap2\n      swap1\n      pop\n      jump\t// out\n        /* \"#utility.yul\":17570:17663   */\n    tag_205:\n        /* \"#utility.yul\":17607:17613   */\n      0x00\n        /* \"#utility.yul\":17654:17656   */\n      0x20\n        /* \"#utility.yul\":17649:17651   */\n      0x1f\n        /* \"#utility.yul\":17642:17647   */\n      dup4\n        /* \"#utility.yul\":17638:17652   */\n      add\n        /* \"#utility.yul\":17634:17657   */\n      div\n        /* \"#utility.yul\":17624:17657   */\n      swap1\n      pop\n        /* \"#utility.yul\":17570:17663   */\n      swap2\n      swap1\n      pop\n      jump\t// out\n        /* \"#utility.yul\":17669:17776   */\n    tag_206:\n        /* \"#utility.yul\":17713:17721   */\n      0x00\n        /* \"#utility.yul\":17763:17768   */\n      dup3\n        /* \"#utility.yul\":17757:17761   */\n      dup3\n        /* \"#utility.yul\":17753:17769   */\n      shl\n        /* \"#utility.yul\":17732:17769   */\n      swap1\n      pop\n        /* \"#utility.yul\":17669:17776   */\n      swap3\n      swap2\n      pop\n      pop\n      jump\t// out\n        /* \"#utility.yul\":17782:18175   */\n    tag_207:\n        /* \"#utility.yul\":17851:17857   */\n      0x00\n        /* \"#utility.yul\":17901:17902   */\n      0x08\n        /* \"#utility.yul\":17889:17899   */\n      dup4\n        /* \"#utility.yul\":17885:17903   */\n      mul\n        /* \"#utility.yul\":17924:18021   */\n      tag_402\n        /* \"#utility.yul\":17954:18020   */\n      0xffffffffffffffffffffffffffffffffffffffffffffffffffffffffffffffff\n        /* \"#utility.yul\":17943:17952   */\n      dup3\n        /* \"#utility.yul\":17924:18021   */\n      tag_206\n      jump\t// in\n    tag_402:\n        /* \"#utility.yul\":18042:18081   */\n      tag_403\n        /* \"#utility.yul\":18072:18080   */\n      dup7\n        /* \"#utility.yul\":18061:18070   */\n      dup4\n        /* \"#utility.yul\":18042:18081   */\n      tag_206\n      jump\t// in\n    tag_403:\n        /* \"#utility.yul\":18030:18081   */\n      swap6\n      pop\n        /* \"#utility.yul\":18114:18118   */\n      dup1\n        /* \"#utility.yul\":18110:18119   */\n      not\n        /* \"#utility.yul\":18103:18108   */\n      dup5\n        /* \"#utility.yul\":18099:18120   */\n      and\n        /* \"#utility.yul\":18090:18120   */\n      swap4\n      pop\n        /* \"#utility.yul\":18163:18167   */\n      dup1\n        /* \"#utility.yul\":18153:18161   */\n      dup7\n        /* \"#utility.yul\":18149:18168   */\n      and\n        /* \"#utility.yul\":18142:18147   */\n      dup5\n        /* \"#utility.yul\":18139:18169   */\n      or\n        /* \"#utility.yul\":18129:18169   */\n      swap3\n      pop\n        /* \"#utility.yul\":17858:18175   */\n      pop\n      pop\n        /* \"#utility.yul\":17782:18175   */\n      swap4\n      swap3\n      pop\n      pop\n      pop\n      jump\t// out\n        /* \"#utility.yul\":18181:18241   */\n    tag_208:\n        /* \"#utility.yul\":18209:18212   */\n      0x00\n        /* \"#utility.yul\":18230:18235   */\n      dup2\n        /* \"#utility.yul\":18223:18235   */\n      swap1\n      pop\n        /* \"#utility.yul\":18181:18241   */\n      swap2\n      swap1\n      pop\n      jump\t// out\n        /* \"#utility.yul\":18247:18389   */\n    tag_209:\n        /* \"#utility.yul\":18297:18306   */\n      0x00\n        /* \"#utility.yul\":18330:18383   */\n      tag_406\n        /* \"#utility.yul\":18348:18382   */\n      tag_407\n        /* \"#utility.yul\":18357:18381   */\n      tag_408\n        /* \"#utility.yul\":18375:18380   */\n      dup5\n        /* \"#utility.yul\":18357:18381   */\n      tag_158\n      jump\t// in\n    tag_408:\n        /* \"#utility.yul\":18348:18382   */\n      tag_208\n      jump\t// in\n    tag_407:\n        /* \"#utility.yul\":18330:18383   */\n      tag_158\n      jump\t// in\n    tag_406:\n        /* \"#utility.yul\":18317:18383   */\n      swap1\n      pop\n        /* \"#utility.yul\":18247:18389   */\n      swap2\n      swap1\n      pop\n      jump\t// out\n        /* \"#utility.yul\":18395:18470   */\n    tag_210:\n        /* \"#utility.yul\":18438:18441   */\n      0x00\n        /* \"#utility.yul\":18459:18464   */\n      dup2\n        /* \"#utility.yul\":18452:18464   */\n      swap1\n      pop\n        /* \"#utility.yul\":18395:18470   */\n      swap2\n      swap1\n      pop\n      jump\t// out\n        /* \"#utility.yul\":18476:18745   */\n    tag_211:\n        /* \"#utility.yul\":18586:18625   */\n      tag_411\n        /* \"#utility.yul\":18617:18624   */\n      dup4\n        /* \"#utility.yul\":18586:18625   */\n      tag_209\n      jump\t// in\n    tag_411:\n        /* \"#utility.yul\":18647:18738   */\n      tag_412\n        /* \"#utility.yul\":18696:18737   */\n      tag_413\n        /* \"#utility.yul\":18720:18736   */\n      dup3\n        /* \"#utility.yul\":18696:18737   */\n      tag_210\n      jump\t// in\n    tag_413:\n        /* \"#utility.yul\":18688:18694   */\n      dup5\n        /* \"#utility.yul\":18681:18685   */\n      dup5\n        /* \"#utility.yul\":18675:18686   */\n      sload\n        /* \"#utility.yul\":18647:18738   */\n      tag_207\n      jump\t// in\n    tag_412:\n        /* \"#utility.yul\":18641:18645   */\n      dup3\n        /* \"#utility.yul\":18634:18739   */\n      sstore\n        /* \"#utility.yul\":18552:18745   */\n      pop\n        /* \"#utility.yul\":18476:18745   */\n      pop\n      pop\n      pop\n      jump\t// out\n        /* \"#utility.yul\":18751:18824   */\n    tag_212:\n        /* \"#utility.yul\":18796:18799   */\n      0x00\n        /* \"#utility.yul\":18817:18818   */\n      0x00\n        /* \"#utility.yul\":18810:18818   */\n      swap1\n      pop\n        /* \"#utility.yul\":18751:18824   */\n      swap1\n      jump\t// out\n        /* \"#utility.yul\":18830:19019   */\n    tag_213:\n        /* \"#utility.yul\":18907:18939   */\n      tag_416\n      tag_212\n      jump\t// in\n    tag_416:\n        /* \"#utility.yul\":18948:19013   */\n      tag_417\n        /* \"#utility.yul\":19006:19012   */\n      dup2\n        /* \"#utility.yul\":18998:19004   */\n      dup5\n        /* \"#utility.yul\":18992:18996   */\n      dup5\n        /* \"#utility.yul\":18948:19013   */\n      tag_211\n      jump\t// in\n    tag_417:\n        /* \"#utility.yul\":18883:19019   */\n      pop\n        /* \"#utility.yul\":18830:19019   */\n      pop\n      pop\n      jump\t// out\n        /* \"#utility.yul\":19025:19211   */\n    tag_214:\n        /* \"#utility.yul\":19085:19205   */\n    tag_419:\n        /* \"#utility.yul\":19102:19105   */\n      dup2\n        /* \"#utility.yul\":19095:19100   */\n      dup2\n        /* \"#utility.yul\":19092:19106   */\n      lt\n        /* \"#utility.yul\":19085:19205   */\n      iszero\n      tag_421\n      jumpi\n        /* \"#utility.yul\":19156:19195   */\n      tag_422\n        /* \"#utility.yul\":19193:19194   */\n      0x00\n        /* \"#utility.yul\":19186:19191   */\n      dup3\n        /* \"#utility.yul\":19156:19195   */\n      tag_213\n      jump\t// in\n    tag_422:\n        /* \"#utility.yul\":19129:19130   */\n      0x01\n        /* \"#utility.yul\":19122:19127   */\n      dup2\n        /* \"#utility.yul\":19118:19131   */\n      add\n        /* \"#utility.yul\":19109:19131   */\n      swap1\n      pop\n        /* \"#utility.yul\":19085:19205   */\n      jump(tag_419)\n    tag_421:\n        /* \"#utility.yul\":19025:19211   */\n      pop\n      pop\n      jump\t// out\n        /* \"#utility.yul\":19217:19760   */\n    tag_215:\n        /* \"#utility.yul\":19318:19320   */\n      0x1f\n        /* \"#utility.yul\":19313:19316   */\n      dup3\n        /* \"#utility.yul\":19310:19321   */\n      gt\n        /* \"#utility.yul\":19307:19753   */\n      iszero\n      tag_424\n      jumpi\n        /* \"#utility.yul\":19352:19390   */\n      tag_425\n        /* \"#utility.yul\":19384:19389   */\n      dup2\n        /* \"#utility.yul\":19352:19390   */\n      tag_204\n      jump\t// in\n    tag_425:\n        /* \"#utility.yul\":19436:19465   */\n      tag_426\n        /* \"#utility.yul\":19454:19464   */\n      dup5\n        /* \"#utility.yul\":19436:19465   */\n      tag_205\n      jump\t// in\n    tag_426:\n        /* \"#utility.yul\":19426:19434   */\n      dup2\n        /* \"#utility.yul\":19422:19466   */\n      add\n        /* \"#utility.yul\":19619:19621   */\n      0x20\n        /* \"#utility.yul\":19607:19617   */\n      dup6\n        /* \"#utility.yul\":19604:19622   */\n      lt\n        /* \"#utility.yul\":19601:19650   */\n      iszero\n      tag_427\n      jumpi\n        /* \"#utility.yul\":19640:19648   */\n      dup2\n        /* \"#utility.yul\":19625:19648   */\n      swap1\n      pop\n        /* \"#utility.yul\":19601:19650   */\n    tag_427:\n        /* \"#utility.yul\":19663:19743   */\n      tag_428\n        /* \"#utility.yul\":19719:19741   */\n      tag_429\n        /* \"#utility.yul\":19737:19740   */\n      dup6\n        /* \"#utility.yul\":19719:19741   */\n      tag_205\n      jump\t// in\n    tag_429:\n        /* \"#utility.yul\":19709:19717   */\n      dup4\n        /* \"#utility.yul\":19705:19742   */\n      add\n        /* \"#utility.yul\":19692:19703   */\n      dup3\n        /* \"#utility.yul\":19663:19743   */\n      tag_214\n      jump\t// in\n    tag_428:\n        /* \"#utility.yul\":19322:19753   */\n      pop\n      pop\n        /* \"#utility.yul\":19307:19753   */\n    tag_424:\n        /* \"#utility.yul\":19217:19760   */\n      pop\n      pop\n      pop\n      jump\t// out\n        /* \"#utility.yul\":19766:19883   */\n    tag_216:\n        /* \"#utility.yul\":19820:19828   */\n      0x00\n        /* \"#utility.yul\":19870:19875   */\n      dup3\n        /* \"#utility.yul\":19864:19868   */\n      dup3\n        /* \"#utility.yul\":19860:19876   */\n      shr\n        /* \"#utility.yul\":19839:19876   */\n      swap1\n      pop\n        /* \"#utility.yul\":19766:19883   */\n      swap3\n      swap2\n      pop\n      pop\n      jump\t// out\n        /* \"#utility.yul\":19889:20058   */\n    tag_217:\n        /* \"#utility.yul\":19933:19939   */\n      0x00\n        /* \"#utility.yul\":19966:20017   */\n      tag_432\n        /* \"#utility.yul\":20014:20015   */\n      0x00\n        /* \"#utility.yul\":20010:20016   */\n      not\n        /* \"#utility.yul\":20002:20007   */\n      dup5\n        /* \"#utility.yul\":19999:20000   */\n      0x08\n        /* \"#utility.yul\":19995:20008   */\n      mul\n        /* \"#utility.yul\":19966:20017   */\n      tag_216\n      jump\t// in\n    tag_432:\n        /* \"#utility.yul\":19962:20018   */\n      not\n        /* \"#utility.yul\":20047:20051   */\n      dup1\n        /* \"#utility.yul\":20041:20045   */\n      dup4\n        /* \"#utility.yul\":20037:20052   */\n      and\n        /* \"#utility.yul\":20027:20052   */\n      swap2\n      pop\n        /* \"#utility.yul\":19940:20058   */\n      pop\n        /* \"#utility.yul\":19889:20058   */\n      swap3\n      swap2\n      pop\n      pop\n      jump\t// out\n        /* \"#utility.yul\":20063:20358   */\n    tag_218:\n        /* \"#utility.yul\":20139:20143   */\n      0x00\n        /* \"#utility.yul\":20285:20314   */\n      tag_434\n        /* \"#utility.yul\":20310:20313   */\n      dup4\n        /* \"#utility.yul\":20304:20308   */\n      dup4\n        /* \"#utility.yul\":20285:20314   */\n      tag_217\n      jump\t// in\n    tag_434:\n        /* \"#utility.yul\":20277:20314   */\n      swap2\n      pop\n        /* \"#utility.yul\":20347:20350   */\n      dup3\n        /* \"#utility.yul\":20344:20345   */\n      0x02\n        /* \"#utility.yul\":20340:20351   */\n      mul\n        /* \"#utility.yul\":20334:20338   */\n      dup3\n        /* \"#utility.yul\":20331:20352   */\n      or\n        /* \"#utility.yul\":20323:20352   */\n      swap1\n      pop\n        /* \"#utility.yul\":20063:20358   */\n      swap3\n      swap2\n      pop\n      pop\n      jump\t// out\n        /* \"#utility.yul\":20363:21758   */\n    tag_123:\n        /* \"#utility.yul\":20480:20517   */\n      tag_436\n        /* \"#utility.yul\":20513:20516   */\n      dup3\n        /* \"#utility.yul\":20480:20517   */\n      tag_167\n      jump\t// in\n    tag_436:\n        /* \"#utility.yul\":20582:20600   */\n      0xffffffffffffffff\n        /* \"#utility.yul\":20574:20580   */\n      dup2\n        /* \"#utility.yul\":20571:20601   */\n      gt\n        /* \"#utility.yul\":20568:20624   */\n      iszero\n      tag_437\n      jumpi\n        /* \"#utility.yul\":20604:20622   */\n      tag_438\n      tag_180\n      jump\t// in\n    tag_438:\n        /* \"#utility.yul\":20568:20624   */\n    tag_437:\n        /* \"#utility.yul\":20648:20686   */\n      tag_439\n        /* \"#utility.yul\":20680:20684   */\n      dup3\n        /* \"#utility.yul\":20674:20685   */\n      sload\n        /* \"#utility.yul\":20648:20686   */\n      tag_96\n      jump\t// in\n    tag_439:\n        /* \"#utility.yul\":20733:20800   */\n      tag_440\n        /* \"#utility.yul\":20793:20799   */\n      dup3\n        /* \"#utility.yul\":20785:20791   */\n      dup3\n        /* \"#utility.yul\":20779:20783   */\n      dup6\n        /* \"#utility.yul\":20733:20800   */\n      tag_215\n      jump\t// in\n    tag_440:\n        /* \"#utility.yul\":20827:20828   */\n      0x00\n        /* \"#utility.yul\":20851:20855   */\n      0x20\n        /* \"#utility.yul\":20838:20855   */\n      swap1\n      pop\n        /* \"#utility.yul\":20883:20885   */\n      0x1f\n        /* \"#utility.yul\":20875:20881   */\n      dup4\n        /* \"#utility.yul\":20872:20886   */\n      gt\n        /* \"#utility.yul\":20900:20901   */\n      0x01\n        /* \"#utility.yul\":20895:21513   */\n      dup2\n      eq\n      tag_442\n      jumpi\n        /* \"#utility.yul\":21557:21558   */\n      0x00\n        /* \"#utility.yul\":21574:21580   */\n      dup5\n        /* \"#utility.yul\":21571:21648   */\n      iszero\n      tag_443\n      jumpi\n        /* \"#utility.yul\":21623:21632   */\n      dup3\n        /* \"#utility.yul\":21618:21621   */\n      dup8\n        /* \"#utility.yul\":21614:21633   */\n      add\n        /* \"#utility.yul\":21608:21634   */\n      mload\n        /* \"#utility.yul\":21599:21634   */\n      swap1\n      pop\n        /* \"#utility.yul\":21571:21648   */\n    tag_443:\n        /* \"#utility.yul\":21674:21741   */\n      tag_444\n        /* \"#utility.yul\":21734:21740   */\n      dup6\n        /* \"#utility.yul\":21727:21732   */\n      dup3\n        /* \"#utility.yul\":21674:21741   */\n      tag_218\n      jump\t// in\n    tag_444:\n        /* \"#utility.yul\":21668:21672   */\n      dup7\n        /* \"#utility.yul\":21661:21742   */\n      sstore\n        /* \"#utility.yul\":21530:21752   */\n      pop\n        /* \"#utility.yul\":20865:21752   */\n      jump(tag_441)\n        /* \"#utility.yul\":20895:21513   */\n    tag_442:\n        /* \"#utility.yul\":20947:20951   */\n      0x1f\n        /* \"#utility.yul\":20943:20952   */\n      not\n        /* \"#utility.yul\":20935:20941   */\n      dup5\n        /* \"#utility.yul\":20931:20953   */\n      and\n        /* \"#utility.yul\":20981:21018   */\n      tag_445\n        /* \"#utility.yul\":21013:21017   */\n      dup7\n        /* \"#utility.yul\":20981:21018   */\n      tag_204\n      jump\t// in\n    tag_445:\n        /* \"#utility.yul\":21040:21041   */\n      0x00\n        /* \"#utility.yul\":21054:21262   */\n    tag_446:\n        /* \"#utility.yul\":21068:21075   */\n      dup3\n        /* \"#utility.yul\":21065:21066   */\n      dup2\n        /* \"#utility.yul\":21062:21076   */\n      lt\n        /* \"#utility.yul\":21054:21262   */\n      iszero\n      tag_448\n      jumpi\n        /* \"#utility.yul\":21147:21156   */\n      dup5\n        /* \"#utility.yul\":21142:21145   */\n      dup10\n        /* \"#utility.yul\":21138:21157   */\n      add\n        /* \"#utility.yul\":21132:21158   */\n      mload\n        /* \"#utility.yul\":21124:21130   */\n      dup3\n        /* \"#utility.yul\":21117:21159   */\n      sstore\n        /* \"#utility.yul\":21198:21199   */\n      0x01\n        /* \"#utility.yul\":21190:21196   */\n      dup3\n        /* \"#utility.yul\":21186:21200   */\n      add\n        /* \"#utility.yul\":21176:21200   */\n      swap2\n      pop\n        /* \"#utility.yul\":21245:21247   */\n      0x20\n        /* \"#utility.yul\":21234:21243   */\n      dup6\n        /* \"#utility.yul\":21230:21248   */\n      add\n        /* \"#utility.yul\":21217:21248   */\n      swap5\n      pop\n        /* \"#utility.yul\":21091:21095   */\n      0x20\n        /* \"#utility.yul\":21088:21089   */\n      dup2\n        /* \"#utility.yul\":21084:21096   */\n      add\n        /* \"#utility.yul\":21079:21096   */\n      swap1\n      pop\n        /* \"#utility.yul\":21054:21262   */\n      jump(tag_446)\n    tag_448:\n        /* \"#utility.yul\":21290:21296   */\n      dup7\n        /* \"#utility.yul\":21281:21288   */\n      dup4\n        /* \"#utility.yul\":21278:21297   */\n      lt\n        /* \"#utility.yul\":21275:21454   */\n      iszero\n      tag_449\n      jumpi\n        /* \"#utility.yul\":21348:21357   */\n      dup5\n        /* \"#utility.yul\":21343:21346   */\n      dup10\n        /* \"#utility.yul\":21339:21358   */\n      add\n        /* \"#utility.yul\":21333:21359   */\n      mload\n        /* \"#utility.yul\":21391:21439   */\n      tag_450\n        /* \"#utility.yul\":21433:21437   */\n      0x1f\n        /* \"#utility.yul\":21425:21431   */\n      dup10\n        /* \"#utility.yul\":21421:21438   */\n      and\n        /* \"#utility.yul\":21410:21419   */\n      dup3\n        /* \"#utility.yul\":21391:21439   */\n      tag_217\n      jump\t// in\n    tag_450:\n        /* \"#utility.yul\":21383:21389   */\n      dup4\n        /* \"#utility.yul\":21376:21440   */\n      sstore\n        /* \"#utility.yul\":21298:21454   */\n      pop\n        /* \"#utility.yul\":21275:21454   */\n    tag_449:\n        /* \"#utility.yul\":21500:21501   */\n      0x01\n        /* \"#utility.yul\":21496:21497   */\n      0x02\n        /* \"#utility.yul\":21488:21494   */\n      dup9\n        /* \"#utility.yul\":21484:21498   */\n      mul\n        /* \"#utility.yul\":21480:21502   */\n      add\n        /* \"#utility.yul\":21474:21478   */\n      dup9\n        /* \"#utility.yul\":21467:21503   */\n      sstore\n        /* \"#utility.yul\":20902:21513   */\n      pop\n      pop\n      pop\n        /* \"#utility.yul\":20865:21752   */\n    tag_441:\n      pop\n        /* \"#utility.yul\":20455:21758   */\n      pop\n      pop\n      pop\n        /* \"#utility.yul\":20363:21758   */\n      pop\n      pop\n      jump\t// out\n        /* \"#utility.yul\":21764:22278   */\n    tag_126:\n        /* \"#utility.yul\":21925:21929   */\n      0x00\n        /* \"#utility.yul\":21963:21965   */\n      0x40\n        /* \"#utility.yul\":21952:21961   */\n      dup3\n        /* \"#utility.yul\":21948:21966   */\n      add\n        /* \"#utility.yul\":21940:21966   */\n      swap1\n      pop\n        /* \"#utility.yul\":22012:22021   */\n      dup2\n        /* \"#utility.yul\":22006:22010   */\n      dup2\n        /* \"#utility.yul\":22002:22022   */\n      sub\n        /* \"#utility.yul\":21998:21999   */\n      0x00\n        /* \"#utility.yul\":21987:21996   */\n      dup4\n        /* \"#utility.yul\":21983:22000   */\n      add\n        /* \"#utility.yul\":21976:22023   */\n      mstore\n        /* \"#utility.yul\":22040:22118   */\n      tag_452\n        /* \"#utility.yul\":22113:22117   */\n      dup2\n        /* \"#utility.yul\":22104:22110   */\n      dup6\n        /* \"#utility.yul\":22040:22118   */\n      tag_171\n      jump\t// in\n    tag_452:\n        /* \"#utility.yul\":22032:22118   */\n      swap1\n      pop\n        /* \"#utility.yul\":22165:22174   */\n      dup2\n        /* \"#utility.yul\":22159:22163   */\n      dup2\n        /* \"#utility.yul\":22155:22175   */\n      sub\n        /* \"#utility.yul\":22150:22152   */\n      0x20\n        /* \"#utility.yul\":22139:22148   */\n      dup4\n        /* \"#utility.yul\":22135:22153   */\n      add\n        /* \"#utility.yul\":22128:22176   */\n      mstore\n        /* \"#utility.yul\":22193:22271   */\n      tag_453\n        /* \"#utility.yul\":22266:22270   */\n      dup2\n        /* \"#utility.yul\":22257:22263   */\n      dup5\n        /* \"#utility.yul\":22193:22271   */\n      tag_171\n      jump\t// in\n    tag_453:\n        /* \"#utility.yul\":22185:22271   */\n      swap1\n      pop\n        /* \"#utility.yul\":21764:22278   */\n      swap4\n      swap3\n      pop\n      pop\n      pop\n      jump\t// out\n        /* \"#utility.yul\":22284:22452   */\n    tag_219:\n        /* \"#utility.yul\":22424:22444   */\n      0x4578616374206665652072657175697265640000000000000000000000000000\n        /* \"#utility.yul\":22420:22421   */\n      0x00\n        /* \"#utility.yul\":22412:22418   */\n      dup3\n        /* \"#utility.yul\":22408:22422   */\n      add\n        /* \"#utility.yul\":22401:22445   */\n      mstore\n        /* \"#utility.yul\":22284:22452   */\n      pop\n      jump\t// out\n        /* \"#utility.yul\":22458:22824   */\n    tag_220:\n        /* \"#utility.yul\":22600:22603   */\n      0x00\n        /* \"#utility.yul\":22621:22688   */\n      tag_456\n        /* \"#utility.yul\":22685:22687   */\n      0x12\n        /* \"#utility.yul\":22680:22683   */\n      dup4\n        /* \"#utility.yul\":22621:22688   */\n      tag_168\n      jump\t// in\n    tag_456:\n        /* \"#utility.yul\":22614:22688   */\n      swap2\n      pop\n        /* \"#utility.yul\":22697:22790   */\n      tag_457\n        /* \"#utility.yul\":22786:22789   */\n      dup3\n        /* \"#utility.yul\":22697:22790   */\n      tag_219\n      jump\t// in\n    tag_457:\n        /* \"#utility.yul\":22815:22817   */\n      0x20\n        /* \"#utility.yul\":22810:22813   */\n      dup3\n        /* \"#utility.yul\":22806:22818   */\n      add\n        /* \"#utility.yul\":22799:22818   */\n      swap1\n      pop\n        /* \"#utility.yul\":22458:22824   */\n      swap2\n      swap1\n      pop\n      jump\t// out\n        /* \"#utility.yul\":22830:23249   */\n    tag_130:\n        /* \"#utility.yul\":22996:23000   */\n      0x00\n        /* \"#utility.yul\":23034:23036   */\n      0x20\n        /* \"#utility.yul\":23023:23032   */\n      dup3\n        /* \"#utility.yul\":23019:23037   */\n      add\n        /* \"#utility.yul\":23011:23037   */\n      swap1\n      pop\n        /* \"#utility.yul\":23083:23092   */\n      dup2\n        /* \"#utility.yul\":23077:23081   */\n      dup2\n        /* \"#utility.yul\":23073:23093   */\n      sub\n        /* \"#utility.yul\":23069:23070   */\n      0x00\n        /* \"#utility.yul\":23058:23067   */\n      dup4\n        /* \"#utility.yul\":23054:23071   */\n      add\n        /* \"#utility.yul\":23047:23094   */\n      mstore\n        /* \"#utility.yul\":23111:23242   */\n      tag_459\n        /* \"#utility.yul\":23237:23241   */\n      dup2\n        /* \"#utility.yul\":23111:23242   */\n      tag_220\n      jump\t// in\n    tag_459:\n        /* \"#utility.yul\":23103:23242   */\n      swap1\n      pop\n        /* \"#utility.yul\":22830:23249   */\n      swap2\n      swap1\n      pop\n      jump\t// out\n        /* \"#utility.yul\":23255:23422   */\n    tag_221:\n        /* \"#utility.yul\":23395:23414   */\n      0x496e76616c696420626174746c65204944000000000000000000000000000000\n        /* \"#utility.yul\":23391:23392   */\n      0x00\n        /* \"#utility.yul\":23383:23389   */\n      dup3\n        /* \"#utility.yul\":23379:23393   */\n      add\n        /* \"#utility.yul\":23372:23415   */\n      mstore\n        /* \"#utility.yul\":23255:23422   */\n      pop\n      jump\t// out\n        /* \"#utility.yul\":23428:23794   */\n    tag_222:\n        /* \"#utility.yul\":23570:23573   */\n      0x00\n        /* \"#utility.yul\":23591:23658   */\n      tag_462\n        /* \"#utility.yul\":23655:23657   */\n      0x11\n        /* \"#utility.yul\":23650:23653   */\n      dup4\n        /* \"#utility.yul\":23591:23658   */\n      tag_168\n      jump\t// in\n    tag_462:\n        /* \"#utility.yul\":23584:23658   */\n      swap2\n      pop\n        /* \"#utility.yul\":23667:23760   */\n      tag_463\n        /* \"#utility.yul\":23756:23759   */\n      dup3\n        /* \"#utility.yul\":23667:23760   */\n      tag_221\n      jump\t// in\n    tag_463:\n        /* \"#utility.yul\":23785:23787   */\n      0x20\n        /* \"#utility.yul\":23780:23783   */\n      dup3\n        /* \"#utility.yul\":23776:23788   */\n      add\n        /* \"#utility.yul\":23769:23788   */\n      swap1\n      pop\n        /* \"#utility.yul\":23428:23794   */\n      swap2\n      swap1\n      pop\n      jump\t// out\n        /* \"#utility.yul\":23800:24219   */\n    tag_134:\n        /* \"#utility.yul\":23966:23970   */\n      0x00\n        /* \"#utility.yul\":24004:24006   */\n      0x20\n        /* \"#utility.yul\":23993:24002   */\n      dup3\n        /* \"#utility.yul\":23989:24007   */\n      add\n        /* \"#utility.yul\":23981:24007   */\n      swap1\n      pop\n        /* \"#utility.yul\":24053:24062   */\n      dup2\n        /* \"#utility.yul\":24047:24051   */\n      dup2\n        /* \"#utility.yul\":24043:24063   */\n      sub\n        /* \"#utility.yul\":24039:24040   */\n      0x00\n        /* \"#utility.yul\":24028:24037   */\n      dup4\n        /* \"#utility.yul\":24024:24041   */\n      add\n        /* \"#utility.yul\":24017:24064   */\n      mstore\n        /* \"#utility.yul\":24081:24212   */\n      tag_465\n        /* \"#utility.yul\":24207:24211   */\n      dup2\n        /* \"#utility.yul\":24081:24212   */\n      tag_222\n      jump\t// in\n    tag_465:\n        /* \"#utility.yul\":24073:24212   */\n      swap1\n      pop\n        /* \"#utility.yul\":23800:24219   */\n      swap2\n      swap1\n      pop\n      jump\t// out\n        /* \"#utility.yul\":24225:24390   */\n    tag_223:\n        /* \"#utility.yul\":24365:24382   */\n      0x426174746c6520696e6163746976650000000000000000000000000000000000\n        /* \"#utility.yul\":24361:24362   */\n      0x00\n        /* \"#utility.yul\":24353:24359   */\n      dup3\n        /* \"#utility.yul\":24349:24363   */\n      add\n        /* \"#utility.yul\":24342:24383   */\n      mstore\n        /* \"#utility.yul\":24225:24390   */\n      pop\n      jump\t// out\n        /* \"#utility.yul\":24396:24762   */\n    tag_224:\n        /* \"#utility.yul\":24538:24541   */\n      0x00\n        /* \"#utility.yul\":24559:24626   */\n      tag_468\n        /* \"#utility.yul\":24623:24625   */\n      0x0f\n        /* \"#utility.yul\":24618:24621   */\n      dup4\n        /* \"#utility.yul\":24559:24626   */\n      tag_168\n      jump\t// in\n    tag_468:\n        /* \"#utility.yul\":24552:24626   */\n      swap2\n      pop\n        /* \"#utility.yul\":24635:24728   */\n      tag_469\n        /* \"#utility.yul\":24724:24727   */\n      dup3\n        /* \"#utility.yul\":24635:24728   */\n      tag_223\n      jump\t// in\n    tag_469:\n        /* \"#utility.yul\":24753:24755   */\n      0x20\n        /* \"#utility.yul\":24748:24751   */\n      dup3\n        /* \"#utility.yul\":24744:24756   */\n      add\n        /* \"#utility.yul\":24737:24756   */\n      swap1\n      pop\n        /* \"#utility.yul\":24396:24762   */\n      swap2\n      swap1\n      pop\n      jump\t// out\n        /* \"#utility.yul\":24768:25187   */\n    tag_137:\n        /* \"#utility.yul\":24934:24938   */\n      0x00\n        /* \"#utility.yul\":24972:24974   */\n      0x20\n        /* \"#utility.yul\":24961:24970   */\n      dup3\n        /* \"#utility.yul\":24957:24975   */\n      add\n        /* \"#utility.yul\":24949:24975   */\n      swap1\n      pop\n        /* \"#utility.yul\":25021:25030   */\n      dup2\n        /* \"#utility.yul\":25015:25019   */\n      dup2\n        /* \"#utility.yul\":25011:25031   */\n      sub\n        /* \"#utility.yul\":25007:25008   */\n      0x00\n        /* \"#utility.yul\":24996:25005   */\n      dup4\n        /* \"#utility.yul\":24992:25009   */\n      add\n        /* \"#utility.yul\":24985:25032   */\n      mstore\n        /* \"#utility.yul\":25049:25180   */\n      tag_471\n        /* \"#utility.yul\":25175:25179   */\n      dup2\n        /* \"#utility.yul\":25049:25180   */\n      tag_224\n      jump\t// in\n    tag_471:\n        /* \"#utility.yul\":25041:25180   */\n      swap1\n      pop\n        /* \"#utility.yul\":24768:25187   */\n      swap2\n      swap1\n      pop\n      jump\t// out\n        /* \"#utility.yul\":25193:25356   */\n    tag_225:\n        /* \"#utility.yul\":25333:25348   */\n      0x416c726561647920766f74656400000000000000000000000000000000000000\n        /* \"#utility.yul\":25329:25330   */\n      0x00\n        /* \"#utility.yul\":25321:25327   */\n      dup3\n        /* \"#utility.yul\":25317:25331   */\n      add\n        /* \"#utility.yul\":25310:25349   */\n      mstore\n        /* \"#utility.yul\":25193:25356   */\n      pop\n      jump\t// out\n        /* \"#utility.yul\":25362:25728   */\n    tag_226:\n        /* \"#utility.yul\":25504:25507   */\n      0x00\n        /* \"#utility.yul\":25525:25592   */\n      tag_474\n        /* \"#utility.yul\":25589:25591   */\n      0x0d\n        /* \"#utility.yul\":25584:25587   */\n      dup4\n        /* \"#utility.yul\":25525:25592   */\n      tag_168\n      jump\t// in\n    tag_474:\n        /* \"#utility.yul\":25518:25592   */\n      swap2\n      pop\n        /* \"#utility.yul\":25601:25694   */\n      tag_475\n        /* \"#utility.yul\":25690:25693   */\n      dup3\n        /* \"#utility.yul\":25601:25694   */\n      tag_225\n      jump\t// in\n    tag_475:\n        /* \"#utility.yul\":25719:25721   */\n      0x20\n        /* \"#utility.yul\":25714:25717   */\n      dup3\n        /* \"#utility.yul\":25710:25722   */\n      add\n        /* \"#utility.yul\":25703:25722   */\n      swap1\n      pop\n        /* \"#utility.yul\":25362:25728   */\n      swap2\n      swap1\n      pop\n      jump\t// out\n        /* \"#utility.yul\":25734:26153   */\n    tag_140:\n        /* \"#utility.yul\":25900:25904   */\n      0x00\n        /* \"#utility.yul\":25938:25940   */\n      0x20\n        /* \"#utility.yul\":25927:25936   */\n      dup3\n        /* \"#utility.yul\":25923:25941   */\n      add\n        /* \"#utility.yul\":25915:25941   */\n      swap1\n      pop\n        /* \"#utility.yul\":25987:25996   */\n      dup2\n        /* \"#utility.yul\":25981:25985   */\n      dup2\n        /* \"#utility.yul\":25977:25997   */\n      sub\n        /* \"#utility.yul\":25973:25974   */\n      0x00\n        /* \"#utility.yul\":25962:25971   */\n      dup4\n        /* \"#utility.yul\":25958:25975   */\n      add\n        /* \"#utility.yul\":25951:25998   */\n      mstore\n        /* \"#utility.yul\":26015:26146   */\n      tag_477\n        /* \"#utility.yul\":26141:26145   */\n      dup2\n        /* \"#utility.yul\":26015:26146   */\n      tag_226\n      jump\t// in\n    tag_477:\n        /* \"#utility.yul\":26007:26146   */\n      swap1\n      pop\n        /* \"#utility.yul\":25734:26153   */\n      swap2\n      swap1\n      pop\n      jump\t// out\n        /* \"#utility.yul\":26159:26323   */\n    tag_227:\n        /* \"#utility.yul\":26299:26315   */\n      0x496e76616c69642063686f696365000000000000000000000000000000000000\n        /* \"#utility.yul\":26295:26296   */\n      0x00\n        /* \"#utility.yul\":26287:26293   */\n      dup3\n        /* \"#utility.yul\":26283:26297   */\n      add\n        /* \"#utility.yul\":26276:26316   */\n      mstore\n        /* \"#utility.yul\":26159:26323   */\n      pop\n      jump\t// out\n        /* \"#utility.yul\":26329:26695   */\n    tag_228:\n        /* \"#utility.yul\":26471:26474   */\n      0x00\n        /* \"#utility.yul\":26492:26559   */\n      tag_480\n        /* \"#utility.yul\":26556:26558   */\n      0x0e\n        /* \"#utility.yul\":26551:26554   */\n      dup4\n        /* \"#utility.yul\":26492:26559   */\n      tag_168\n      jump\t// in\n    tag_480:\n        /* \"#utility.yul\":26485:26559   */\n      swap2\n      pop\n        /* \"#utility.yul\":26568:26661   */\n      tag_481\n        /* \"#utility.yul\":26657:26660   */\n      dup3\n        /* \"#utility.yul\":26568:26661   */\n      tag_227\n      jump\t// in\n    tag_481:\n        /* \"#utility.yul\":26686:26688   */\n      0x20\n        /* \"#utility.yul\":26681:26684   */\n      dup3\n        /* \"#utility.yul\":26677:26689   */\n      add\n        /* \"#utility.yul\":26670:26689   */\n      swap1\n      pop\n        /* \"#utility.yul\":26329:26695   */\n      swap2\n      swap1\n      pop\n      jump\t// out\n        /* \"#utility.yul\":26701:27120   */\n    tag_144:\n        /* \"#utility.yul\":26867:26871   */\n      0x00\n        /* \"#utility.yul\":26905:26907   */\n      0x20\n        /* \"#utility.yul\":26894:26903   */\n      dup3\n        /* \"#utility.yul\":26890:26908   */\n      add\n        /* \"#utility.yul\":26882:26908   */\n      swap1\n      pop\n        /* \"#utility.yul\":26954:26963   */\n      dup2\n        /* \"#utility.yul\":26948:26952   */\n      dup2\n        /* \"#utility.yul\":26944:26964   */\n      sub\n        /* \"#utility.yul\":26940:26941   */\n      0x00\n        /* \"#utility.yul\":26929:26938   */\n      dup4\n        /* \"#utility.yul\":26925:26942   */\n      add\n        /* \"#utility.yul\":26918:26965   */\n      mstore\n        /* \"#utility.yul\":26982:27113   */\n      tag_483\n        /* \"#utility.yul\":27108:27112   */\n      dup2\n        /* \"#utility.yul\":26982:27113   */\n      tag_228\n      jump\t// in\n    tag_483:\n        /* \"#utility.yul\":26974:27113   */\n      swap1\n      pop\n        /* \"#utility.yul\":26701:27120   */\n      swap2\n      swap1\n      pop\n      jump\t// out\n        /* \"#utility.yul\":27126:27294   */\n    tag_229:\n        /* \"#utility.yul\":27266:27286   */\n      0x566f74696e6720706572696f64206f7665720000000000000000000000000000\n        /* \"#utility.yul\":27262:27263   */\n      0x00\n        /* \"#utility.yul\":27254:27260   */\n      dup3\n        /* \"#utility.yul\":27250:27264   */\n      add\n        /* \"#utility.yul\":27243:27287   */\n      mstore\n        /* \"#utility.yul\":27126:27294   */\n      pop\n      jump\t// out\n        /* \"#utility.yul\":27300:27666   */\n    tag_230:\n        /* \"#utility.yul\":27442:27445   */\n      0x00\n        /* \"#utility.yul\":27463:27530   */\n      tag_486\n        /* \"#utility.yul\":27527:27529   */\n      0x12\n        /* \"#utility.yul\":27522:27525   */\n      dup4\n        /* \"#utility.yul\":27463:27530   */\n      tag_168\n      jump\t// in\n    tag_486:\n        /* \"#utility.yul\":27456:27530   */\n      swap2\n      pop\n        /* \"#utility.yul\":27539:27632   */\n      tag_487\n        /* \"#utility.yul\":27628:27631   */\n      dup3\n        /* \"#utility.yul\":27539:27632   */\n      tag_229\n      jump\t// in\n    tag_487:\n        /* \"#utility.yul\":27657:27659   */\n      0x20\n        /* \"#utility.yul\":27652:27655   */\n      dup3\n        /* \"#utility.yul\":27648:27660   */\n      add\n        /* \"#utility.yul\":27641:27660   */\n      swap1\n      pop\n        /* \"#utility.yul\":27300:27666   */\n      swap2\n      swap1\n      pop\n      jump\t// out\n        /* \"#utility.yul\":27672:28091   */\n    tag_148:\n        /* \"#utility.yul\":27838:27842   */\n      0x00\n        /* \"#utility.yul\":27876:27878   */\n      0x20\n        /* \"#utility.yul\":27865:27874   */\n      dup3\n        /* \"#utility.yul\":27861:27879   */\n      add\n        /* \"#utility.yul\":27853:27879   */\n      swap1\n      pop\n        /* \"#utility.yul\":27925:27934   */\n      dup2\n        /* \"#utility.yul\":27919:27923   */\n      dup2\n        /* \"#utility.yul\":27915:27935   */\n      sub\n        /* \"#utility.yul\":27911:27912   */\n      0x00\n        /* \"#utility.yul\":27900:27909   */\n      dup4\n        /* \"#utility.yul\":27896:27913   */\n      add\n        /* \"#utility.yul\":27889:27936   */\n      mstore\n        /* \"#utility.yul\":27953:28084   */\n      tag_489\n        /* \"#utility.yul\":28079:28083   */\n      dup2\n        /* \"#utility.yul\":27953:28084   */\n      tag_230\n      jump\t// in\n    tag_489:\n        /* \"#utility.yul\":27945:28084   */\n      swap1\n      pop\n        /* \"#utility.yul\":27672:28091   */\n      swap2\n      swap1\n      pop\n      jump\t// out\n        /* \"#utility.yul\":28097:28209   */\n    tag_231:\n        /* \"#utility.yul\":28180:28202   */\n      tag_491\n        /* \"#utility.yul\":28196:28201   */\n      dup2\n        /* \"#utility.yul\":28180:28202   */\n      tag_188\n      jump\t// in\n    tag_491:\n        /* \"#utility.yul\":28175:28178   */\n      dup3\n        /* \"#utility.yul\":28168:28203   */\n      mstore\n        /* \"#utility.yul\":28097:28209   */\n      pop\n      pop\n      jump\t// out\n        /* \"#utility.yul\":28215:28429   */\n    tag_154:\n        /* \"#utility.yul\":28304:28308   */\n      0x00\n        /* \"#utility.yul\":28342:28344   */\n      0x20\n        /* \"#utility.yul\":28331:28340   */\n      dup3\n        /* \"#utility.yul\":28327:28345   */\n      add\n        /* \"#utility.yul\":28319:28345   */\n      swap1\n      pop\n        /* \"#utility.yul\":28355:28422   */\n      tag_493\n        /* \"#utility.yul\":28419:28420   */\n      0x00\n        /* \"#utility.yul\":28408:28417   */\n      dup4\n        /* \"#utility.yul\":28404:28421   */\n      add\n        /* \"#utility.yul\":28395:28401   */\n      dup5\n        /* \"#utility.yul\":28355:28422   */\n      tag_231\n      jump\t// in\n    tag_493:\n        /* \"#utility.yul\":28215:28429   */\n      swap3\n      swap2\n      pop\n      pop\n      jump\t// out\n\n    auxdata: 0xa26469706673582212203c582cce9244e9e37a0fdefc25c111625fbf16f0979069730328e7eb6d49401764736f6c634300081c0033\n}\n",
				"bytecode": {
					"linkReferences": {},
					"object": "6080604052348015600e575f5ffd5b503360035f6101000a81548173ffffffffffffffffffffffffffffffffffffffff021916908373ffffffffffffffffffffffffffffffffffffffff160217905550611a868061005c5f395ff3fe60806040526004361061009f575f3560e01c80637ef4aa7b116100635780637ef4aa7b1461019957806386f3c603146101c35780638da5cb5b146101ff578063943e821614610229578063b1610d7e14610245578063e00b63631461026f576100a0565b80634157e6ef146100a257806343859632146100ca578063476343ee14610106578063606d2e961461011c5780636dd0ce7a1461015d576100a0565b5b005b3480156100ad575f5ffd5b506100c860048036038101906100c39190610ce3565b610299565b005b3480156100d5575f5ffd5b506100f060048036038101906100eb9190610d68565b610329565b6040516100fd9190610dc0565b60405180910390f35b348015610111575f5ffd5b5061011a610353565b005b348015610127575f5ffd5b50610142600480360381019061013d9190610ce3565b6104f5565b60405161015496959493929190610e58565b60405180910390f35b348015610168575f5ffd5b50610183600480360381019061017e9190610ce3565b610644565b6040516101909190610fb8565b60405180910390f35b3480156101a4575f5ffd5b506101ad6107c5565b6040516101ba9190610fd8565b60405180910390f35b3480156101ce575f5ffd5b506101e960048036038101906101e4919061111d565b6107cf565b6040516101f69190610fd8565b60405180910390f35b34801561020a575f5ffd5b506102136108da565b60405161022091906111a2565b60405180910390f35b610243600480360381019061023e91906111f1565b6108ff565b005b348015610250575f5ffd5b50610259610c5e565b6040516102669190610fd8565b60405180910390f35b34801561027a575f5ffd5b50610283610c65565b6040516102909190610fd8565b60405180910390f35b62093a805f5f8381526020019081526020015f20600501546102bb919061125c565b42116102fc576040517f08c379a00000000000000000000000000000000000000000000000000000000081526004016102f3906112d9565b60405180910390fd5b5f5f5f8381526020019081526020015f206004015f6101000a81548160ff02191690831515021790555050565b6001602052815f5260405f20602052805f5260405f205f915091509054906101000a900460ff1681565b60035f9054906101000a900473ffffffffffffffffffffffffffffffffffffffff1673ffffffffffffffffffffffffffffffffffffffff163373ffffffffffffffffffffffffffffffffffffffff16146103e2576040517f08c379a00000000000000000000000000000000000000000000000000000000081526004016103d990611341565b60405180910390fd5b5f4790505f8111610428576040517f08c379a000000000000000000000000000000000000000000000000000000000815260040161041f906113a9565b60405180910390fd5b5f60035f9054906101000a900473ffffffffffffffffffffffffffffffffffffffff1673ffffffffffffffffffffffffffffffffffffffff168260405161046e906113f4565b5f6040518083038185875af1925050503d805f81146104a8576040519150601f19603f3d011682016040523d82523d5f602084013e6104ad565b606091505b50509050806104f1576040517f08c379a00000000000000000000000000000000000000000000000000000000081526004016104e890611452565b60405180910390fd5b5050565b5f602052805f5260405f205f91509050805f0180546105139061149d565b80601f016020809104026020016040519081016040528092919081815260200182805461053f9061149d565b801561058a5780601f106105615761010080835404028352916020019161058a565b820191905f5260205f20905b81548152906001019060200180831161056d57829003601f168201915b50505050509080600101805461059f9061149d565b80601f01602080910402602001604051908101604052809291908181526020018280546105cb9061149d565b80156106165780601f106105ed57610100808354040283529160200191610616565b820191905f5260205f20905b8154815290600101906020018083116105f957829003601f168201915b505050505090806002015490806003015490806004015f9054906101000a900460ff16908060050154905086565b61064c610c6b565b5f5f8381526020019081526020015f206040518060c00160405290815f820180546106769061149d565b80601f01602080910402602001604051908101604052809291908181526020018280546106a29061149d565b80156106ed5780601f106106c4576101008083540402835291602001916106ed565b820191905f5260205f20905b8154815290600101906020018083116106d057829003601f168201915b505050505081526020016001820180546107069061149d565b80601f01602080910402602001604051908101604052809291908181526020018280546107329061149d565b801561077d5780601f106107545761010080835404028352916020019161077d565b820191905f5260205f20905b81548152906001019060200180831161076057829003601f168201915b505050505081526020016002820154815260200160038201548152602001600482015f9054906101000a900460ff161515151581526020016005820154815250509050919050565b6512309ce5400081565b5f60025f8154809291906107e2906114cd565b91905055506040518060c001604052808481526020018381526020015f81526020015f8152602001600115158152602001428152505f5f60025481526020019081526020015f205f820151815f01908161083c91906116b4565b50602082015181600101908161085291906116b4565b5060408201518160020155606082015181600301556080820151816004015f6101000a81548160ff02191690831515021790555060a082015181600501559050506002547f993302b004445be4887eaa46f6e83bf3dfb94f0fa8a144f76841f9a5dd51a18384846040516108c7929190611783565b60405180910390a2600254905092915050565b60035f9054906101000a900473ffffffffffffffffffffffffffffffffffffffff1681565b6512309ce540003414610947576040517f08c379a000000000000000000000000000000000000000000000000000000000815260040161093e90611802565b60405180910390fd5b600254821115801561095857505f82115b610997576040517f08c379a000000000000000000000000000000000000000000000000000000000815260040161098e9061186a565b60405180910390fd5b5f5f8381526020019081526020015f206004015f9054906101000a900460ff166109f6576040517f08c379a00000000000000000000000000000000000000000000000000000000081526004016109ed906118d2565b60405180910390fd5b60015f8381526020019081526020015f205f3373ffffffffffffffffffffffffffffffffffffffff1673ffffffffffffffffffffffffffffffffffffffff1681526020019081526020015f205f9054906101000a900460ff1615610a8f576040517f08c379a0000000000000000000000000000000000000000000000000000000008152600401610a869061193a565b60405180910390fd5b60018160ff161480610aa4575060028160ff16145b610ae3576040517f08c379a0000000000000000000000000000000000000000000000000000000008152600401610ada906119a2565b60405180910390fd5b62093a805f5f8481526020019081526020015f2060050154610b05919061125c565b421115610b47576040517f08c379a0000000000000000000000000000000000000000000000000000000008152600401610b3e90611a0a565b60405180910390fd5b6001805f8481526020019081526020015f205f3373ffffffffffffffffffffffffffffffffffffffff1673ffffffffffffffffffffffffffffffffffffffff1681526020019081526020015f205f6101000a81548160ff02191690831515021790555060018160ff1603610be2575f5f8381526020019081526020015f206002015f815480929190610bd8906114cd565b9190505550610c0b565b5f5f8381526020019081526020015f206003015f815480929190610c05906114cd565b91905055505b3373ffffffffffffffffffffffffffffffffffffffff16827feba4866100b822f0f391e610e7edfab790b9e8766c0012733c26b2f1858e8dd783604051610c529190611a37565b60405180910390a35050565b62093a8081565b60025481565b6040518060c0016040528060608152602001606081526020015f81526020015f81526020015f151581526020015f81525090565b5f604051905090565b5f5ffd5b5f5ffd5b5f819050919050565b610cc281610cb0565b8114610ccc575f5ffd5b50565b5f81359050610cdd81610cb9565b92915050565b5f60208284031215610cf857610cf7610ca8565b5b5f610d0584828501610ccf565b91505092915050565b5f73ffffffffffffffffffffffffffffffffffffffff82169050919050565b5f610d3782610d0e565b9050919050565b610d4781610d2d565b8114610d51575f5ffd5b50565b5f81359050610d6281610d3e565b92915050565b5f5f60408385031215610d7e57610d7d610ca8565b5b5f610d8b85828601610ccf565b9250506020610d9c85828601610d54565b9150509250929050565b5f8115159050919050565b610dba81610da6565b82525050565b5f602082019050610dd35f830184610db1565b92915050565b5f81519050919050565b5f82825260208201905092915050565b8281835e5f83830152505050565b5f601f19601f8301169050919050565b5f610e1b82610dd9565b610e258185610de3565b9350610e35818560208601610df3565b610e3e81610e01565b840191505092915050565b610e5281610cb0565b82525050565b5f60c0820190508181035f830152610e708189610e11565b90508181036020830152610e848188610e11565b9050610e936040830187610e49565b610ea06060830186610e49565b610ead6080830185610db1565b610eba60a0830184610e49565b979650505050505050565b5f82825260208201905092915050565b5f610edf82610dd9565b610ee98185610ec5565b9350610ef9818560208601610df3565b610f0281610e01565b840191505092915050565b610f1681610cb0565b82525050565b610f2581610da6565b82525050565b5f60c083015f8301518482035f860152610f458282610ed5565b91505060208301518482036020860152610f5f8282610ed5565b9150506040830151610f746040860182610f0d565b506060830151610f876060860182610f0d565b506080830151610f9a6080860182610f1c565b5060a0830151610fad60a0860182610f0d565b508091505092915050565b5f6020820190508181035f830152610fd08184610f2b565b905092915050565b5f602082019050610feb5f830184610e49565b92915050565b5f5ffd5b5f5ffd5b7f4e487b71000000000000000000000000000000000000000000000000000000005f52604160045260245ffd5b61102f82610e01565b810181811067ffffffffffffffff8211171561104e5761104d610ff9565b5b80604052505050565b5f611060610c9f565b905061106c8282611026565b919050565b5f67ffffffffffffffff82111561108b5761108a610ff9565b5b61109482610e01565b9050602081019050919050565b828183375f83830152505050565b5f6110c16110bc84611071565b611057565b9050828152602081018484840111156110dd576110dc610ff5565b5b6110e88482856110a1565b509392505050565b5f82601f83011261110457611103610ff1565b5b81356111148482602086016110af565b91505092915050565b5f5f6040838503121561113357611132610ca8565b5b5f83013567ffffffffffffffff8111156111505761114f610cac565b5b61115c858286016110f0565b925050602083013567ffffffffffffffff81111561117d5761117c610cac565b5b611189858286016110f0565b9150509250929050565b61119c81610d2d565b82525050565b5f6020820190506111b55f830184611193565b92915050565b5f60ff82169050919050565b6111d0816111bb565b81146111da575f5ffd5b50565b5f813590506111eb816111c7565b92915050565b5f5f6040838503121561120757611206610ca8565b5b5f61121485828601610ccf565b9250506020611225858286016111dd565b9150509250929050565b7f4e487b71000000000000000000000000000000000000000000000000000000005f52601160045260245ffd5b5f61126682610cb0565b915061127183610cb0565b92508282019050808211156112895761128861122f565b5b92915050565b7f566f74696e67207374696c6c20616374697665000000000000000000000000005f82015250565b5f6112c3601383610de3565b91506112ce8261128f565b602082019050919050565b5f6020820190508181035f8301526112f0816112b7565b9050919050565b7f4e6f74206f776e657200000000000000000000000000000000000000000000005f82015250565b5f61132b600983610de3565b9150611336826112f7565b602082019050919050565b5f6020820190508181035f8301526113588161131f565b9050919050565b7f4e6f206665657320746f207769746864726177000000000000000000000000005f82015250565b5f611393601383610de3565b915061139e8261135f565b602082019050919050565b5f6020820190508181035f8301526113c081611387565b9050919050565b5f81905092915050565b50565b5f6113df5f836113c7565b91506113ea826113d1565b5f82019050919050565b5f6113fe826113d4565b9150819050919050565b7f5472616e73666572206661696c656400000000000000000000000000000000005f82015250565b5f61143c600f83610de3565b915061144782611408565b602082019050919050565b5f6020820190508181035f83015261146981611430565b9050919050565b7f4e487b71000000000000000000000000000000000000000000000000000000005f52602260045260245ffd5b5f60028204905060018216806114b457607f821691505b6020821081036114c7576114c6611470565b5b50919050565b5f6114d782610cb0565b91507fffffffffffffffffffffffffffffffffffffffffffffffffffffffffffffffff82036115095761150861122f565b5b600182019050919050565b5f819050815f5260205f209050919050565b5f6020601f8301049050919050565b5f82821b905092915050565b5f600883026115707fffffffffffffffffffffffffffffffffffffffffffffffffffffffffffffffff82611535565b61157a8683611535565b95508019841693508086168417925050509392505050565b5f819050919050565b5f6115b56115b06115ab84610cb0565b611592565b610cb0565b9050919050565b5f819050919050565b6115ce8361159b565b6115e26115da826115bc565b848454611541565b825550505050565b5f5f905090565b6115f96115ea565b6116048184846115c5565b505050565b5b818110156116275761161c5f826115f1565b60018101905061160a565b5050565b601f82111561166c5761163d81611514565b61164684611526565b81016020851015611655578190505b61166961166185611526565b830182611609565b50505b505050565b5f82821c905092915050565b5f61168c5f1984600802611671565b1980831691505092915050565b5f6116a4838361167d565b9150826002028217905092915050565b6116bd82610dd9565b67ffffffffffffffff8111156116d6576116d5610ff9565b5b6116e0825461149d565b6116eb82828561162b565b5f60209050601f83116001811461171c575f841561170a578287015190505b6117148582611699565b86555061177b565b601f19841661172a86611514565b5f5b828110156117515784890151825560018201915060208501945060208101905061172c565b8683101561176e578489015161176a601f89168261167d565b8355505b6001600288020188555050505b505050505050565b5f6040820190508181035f83015261179b8185610e11565b905081810360208301526117af8184610e11565b90509392505050565b7f45786163742066656520726571756972656400000000000000000000000000005f82015250565b5f6117ec601283610de3565b91506117f7826117b8565b602082019050919050565b5f6020820190508181035f830152611819816117e0565b9050919050565b7f496e76616c696420626174746c652049440000000000000000000000000000005f82015250565b5f611854601183610de3565b915061185f82611820565b602082019050919050565b5f6020820190508181035f83015261188181611848565b9050919050565b7f426174746c6520696e61637469766500000000000000000000000000000000005f82015250565b5f6118bc600f83610de3565b91506118c782611888565b602082019050919050565b5f6020820190508181035f8301526118e9816118b0565b9050919050565b7f416c726561647920766f746564000000000000000000000000000000000000005f82015250565b5f611924600d83610de3565b915061192f826118f0565b602082019050919050565b5f6020820190508181035f83015261195181611918565b9050919050565b7f496e76616c69642063686f6963650000000000000000000000000000000000005f82015250565b5f61198c600e83610de3565b915061199782611958565b602082019050919050565b5f6020820190508181035f8301526119b981611980565b9050919050565b7f566f74696e6720706572696f64206f76657200000000000000000000000000005f82015250565b5f6119f4601283610de3565b91506119ff826119c0565b602082019050919050565b5f6020820190508181035f830152611a21816119e8565b9050919050565b611a31816111bb565b82525050565b5f602082019050611a4a5f830184611a28565b9291505056fea26469706673582212203c582cce9244e9e37a0fdefc25c111625fbf16f0979069730328e7eb6d49401764736f6c634300081c0033",
					"opcodes": "PUSH1 0x80 PUSH1 0x40 MSTORE CALLVALUE DUP1 ISZERO PUSH1 0xE JUMPI PUSH0 PUSH0 REVERT JUMPDEST POP CALLER PUSH1 0x3 PUSH0 PUSH2 0x100 EXP DUP2 SLOAD DUP2 PUSH20 0xFFFFFFFFFFFFFFFFFFFFFFFFFFFFFFFFFFFFFFFF MUL NOT AND SWAP1 DUP4 PUSH20 0xFFFFFFFFFFFFFFFFFFFFFFFFFFFFFFFFFFFFFFFF AND MUL OR SWAP1 SSTORE POP PUSH2 0x1A86 DUP1 PUSH2 0x5C PUSH0 CODECOPY PUSH0 RETURN INVALID PUSH1 0x80 PUSH1 0x40 MSTORE PUSH1 0x4 CALLDATASIZE LT PUSH2 0x9F JUMPI PUSH0 CALLDATALOAD PUSH1 0xE0 SHR DUP1 PUSH4 0x7EF4AA7B GT PUSH2 0x63 JUMPI DUP1 PUSH4 0x7EF4AA7B EQ PUSH2 0x199 JUMPI DUP1 PUSH4 0x86F3C603 EQ PUSH2 0x1C3 JUMPI DUP1 PUSH4 0x8DA5CB5B EQ PUSH2 0x1FF JUMPI DUP1 PUSH4 0x943E8216 EQ PUSH2 0x229 JUMPI DUP1 PUSH4 0xB1610D7E EQ PUSH2 0x245 JUMPI DUP1 PUSH4 0xE00B6363 EQ PUSH2 0x26F JUMPI PUSH2 0xA0 JUMP JUMPDEST DUP1 PUSH4 0x4157E6EF EQ PUSH2 0xA2 JUMPI DUP1 PUSH4 0x43859632 EQ PUSH2 0xCA JUMPI DUP1 PUSH4 0x476343EE EQ PUSH2 0x106 JUMPI DUP1 PUSH4 0x606D2E96 EQ PUSH2 0x11C JUMPI DUP1 PUSH4 0x6DD0CE7A EQ PUSH2 0x15D JUMPI PUSH2 0xA0 JUMP JUMPDEST JUMPDEST STOP JUMPDEST CALLVALUE DUP1 ISZERO PUSH2 0xAD JUMPI PUSH0 PUSH0 REVERT JUMPDEST POP PUSH2 0xC8 PUSH1 0x4 DUP1 CALLDATASIZE SUB DUP2 ADD SWAP1 PUSH2 0xC3 SWAP2 SWAP1 PUSH2 0xCE3 JUMP JUMPDEST PUSH2 0x299 JUMP JUMPDEST STOP JUMPDEST CALLVALUE DUP1 ISZERO PUSH2 0xD5 JUMPI PUSH0 PUSH0 REVERT JUMPDEST POP PUSH2 0xF0 PUSH1 0x4 DUP1 CALLDATASIZE SUB DUP2 ADD SWAP1 PUSH2 0xEB SWAP2 SWAP1 PUSH2 0xD68 JUMP JUMPDEST PUSH2 0x329 JUMP JUMPDEST PUSH1 0x40 MLOAD PUSH2 0xFD SWAP2 SWAP1 PUSH2 0xDC0 JUMP JUMPDEST PUSH1 0x40 MLOAD DUP1 SWAP2 SUB SWAP1 RETURN JUMPDEST CALLVALUE DUP1 ISZERO PUSH2 0x111 JUMPI PUSH0 PUSH0 REVERT JUMPDEST POP PUSH2 0x11A PUSH2 0x353 JUMP JUMPDEST STOP JUMPDEST CALLVALUE DUP1 ISZERO PUSH2 0x127 JUMPI PUSH0 PUSH0 REVERT JUMPDEST POP PUSH2 0x142 PUSH1 0x4 DUP1 CALLDATASIZE SUB DUP2 ADD SWAP1 PUSH2 0x13D SWAP2 SWAP1 PUSH2 0xCE3 JUMP JUMPDEST PUSH2 0x4F5 JUMP JUMPDEST PUSH1 0x40 MLOAD PUSH2 0x154 SWAP7 SWAP6 SWAP5 SWAP4 SWAP3 SWAP2 SWAP1 PUSH2 0xE58 JUMP JUMPDEST PUSH1 0x40 MLOAD DUP1 SWAP2 SUB SWAP1 RETURN JUMPDEST CALLVALUE DUP1 ISZERO PUSH2 0x168 JUMPI PUSH0 PUSH0 REVERT JUMPDEST POP PUSH2 0x183 PUSH1 0x4 DUP1 CALLDATASIZE SUB DUP2 ADD SWAP1 PUSH2 0x17E SWAP2 SWAP1 PUSH2 0xCE3 JUMP JUMPDEST PUSH2 0x644 JUMP JUMPDEST PUSH1 0x40 MLOAD PUSH2 0x190 SWAP2 SWAP1 PUSH2 0xFB8 JUMP JUMPDEST PUSH1 0x40 MLOAD DUP1 SWAP2 SUB SWAP1 RETURN JUMPDEST CALLVALUE DUP1 ISZERO PUSH2 0x1A4 JUMPI PUSH0 PUSH0 REVERT JUMPDEST POP PUSH2 0x1AD PUSH2 0x7C5 JUMP JUMPDEST PUSH1 0x40 MLOAD PUSH2 0x1BA SWAP2 SWAP1 PUSH2 0xFD8 JUMP JUMPDEST PUSH1 0x40 MLOAD DUP1 SWAP2 SUB SWAP1 RETURN JUMPDEST CALLVALUE DUP1 ISZERO PUSH2 0x1CE JUMPI PUSH0 PUSH0 REVERT JUMPDEST POP PUSH2 0x1E9 PUSH1 0x4 DUP1 CALLDATASIZE SUB DUP2 ADD SWAP1 PUSH2 0x1E4 SWAP2 SWAP1 PUSH2 0x111D JUMP JUMPDEST PUSH2 0x7CF JUMP JUMPDEST PUSH1 0x40 MLOAD PUSH2 0x1F6 SWAP2 SWAP1 PUSH2 0xFD8 JUMP JUMPDEST PUSH1 0x40 MLOAD DUP1 SWAP2 SUB SWAP1 RETURN JUMPDEST CALLVALUE DUP1 ISZERO PUSH2 0x20A JUMPI PUSH0 PUSH0 REVERT JUMPDEST POP PUSH2 0x213 PUSH2 0x8DA JUMP JUMPDEST PUSH1 0x40 MLOAD PUSH2 0x220 SWAP2 SWAP1 PUSH2 0x11A2 JUMP JUMPDEST PUSH1 0x40 MLOAD DUP1 SWAP2 SUB SWAP1 RETURN JUMPDEST PUSH2 0x243 PUSH1 0x4 DUP1 CALLDATASIZE SUB DUP2 ADD SWAP1 PUSH2 0x23E SWAP2 SWAP1 PUSH2 0x11F1 JUMP JUMPDEST PUSH2 0x8FF JUMP JUMPDEST STOP JUMPDEST CALLVALUE DUP1 ISZERO PUSH2 0x250 JUMPI PUSH0 PUSH0 REVERT JUMPDEST POP PUSH2 0x259 PUSH2 0xC5E JUMP JUMPDEST PUSH1 0x40 MLOAD PUSH2 0x266 SWAP2 SWAP1 PUSH2 0xFD8 JUMP JUMPDEST PUSH1 0x40 MLOAD DUP1 SWAP2 SUB SWAP1 RETURN JUMPDEST CALLVALUE DUP1 ISZERO PUSH2 0x27A JUMPI PUSH0 PUSH0 REVERT JUMPDEST POP PUSH2 0x283 PUSH2 0xC65 JUMP JUMPDEST PUSH1 0x40 MLOAD PUSH2 0x290 SWAP2 SWAP1 PUSH2 0xFD8 JUMP JUMPDEST PUSH1 0x40 MLOAD DUP1 SWAP2 SUB SWAP1 RETURN JUMPDEST PUSH3 0x93A80 PUSH0 PUSH0 DUP4 DUP2 MSTORE PUSH1 0x20 ADD SWAP1 DUP2 MSTORE PUSH1 0x20 ADD PUSH0 KECCAK256 PUSH1 0x5 ADD SLOAD PUSH2 0x2BB SWAP2 SWAP1 PUSH2 0x125C JUMP JUMPDEST TIMESTAMP GT PUSH2 0x2FC JUMPI PUSH1 0x40 MLOAD PUSH32 0x8C379A000000000000000000000000000000000000000000000000000000000 DUP2 MSTORE PUSH1 0x4 ADD PUSH2 0x2F3 SWAP1 PUSH2 0x12D9 JUMP JUMPDEST PUSH1 0x40 MLOAD DUP1 SWAP2 SUB SWAP1 REVERT JUMPDEST PUSH0 PUSH0 PUSH0 DUP4 DUP2 MSTORE PUSH1 0x20 ADD SWAP1 DUP2 MSTORE PUSH1 0x20 ADD PUSH0 KECCAK256 PUSH1 0x4 ADD PUSH0 PUSH2 0x100 EXP DUP2 SLOAD DUP2 PUSH1 0xFF MUL NOT AND SWAP1 DUP4 ISZERO ISZERO MUL OR SWAP1 SSTORE POP POP JUMP JUMPDEST PUSH1 0x1 PUSH1 0x20 MSTORE DUP2 PUSH0 MSTORE PUSH1 0x40 PUSH0 KECCAK256 PUSH1 0x20 MSTORE DUP1 PUSH0 MSTORE PUSH1 0x40 PUSH0 KECCAK256 PUSH0 SWAP2 POP SWAP2 POP SWAP1 SLOAD SWAP1 PUSH2 0x100 EXP SWAP1 DIV PUSH1 0xFF AND DUP2 JUMP JUMPDEST PUSH1 0x3 PUSH0 SWAP1 SLOAD SWAP1 PUSH2 0x100 EXP SWAP1 DIV PUSH20 0xFFFFFFFFFFFFFFFFFFFFFFFFFFFFFFFFFFFFFFFF AND PUSH20 0xFFFFFFFFFFFFFFFFFFFFFFFFFFFFFFFFFFFFFFFF AND CALLER PUSH20 0xFFFFFFFFFFFFFFFFFFFFFFFFFFFFFFFFFFFFFFFF AND EQ PUSH2 0x3E2 JUMPI PUSH1 0x40 MLOAD PUSH32 0x8C379A000000000000000000000000000000000000000000000000000000000 DUP2 MSTORE PUSH1 0x4 ADD PUSH2 0x3D9 SWAP1 PUSH2 0x1341 JUMP JUMPDEST PUSH1 0x40 MLOAD DUP1 SWAP2 SUB SWAP1 REVERT JUMPDEST PUSH0 SELFBALANCE SWAP1 POP PUSH0 DUP2 GT PUSH2 0x428 JUMPI PUSH1 0x40 MLOAD PUSH32 0x8C379A000000000000000000000000000000000000000000000000000000000 DUP2 MSTORE PUSH1 0x4 ADD PUSH2 0x41F SWAP1 PUSH2 0x13A9 JUMP JUMPDEST PUSH1 0x40 MLOAD DUP1 SWAP2 SUB SWAP1 REVERT JUMPDEST PUSH0 PUSH1 0x3 PUSH0 SWAP1 SLOAD SWAP1 PUSH2 0x100 EXP SWAP1 DIV PUSH20 0xFFFFFFFFFFFFFFFFFFFFFFFFFFFFFFFFFFFFFFFF AND PUSH20 0xFFFFFFFFFFFFFFFFFFFFFFFFFFFFFFFFFFFFFFFF AND DUP3 PUSH1 0x40 MLOAD PUSH2 0x46E SWAP1 PUSH2 0x13F4 JUMP JUMPDEST PUSH0 PUSH1 0x40 MLOAD DUP1 DUP4 SUB DUP2 DUP6 DUP8 GAS CALL SWAP3 POP POP POP RETURNDATASIZE DUP1 PUSH0 DUP2 EQ PUSH2 0x4A8 JUMPI PUSH1 0x40 MLOAD SWAP2 POP PUSH1 0x1F NOT PUSH1 0x3F RETURNDATASIZE ADD AND DUP3 ADD PUSH1 0x40 MSTORE RETURNDATASIZE DUP3 MSTORE RETURNDATASIZE PUSH0 PUSH1 0x20 DUP5 ADD RETURNDATACOPY PUSH2 0x4AD JUMP JUMPDEST PUSH1 0x60 SWAP2 POP JUMPDEST POP POP SWAP1 POP DUP1 PUSH2 0x4F1 JUMPI PUSH1 0x40 MLOAD PUSH32 0x8C379A000000000000000000000000000000000000000000000000000000000 DUP2 MSTORE PUSH1 0x4 ADD PUSH2 0x4E8 SWAP1 PUSH2 0x1452 JUMP JUMPDEST PUSH1 0x40 MLOAD DUP1 SWAP2 SUB SWAP1 REVERT JUMPDEST POP POP JUMP JUMPDEST PUSH0 PUSH1 0x20 MSTORE DUP1 PUSH0 MSTORE PUSH1 0x40 PUSH0 KECCAK256 PUSH0 SWAP2 POP SWAP1 POP DUP1 PUSH0 ADD DUP1 SLOAD PUSH2 0x513 SWAP1 PUSH2 0x149D JUMP JUMPDEST DUP1 PUSH1 0x1F ADD PUSH1 0x20 DUP1 SWAP2 DIV MUL PUSH1 0x20 ADD PUSH1 0x40 MLOAD SWAP1 DUP2 ADD PUSH1 0x40 MSTORE DUP1 SWAP3 SWAP2 SWAP1 DUP2 DUP2 MSTORE PUSH1 0x20 ADD DUP3 DUP1 SLOAD PUSH2 0x53F SWAP1 PUSH2 0x149D JUMP JUMPDEST DUP1 ISZERO PUSH2 0x58A JUMPI DUP1 PUSH1 0x1F LT PUSH2 0x561 JUMPI PUSH2 0x100 DUP1 DUP4 SLOAD DIV MUL DUP4 MSTORE SWAP2 PUSH1 0x20 ADD SWAP2 PUSH2 0x58A JUMP JUMPDEST DUP3 ADD SWAP2 SWAP1 PUSH0 MSTORE PUSH1 0x20 PUSH0 KECCAK256 SWAP1 JUMPDEST DUP2 SLOAD DUP2 MSTORE SWAP1 PUSH1 0x1 ADD SWAP1 PUSH1 0x20 ADD DUP1 DUP4 GT PUSH2 0x56D JUMPI DUP3 SWAP1 SUB PUSH1 0x1F AND DUP3 ADD SWAP2 JUMPDEST POP POP POP POP POP SWAP1 DUP1 PUSH1 0x1 ADD DUP1 SLOAD PUSH2 0x59F SWAP1 PUSH2 0x149D JUMP JUMPDEST DUP1 PUSH1 0x1F ADD PUSH1 0x20 DUP1 SWAP2 DIV MUL PUSH1 0x20 ADD PUSH1 0x40 MLOAD SWAP1 DUP2 ADD PUSH1 0x40 MSTORE DUP1 SWAP3 SWAP2 SWAP1 DUP2 DUP2 MSTORE PUSH1 0x20 ADD DUP3 DUP1 SLOAD PUSH2 0x5CB SWAP1 PUSH2 0x149D JUMP JUMPDEST DUP1 ISZERO PUSH2 0x616 JUMPI DUP1 PUSH1 0x1F LT PUSH2 0x5ED JUMPI PUSH2 0x100 DUP1 DUP4 SLOAD DIV MUL DUP4 MSTORE SWAP2 PUSH1 0x20 ADD SWAP2 PUSH2 0x616 JUMP JUMPDEST DUP3 ADD SWAP2 SWAP1 PUSH0 MSTORE PUSH1 0x20 PUSH0 KECCAK256 SWAP1 JUMPDEST DUP2 SLOAD DUP2 MSTORE SWAP1 PUSH1 0x1 ADD SWAP1 PUSH1 0x20 ADD DUP1 DUP4 GT PUSH2 0x5F9 JUMPI DUP3 SWAP1 SUB PUSH1 0x1F AND DUP3 ADD SWAP2 JUMPDEST POP POP POP POP POP SWAP1 DUP1 PUSH1 0x2 ADD SLOAD SWAP1 DUP1 PUSH1 0x3 ADD SLOAD SWAP1 DUP1 PUSH1 0x4 ADD PUSH0 SWAP1 SLOAD SWAP1 PUSH2 0x100 EXP SWAP1 DIV PUSH1 0xFF AND SWAP1 DUP1 PUSH1 0x5 ADD SLOAD SWAP1 POP DUP7 JUMP JUMPDEST PUSH2 0x64C PUSH2 0xC6B JUMP JUMPDEST PUSH0 PUSH0 DUP4 DUP2 MSTORE PUSH1 0x20 ADD SWAP1 DUP2 MSTORE PUSH1 0x20 ADD PUSH0 KECCAK256 PUSH1 0x40 MLOAD DUP1 PUSH1 0xC0 ADD PUSH1 0x40 MSTORE SWAP1 DUP2 PUSH0 DUP3 ADD DUP1 SLOAD PUSH2 0x676 SWAP1 PUSH2 0x149D JUMP JUMPDEST DUP1 PUSH1 0x1F ADD PUSH1 0x20 DUP1 SWAP2 DIV MUL PUSH1 0x20 ADD PUSH1 0x40 MLOAD SWAP1 DUP2 ADD PUSH1 0x40 MSTORE DUP1 SWAP3 SWAP2 SWAP1 DUP2 DUP2 MSTORE PUSH1 0x20 ADD DUP3 DUP1 SLOAD PUSH2 0x6A2 SWAP1 PUSH2 0x149D JUMP JUMPDEST DUP1 ISZERO PUSH2 0x6ED JUMPI DUP1 PUSH1 0x1F LT PUSH2 0x6C4 JUMPI PUSH2 0x100 DUP1 DUP4 SLOAD DIV MUL DUP4 MSTORE SWAP2 PUSH1 0x20 ADD SWAP2 PUSH2 0x6ED JUMP JUMPDEST DUP3 ADD SWAP2 SWAP1 PUSH0 MSTORE PUSH1 0x20 PUSH0 KECCAK256 SWAP1 JUMPDEST DUP2 SLOAD DUP2 MSTORE SWAP1 PUSH1 0x1 ADD SWAP1 PUSH1 0x20 ADD DUP1 DUP4 GT PUSH2 0x6D0 JUMPI DUP3 SWAP1 SUB PUSH1 0x1F AND DUP3 ADD SWAP2 JUMPDEST POP POP POP POP POP DUP2 MSTORE PUSH1 0x20 ADD PUSH1 0x1 DUP3 ADD DUP1 SLOAD PUSH2 0x706 SWAP1 PUSH2 0x149D JUMP JUMPDEST DUP1 PUSH1 0x1F ADD PUSH1 0x20 DUP1 SWAP2 DIV MUL PUSH1 0x20 ADD PUSH1 0x40 MLOAD SWAP1 DUP2 ADD PUSH1 0x40 MSTORE DUP1 SWAP3 SWAP2 SWAP1 DUP2 DUP2 MSTORE PUSH1 0x20 ADD DUP3 DUP1 SLOAD PUSH2 0x732 SWAP1 PUSH2 0x149D JUMP JUMPDEST DUP1 ISZERO PUSH2 0x77D JUMPI DUP1 PUSH1 0x1F LT PUSH2 0x754 JUMPI PUSH2 0x100 DUP1 DUP4 SLOAD DIV MUL DUP4 MSTORE SWAP2 PUSH1 0x20 ADD SWAP2 PUSH2 0x77D JUMP JUMPDEST DUP3 ADD SWAP2 SWAP1 PUSH0 MSTORE PUSH1 0x20 PUSH0 KECCAK256 SWAP1 JUMPDEST DUP2 SLOAD DUP2 MSTORE SWAP1 PUSH1 0x1 ADD SWAP1 PUSH1 0x20 ADD DUP1 DUP4 GT PUSH2 0x760 JUMPI DUP3 SWAP1 SUB PUSH1 0x1F AND DUP3 ADD SWAP2 JUMPDEST POP POP POP POP POP DUP2 MSTORE PUSH1 0x20 ADD PUSH1 0x2 DUP3 ADD SLOAD DUP2 MSTORE PUSH1 0x20 ADD PUSH1 0x3 DUP3 ADD SLOAD DUP2 MSTORE PUSH1 0x20 ADD PUSH1 0x4 DUP3 ADD PUSH0 SWAP1 SLOAD SWAP1 PUSH2 0x100 EXP SWAP1 DIV PUSH1 0xFF AND ISZERO ISZERO ISZERO ISZERO DUP2 MSTORE PUSH1 0x20 ADD PUSH1 0x5 DUP3 ADD SLOAD DUP2 MSTORE POP POP SWAP1 POP SWAP2 SWAP1 POP JUMP JUMPDEST PUSH6 0x12309CE54000 DUP2 JUMP JUMPDEST PUSH0 PUSH1 0x2 PUSH0 DUP2 SLOAD DUP1 SWAP3 SWAP2 SWAP1 PUSH2 0x7E2 SWAP1 PUSH2 0x14CD JUMP JUMPDEST SWAP2 SWAP1 POP SSTORE POP PUSH1 0x40 MLOAD DUP1 PUSH1 0xC0 ADD PUSH1 0x40 MSTORE DUP1 DUP5 DUP2 MSTORE PUSH1 0x20 ADD DUP4 DUP2 MSTORE PUSH1 0x20 ADD PUSH0 DUP2 MSTORE PUSH1 0x20 ADD PUSH0 DUP2 MSTORE PUSH1 0x20 ADD PUSH1 0x1 ISZERO ISZERO DUP2 MSTORE PUSH1 0x20 ADD TIMESTAMP DUP2 MSTORE POP PUSH0 PUSH0 PUSH1 0x2 SLOAD DUP2 MSTORE PUSH1 0x20 ADD SWAP1 DUP2 MSTORE PUSH1 0x20 ADD PUSH0 KECCAK256 PUSH0 DUP3 ADD MLOAD DUP2 PUSH0 ADD SWAP1 DUP2 PUSH2 0x83C SWAP2 SWAP1 PUSH2 0x16B4 JUMP JUMPDEST POP PUSH1 0x20 DUP3 ADD MLOAD DUP2 PUSH1 0x1 ADD SWAP1 DUP2 PUSH2 0x852 SWAP2 SWAP1 PUSH2 0x16B4 JUMP JUMPDEST POP PUSH1 0x40 DUP3 ADD MLOAD DUP2 PUSH1 0x2 ADD SSTORE PUSH1 0x60 DUP3 ADD MLOAD DUP2 PUSH1 0x3 ADD SSTORE PUSH1 0x80 DUP3 ADD MLOAD DUP2 PUSH1 0x4 ADD PUSH0 PUSH2 0x100 EXP DUP2 SLOAD DUP2 PUSH1 0xFF MUL NOT AND SWAP1 DUP4 ISZERO ISZERO MUL OR SWAP1 SSTORE POP PUSH1 0xA0 DUP3 ADD MLOAD DUP2 PUSH1 0x5 ADD SSTORE SWAP1 POP POP PUSH1 0x2 SLOAD PUSH32 0x993302B004445BE4887EAA46F6E83BF3DFB94F0FA8A144F76841F9A5DD51A183 DUP5 DUP5 PUSH1 0x40 MLOAD PUSH2 0x8C7 SWAP3 SWAP2 SWAP1 PUSH2 0x1783 JUMP JUMPDEST PUSH1 0x40 MLOAD DUP1 SWAP2 SUB SWAP1 LOG2 PUSH1 0x2 SLOAD SWAP1 POP SWAP3 SWAP2 POP POP JUMP JUMPDEST PUSH1 0x3 PUSH0 SWAP1 SLOAD SWAP1 PUSH2 0x100 EXP SWAP1 DIV PUSH20 0xFFFFFFFFFFFFFFFFFFFFFFFFFFFFFFFFFFFFFFFF AND DUP2 JUMP JUMPDEST PUSH6 0x12309CE54000 CALLVALUE EQ PUSH2 0x947 JUMPI PUSH1 0x40 MLOAD PUSH32 0x8C379A000000000000000000000000000000000000000000000000000000000 DUP2 MSTORE PUSH1 0x4 ADD PUSH2 0x93E SWAP1 PUSH2 0x1802 JUMP JUMPDEST PUSH1 0x40 MLOAD DUP1 SWAP2 SUB SWAP1 REVERT JUMPDEST PUSH1 0x2 SLOAD DUP3 GT ISZERO DUP1 ISZERO PUSH2 0x958 JUMPI POP PUSH0 DUP3 GT JUMPDEST PUSH2 0x997 JUMPI PUSH1 0x40 MLOAD PUSH32 0x8C379A000000000000000000000000000000000000000000000000000000000 DUP2 MSTORE PUSH1 0x4 ADD PUSH2 0x98E SWAP1 PUSH2 0x186A JUMP JUMPDEST PUSH1 0x40 MLOAD DUP1 SWAP2 SUB SWAP1 REVERT JUMPDEST PUSH0 PUSH0 DUP4 DUP2 MSTORE PUSH1 0x20 ADD SWAP1 DUP2 MSTORE PUSH1 0x20 ADD PUSH0 KECCAK256 PUSH1 0x4 ADD PUSH0 SWAP1 SLOAD SWAP1 PUSH2 0x100 EXP SWAP1 DIV PUSH1 0xFF AND PUSH2 0x9F6 JUMPI PUSH1 0x40 MLOAD PUSH32 0x8C379A000000000000000000000000000000000000000000000000000000000 DUP2 MSTORE PUSH1 0x4 ADD PUSH2 0x9ED SWAP1 PUSH2 0x18D2 JUMP JUMPDEST PUSH1 0x40 MLOAD DUP1 SWAP2 SUB SWAP1 REVERT JUMPDEST PUSH1 0x1 PUSH0 DUP4 DUP2 MSTORE PUSH1 0x20 ADD SWAP1 DUP2 MSTORE PUSH1 0x20 ADD PUSH0 KECCAK256 PUSH0 CALLER PUSH20 0xFFFFFFFFFFFFFFFFFFFFFFFFFFFFFFFFFFFFFFFF AND PUSH20 0xFFFFFFFFFFFFFFFFFFFFFFFFFFFFFFFFFFFFFFFF AND DUP2 MSTORE PUSH1 0x20 ADD SWAP1 DUP2 MSTORE PUSH1 0x20 ADD PUSH0 KECCAK256 PUSH0 SWAP1 SLOAD SWAP1 PUSH2 0x100 EXP SWAP1 DIV PUSH1 0xFF AND ISZERO PUSH2 0xA8F JUMPI PUSH1 0x40 MLOAD PUSH32 0x8C379A000000000000000000000000000000000000000000000000000000000 DUP2 MSTORE PUSH1 0x4 ADD PUSH2 0xA86 SWAP1 PUSH2 0x193A JUMP JUMPDEST PUSH1 0x40 MLOAD DUP1 SWAP2 SUB SWAP1 REVERT JUMPDEST PUSH1 0x1 DUP2 PUSH1 0xFF AND EQ DUP1 PUSH2 0xAA4 JUMPI POP PUSH1 0x2 DUP2 PUSH1 0xFF AND EQ JUMPDEST PUSH2 0xAE3 JUMPI PUSH1 0x40 MLOAD PUSH32 0x8C379A000000000000000000000000000000000000000000000000000000000 DUP2 MSTORE PUSH1 0x4 ADD PUSH2 0xADA SWAP1 PUSH2 0x19A2 JUMP JUMPDEST PUSH1 0x40 MLOAD DUP1 SWAP2 SUB SWAP1 REVERT JUMPDEST PUSH3 0x93A80 PUSH0 PUSH0 DUP5 DUP2 MSTORE PUSH1 0x20 ADD SWAP1 DUP2 MSTORE PUSH1 0x20 ADD PUSH0 KECCAK256 PUSH1 0x5 ADD SLOAD PUSH2 0xB05 SWAP2 SWAP1 PUSH2 0x125C JUMP JUMPDEST TIMESTAMP GT ISZERO PUSH2 0xB47 JUMPI PUSH1 0x40 MLOAD PUSH32 0x8C379A000000000000000000000000000000000000000000000000000000000 DUP2 MSTORE PUSH1 0x4 ADD PUSH2 0xB3E SWAP1 PUSH2 0x1A0A JUMP JUMPDEST PUSH1 0x40 MLOAD DUP1 SWAP2 SUB SWAP1 REVERT JUMPDEST PUSH1 0x1 DUP1 PUSH0 DUP5 DUP2 MSTORE PUSH1 0x20 ADD SWAP1 DUP2 MSTORE PUSH1 0x20 ADD PUSH0 KECCAK256 PUSH0 CALLER PUSH20 0xFFFFFFFFFFFFFFFFFFFFFFFFFFFFFFFFFFFFFFFF AND PUSH20 0xFFFFFFFFFFFFFFFFFFFFFFFFFFFFFFFFFFFFFFFF AND DUP2 MSTORE PUSH1 0x20 ADD SWAP1 DUP2 MSTORE PUSH1 0x20 ADD PUSH0 KECCAK256 PUSH0 PUSH2 0x100 EXP DUP2 SLOAD DUP2 PUSH1 0xFF MUL NOT AND SWAP1 DUP4 ISZERO ISZERO MUL OR SWAP1 SSTORE POP PUSH1 0x1 DUP2 PUSH1 0xFF AND SUB PUSH2 0xBE2 JUMPI PUSH0 PUSH0 DUP4 DUP2 MSTORE PUSH1 0x20 ADD SWAP1 DUP2 MSTORE PUSH1 0x20 ADD PUSH0 KECCAK256 PUSH1 0x2 ADD PUSH0 DUP2 SLOAD DUP1 SWAP3 SWAP2 SWAP1 PUSH2 0xBD8 SWAP1 PUSH2 0x14CD JUMP JUMPDEST SWAP2 SWAP1 POP SSTORE POP PUSH2 0xC0B JUMP JUMPDEST PUSH0 PUSH0 DUP4 DUP2 MSTORE PUSH1 0x20 ADD SWAP1 DUP2 MSTORE PUSH1 0x20 ADD PUSH0 KECCAK256 PUSH1 0x3 ADD PUSH0 DUP2 SLOAD DUP1 SWAP3 SWAP2 SWAP1 PUSH2 0xC05 SWAP1 PUSH2 0x14CD JUMP JUMPDEST SWAP2 SWAP1 POP SSTORE POP JUMPDEST CALLER PUSH20 0xFFFFFFFFFFFFFFFFFFFFFFFFFFFFFFFFFFFFFFFF AND DUP3 PUSH32 0xEBA4866100B822F0F391E610E7EDFAB790B9E8766C0012733C26B2F1858E8DD7 DUP4 PUSH1 0x40 MLOAD PUSH2 0xC52 SWAP2 SWAP1 PUSH2 0x1A37 JUMP JUMPDEST PUSH1 0x40 MLOAD DUP1 SWAP2 SUB SWAP1 LOG3 POP POP JUMP JUMPDEST PUSH3 0x93A80 DUP2 JUMP JUMPDEST PUSH1 0x2 SLOAD DUP2 JUMP JUMPDEST PUSH1 0x40 MLOAD DUP1 PUSH1 0xC0 ADD PUSH1 0x40 MSTORE DUP1 PUSH1 0x60 DUP2 MSTORE PUSH1 0x20 ADD PUSH1 0x60 DUP2 MSTORE PUSH1 0x20 ADD PUSH0 DUP2 MSTORE PUSH1 0x20 ADD PUSH0 DUP2 MSTORE PUSH1 0x20 ADD PUSH0 ISZERO ISZERO DUP2 MSTORE PUSH1 0x20 ADD PUSH0 DUP2 MSTORE POP SWAP1 JUMP JUMPDEST PUSH0 PUSH1 0x40 MLOAD SWAP1 POP SWAP1 JUMP JUMPDEST PUSH0 PUSH0 REVERT JUMPDEST PUSH0 PUSH0 REVERT JUMPDEST PUSH0 DUP2 SWAP1 POP SWAP2 SWAP1 POP JUMP JUMPDEST PUSH2 0xCC2 DUP2 PUSH2 0xCB0 JUMP JUMPDEST DUP2 EQ PUSH2 0xCCC JUMPI PUSH0 PUSH0 REVERT JUMPDEST POP JUMP JUMPDEST PUSH0 DUP2 CALLDATALOAD SWAP1 POP PUSH2 0xCDD DUP2 PUSH2 0xCB9 JUMP JUMPDEST SWAP3 SWAP2 POP POP JUMP JUMPDEST PUSH0 PUSH1 0x20 DUP3 DUP5 SUB SLT ISZERO PUSH2 0xCF8 JUMPI PUSH2 0xCF7 PUSH2 0xCA8 JUMP JUMPDEST JUMPDEST PUSH0 PUSH2 0xD05 DUP5 DUP3 DUP6 ADD PUSH2 0xCCF JUMP JUMPDEST SWAP2 POP POP SWAP3 SWAP2 POP POP JUMP JUMPDEST PUSH0 PUSH20 0xFFFFFFFFFFFFFFFFFFFFFFFFFFFFFFFFFFFFFFFF DUP3 AND SWAP1 POP SWAP2 SWAP1 POP JUMP JUMPDEST PUSH0 PUSH2 0xD37 DUP3 PUSH2 0xD0E JUMP JUMPDEST SWAP1 POP SWAP2 SWAP1 POP JUMP JUMPDEST PUSH2 0xD47 DUP2 PUSH2 0xD2D JUMP JUMPDEST DUP2 EQ PUSH2 0xD51 JUMPI PUSH0 PUSH0 REVERT JUMPDEST POP JUMP JUMPDEST PUSH0 DUP2 CALLDATALOAD SWAP1 POP PUSH2 0xD62 DUP2 PUSH2 0xD3E JUMP JUMPDEST SWAP3 SWAP2 POP POP JUMP JUMPDEST PUSH0 PUSH0 PUSH1 0x40 DUP4 DUP6 SUB SLT ISZERO PUSH2 0xD7E JUMPI PUSH2 0xD7D PUSH2 0xCA8 JUMP JUMPDEST JUMPDEST PUSH0 PUSH2 0xD8B DUP6 DUP3 DUP7 ADD PUSH2 0xCCF JUMP JUMPDEST SWAP3 POP POP PUSH1 0x20 PUSH2 0xD9C DUP6 DUP3 DUP7 ADD PUSH2 0xD54 JUMP JUMPDEST SWAP2 POP POP SWAP3 POP SWAP3 SWAP1 POP JUMP JUMPDEST PUSH0 DUP2 ISZERO ISZERO SWAP1 POP SWAP2 SWAP1 POP JUMP JUMPDEST PUSH2 0xDBA DUP2 PUSH2 0xDA6 JUMP JUMPDEST DUP3 MSTORE POP POP JUMP JUMPDEST PUSH0 PUSH1 0x20 DUP3 ADD SWAP1 POP PUSH2 0xDD3 PUSH0 DUP4 ADD DUP5 PUSH2 0xDB1 JUMP JUMPDEST SWAP3 SWAP2 POP POP JUMP JUMPDEST PUSH0 DUP2 MLOAD SWAP1 POP SWAP2 SWAP1 POP JUMP JUMPDEST PUSH0 DUP3 DUP3 MSTORE PUSH1 0x20 DUP3 ADD SWAP1 POP SWAP3 SWAP2 POP POP JUMP JUMPDEST DUP3 DUP2 DUP4 MCOPY PUSH0 DUP4 DUP4 ADD MSTORE POP POP POP JUMP JUMPDEST PUSH0 PUSH1 0x1F NOT PUSH1 0x1F DUP4 ADD AND SWAP1 POP SWAP2 SWAP1 POP JUMP JUMPDEST PUSH0 PUSH2 0xE1B DUP3 PUSH2 0xDD9 JUMP JUMPDEST PUSH2 0xE25 DUP2 DUP6 PUSH2 0xDE3 JUMP JUMPDEST SWAP4 POP PUSH2 0xE35 DUP2 DUP6 PUSH1 0x20 DUP7 ADD PUSH2 0xDF3 JUMP JUMPDEST PUSH2 0xE3E DUP2 PUSH2 0xE01 JUMP JUMPDEST DUP5 ADD SWAP2 POP POP SWAP3 SWAP2 POP POP JUMP JUMPDEST PUSH2 0xE52 DUP2 PUSH2 0xCB0 JUMP JUMPDEST DUP3 MSTORE POP POP JUMP JUMPDEST PUSH0 PUSH1 0xC0 DUP3 ADD SWAP1 POP DUP2 DUP2 SUB PUSH0 DUP4 ADD MSTORE PUSH2 0xE70 DUP2 DUP10 PUSH2 0xE11 JUMP JUMPDEST SWAP1 POP DUP2 DUP2 SUB PUSH1 0x20 DUP4 ADD MSTORE PUSH2 0xE84 DUP2 DUP9 PUSH2 0xE11 JUMP JUMPDEST SWAP1 POP PUSH2 0xE93 PUSH1 0x40 DUP4 ADD DUP8 PUSH2 0xE49 JUMP JUMPDEST PUSH2 0xEA0 PUSH1 0x60 DUP4 ADD DUP7 PUSH2 0xE49 JUMP JUMPDEST PUSH2 0xEAD PUSH1 0x80 DUP4 ADD DUP6 PUSH2 0xDB1 JUMP JUMPDEST PUSH2 0xEBA PUSH1 0xA0 DUP4 ADD DUP5 PUSH2 0xE49 JUMP JUMPDEST SWAP8 SWAP7 POP POP POP POP POP POP POP JUMP JUMPDEST PUSH0 DUP3 DUP3 MSTORE PUSH1 0x20 DUP3 ADD SWAP1 POP SWAP3 SWAP2 POP POP JUMP JUMPDEST PUSH0 PUSH2 0xEDF DUP3 PUSH2 0xDD9 JUMP JUMPDEST PUSH2 0xEE9 DUP2 DUP6 PUSH2 0xEC5 JUMP JUMPDEST SWAP4 POP PUSH2 0xEF9 DUP2 DUP6 PUSH1 0x20 DUP7 ADD PUSH2 0xDF3 JUMP JUMPDEST PUSH2 0xF02 DUP2 PUSH2 0xE01 JUMP JUMPDEST DUP5 ADD SWAP2 POP POP SWAP3 SWAP2 POP POP JUMP JUMPDEST PUSH2 0xF16 DUP2 PUSH2 0xCB0 JUMP JUMPDEST DUP3 MSTORE POP POP JUMP JUMPDEST PUSH2 0xF25 DUP2 PUSH2 0xDA6 JUMP JUMPDEST DUP3 MSTORE POP POP JUMP JUMPDEST PUSH0 PUSH1 0xC0 DUP4 ADD PUSH0 DUP4 ADD MLOAD DUP5 DUP3 SUB PUSH0 DUP7 ADD MSTORE PUSH2 0xF45 DUP3 DUP3 PUSH2 0xED5 JUMP JUMPDEST SWAP2 POP POP PUSH1 0x20 DUP4 ADD MLOAD DUP5 DUP3 SUB PUSH1 0x20 DUP7 ADD MSTORE PUSH2 0xF5F DUP3 DUP3 PUSH2 0xED5 JUMP JUMPDEST SWAP2 POP POP PUSH1 0x40 DUP4 ADD MLOAD PUSH2 0xF74 PUSH1 0x40 DUP7 ADD DUP3 PUSH2 0xF0D JUMP JUMPDEST POP PUSH1 0x60 DUP4 ADD MLOAD PUSH2 0xF87 PUSH1 0x60 DUP7 ADD DUP3 PUSH2 0xF0D JUMP JUMPDEST POP PUSH1 0x80 DUP4 ADD MLOAD PUSH2 0xF9A PUSH1 0x80 DUP7 ADD DUP3 PUSH2 0xF1C JUMP JUMPDEST POP PUSH1 0xA0 DUP4 ADD MLOAD PUSH2 0xFAD PUSH1 0xA0 DUP7 ADD DUP3 PUSH2 0xF0D JUMP JUMPDEST POP DUP1 SWAP2 POP POP SWAP3 SWAP2 POP POP JUMP JUMPDEST PUSH0 PUSH1 0x20 DUP3 ADD SWAP1 POP DUP2 DUP2 SUB PUSH0 DUP4 ADD MSTORE PUSH2 0xFD0 DUP2 DUP5 PUSH2 0xF2B JUMP JUMPDEST SWAP1 POP SWAP3 SWAP2 POP POP JUMP JUMPDEST PUSH0 PUSH1 0x20 DUP3 ADD SWAP1 POP PUSH2 0xFEB PUSH0 DUP4 ADD DUP5 PUSH2 0xE49 JUMP JUMPDEST SWAP3 SWAP2 POP POP JUMP JUMPDEST PUSH0 PUSH0 REVERT JUMPDEST PUSH0 PUSH0 REVERT JUMPDEST PUSH32 0x4E487B7100000000000000000000000000000000000000000000000000000000 PUSH0 MSTORE PUSH1 0x41 PUSH1 0x4 MSTORE PUSH1 0x24 PUSH0 REVERT JUMPDEST PUSH2 0x102F DUP3 PUSH2 0xE01 JUMP JUMPDEST DUP2 ADD DUP2 DUP2 LT PUSH8 0xFFFFFFFFFFFFFFFF DUP3 GT OR ISZERO PUSH2 0x104E JUMPI PUSH2 0x104D PUSH2 0xFF9 JUMP JUMPDEST JUMPDEST DUP1 PUSH1 0x40 MSTORE POP POP POP JUMP JUMPDEST PUSH0 PUSH2 0x1060 PUSH2 0xC9F JUMP JUMPDEST SWAP1 POP PUSH2 0x106C DUP3 DUP3 PUSH2 0x1026 JUMP JUMPDEST SWAP2 SWAP1 POP JUMP JUMPDEST PUSH0 PUSH8 0xFFFFFFFFFFFFFFFF DUP3 GT ISZERO PUSH2 0x108B JUMPI PUSH2 0x108A PUSH2 0xFF9 JUMP JUMPDEST JUMPDEST PUSH2 0x1094 DUP3 PUSH2 0xE01 JUMP JUMPDEST SWAP1 POP PUSH1 0x20 DUP2 ADD SWAP1 POP SWAP2 SWAP1 POP JUMP JUMPDEST DUP3 DUP2 DUP4 CALLDATACOPY PUSH0 DUP4 DUP4 ADD MSTORE POP POP POP JUMP JUMPDEST PUSH0 PUSH2 0x10C1 PUSH2 0x10BC DUP5 PUSH2 0x1071 JUMP JUMPDEST PUSH2 0x1057 JUMP JUMPDEST SWAP1 POP DUP3 DUP2 MSTORE PUSH1 0x20 DUP2 ADD DUP5 DUP5 DUP5 ADD GT ISZERO PUSH2 0x10DD JUMPI PUSH2 0x10DC PUSH2 0xFF5 JUMP JUMPDEST JUMPDEST PUSH2 0x10E8 DUP5 DUP3 DUP6 PUSH2 0x10A1 JUMP JUMPDEST POP SWAP4 SWAP3 POP POP POP JUMP JUMPDEST PUSH0 DUP3 PUSH1 0x1F DUP4 ADD SLT PUSH2 0x1104 JUMPI PUSH2 0x1103 PUSH2 0xFF1 JUMP JUMPDEST JUMPDEST DUP2 CALLDATALOAD PUSH2 0x1114 DUP5 DUP3 PUSH1 0x20 DUP7 ADD PUSH2 0x10AF JUMP JUMPDEST SWAP2 POP POP SWAP3 SWAP2 POP POP JUMP JUMPDEST PUSH0 PUSH0 PUSH1 0x40 DUP4 DUP6 SUB SLT ISZERO PUSH2 0x1133 JUMPI PUSH2 0x1132 PUSH2 0xCA8 JUMP JUMPDEST JUMPDEST PUSH0 DUP4 ADD CALLDATALOAD PUSH8 0xFFFFFFFFFFFFFFFF DUP2 GT ISZERO PUSH2 0x1150 JUMPI PUSH2 0x114F PUSH2 0xCAC JUMP JUMPDEST JUMPDEST PUSH2 0x115C DUP6 DUP3 DUP7 ADD PUSH2 0x10F0 JUMP JUMPDEST SWAP3 POP POP PUSH1 0x20 DUP4 ADD CALLDATALOAD PUSH8 0xFFFFFFFFFFFFFFFF DUP2 GT ISZERO PUSH2 0x117D JUMPI PUSH2 0x117C PUSH2 0xCAC JUMP JUMPDEST JUMPDEST PUSH2 0x1189 DUP6 DUP3 DUP7 ADD PUSH2 0x10F0 JUMP JUMPDEST SWAP2 POP POP SWAP3 POP SWAP3 SWAP1 POP JUMP JUMPDEST PUSH2 0x119C DUP2 PUSH2 0xD2D JUMP JUMPDEST DUP3 MSTORE POP POP JUMP JUMPDEST PUSH0 PUSH1 0x20 DUP3 ADD SWAP1 POP PUSH2 0x11B5 PUSH0 DUP4 ADD DUP5 PUSH2 0x1193 JUMP JUMPDEST SWAP3 SWAP2 POP POP JUMP JUMPDEST PUSH0 PUSH1 0xFF DUP3 AND SWAP1 POP SWAP2 SWAP1 POP JUMP JUMPDEST PUSH2 0x11D0 DUP2 PUSH2 0x11BB JUMP JUMPDEST DUP2 EQ PUSH2 0x11DA JUMPI PUSH0 PUSH0 REVERT JUMPDEST POP JUMP JUMPDEST PUSH0 DUP2 CALLDATALOAD SWAP1 POP PUSH2 0x11EB DUP2 PUSH2 0x11C7 JUMP JUMPDEST SWAP3 SWAP2 POP POP JUMP JUMPDEST PUSH0 PUSH0 PUSH1 0x40 DUP4 DUP6 SUB SLT ISZERO PUSH2 0x1207 JUMPI PUSH2 0x1206 PUSH2 0xCA8 JUMP JUMPDEST JUMPDEST PUSH0 PUSH2 0x1214 DUP6 DUP3 DUP7 ADD PUSH2 0xCCF JUMP JUMPDEST SWAP3 POP POP PUSH1 0x20 PUSH2 0x1225 DUP6 DUP3 DUP7 ADD PUSH2 0x11DD JUMP JUMPDEST SWAP2 POP POP SWAP3 POP SWAP3 SWAP1 POP JUMP JUMPDEST PUSH32 0x4E487B7100000000000000000000000000000000000000000000000000000000 PUSH0 MSTORE PUSH1 0x11 PUSH1 0x4 MSTORE PUSH1 0x24 PUSH0 REVERT JUMPDEST PUSH0 PUSH2 0x1266 DUP3 PUSH2 0xCB0 JUMP JUMPDEST SWAP2 POP PUSH2 0x1271 DUP4 PUSH2 0xCB0 JUMP JUMPDEST SWAP3 POP DUP3 DUP3 ADD SWAP1 POP DUP1 DUP3 GT ISZERO PUSH2 0x1289 JUMPI PUSH2 0x1288 PUSH2 0x122F JUMP JUMPDEST JUMPDEST SWAP3 SWAP2 POP POP JUMP JUMPDEST PUSH32 0x566F74696E67207374696C6C2061637469766500000000000000000000000000 PUSH0 DUP3 ADD MSTORE POP JUMP JUMPDEST PUSH0 PUSH2 0x12C3 PUSH1 0x13 DUP4 PUSH2 0xDE3 JUMP JUMPDEST SWAP2 POP PUSH2 0x12CE DUP3 PUSH2 0x128F JUMP JUMPDEST PUSH1 0x20 DUP3 ADD SWAP1 POP SWAP2 SWAP1 POP JUMP JUMPDEST PUSH0 PUSH1 0x20 DUP3 ADD SWAP1 POP DUP2 DUP2 SUB PUSH0 DUP4 ADD MSTORE PUSH2 0x12F0 DUP2 PUSH2 0x12B7 JUMP JUMPDEST SWAP1 POP SWAP2 SWAP1 POP JUMP JUMPDEST PUSH32 0x4E6F74206F776E65720000000000000000000000000000000000000000000000 PUSH0 DUP3 ADD MSTORE POP JUMP JUMPDEST PUSH0 PUSH2 0x132B PUSH1 0x9 DUP4 PUSH2 0xDE3 JUMP JUMPDEST SWAP2 POP PUSH2 0x1336 DUP3 PUSH2 0x12F7 JUMP JUMPDEST PUSH1 0x20 DUP3 ADD SWAP1 POP SWAP2 SWAP1 POP JUMP JUMPDEST PUSH0 PUSH1 0x20 DUP3 ADD SWAP1 POP DUP2 DUP2 SUB PUSH0 DUP4 ADD MSTORE PUSH2 0x1358 DUP2 PUSH2 0x131F JUMP JUMPDEST SWAP1 POP SWAP2 SWAP1 POP JUMP JUMPDEST PUSH32 0x4E6F206665657320746F20776974686472617700000000000000000000000000 PUSH0 DUP3 ADD MSTORE POP JUMP JUMPDEST PUSH0 PUSH2 0x1393 PUSH1 0x13 DUP4 PUSH2 0xDE3 JUMP JUMPDEST SWAP2 POP PUSH2 0x139E DUP3 PUSH2 0x135F JUMP JUMPDEST PUSH1 0x20 DUP3 ADD SWAP1 POP SWAP2 SWAP1 POP JUMP JUMPDEST PUSH0 PUSH1 0x20 DUP3 ADD SWAP1 POP DUP2 DUP2 SUB PUSH0 DUP4 ADD MSTORE PUSH2 0x13C0 DUP2 PUSH2 0x1387 JUMP JUMPDEST SWAP1 POP SWAP2 SWAP1 POP JUMP JUMPDEST PUSH0 DUP2 SWAP1 POP SWAP3 SWAP2 POP POP JUMP JUMPDEST POP JUMP JUMPDEST PUSH0 PUSH2 0x13DF PUSH0 DUP4 PUSH2 0x13C7 JUMP JUMPDEST SWAP2 POP PUSH2 0x13EA DUP3 PUSH2 0x13D1 JUMP JUMPDEST PUSH0 DUP3 ADD SWAP1 POP SWAP2 SWAP1 POP JUMP JUMPDEST PUSH0 PUSH2 0x13FE DUP3 PUSH2 0x13D4 JUMP JUMPDEST SWAP2 POP DUP2 SWAP1 POP SWAP2 SWAP1 POP JUMP JUMPDEST PUSH32 0x5472616E73666572206661696C65640000000000000000000000000000000000 PUSH0 DUP3 ADD MSTORE POP JUMP JUMPDEST PUSH0 PUSH2 0x143C PUSH1 0xF DUP4 PUSH2 0xDE3 JUMP JUMPDEST SWAP2 POP PUSH2 0x1447 DUP3 PUSH2 0x1408 JUMP JUMPDEST PUSH1 0x20 DUP3 ADD SWAP1 POP SWAP2 SWAP1 POP JUMP JUMPDEST PUSH0 PUSH1 0x20 DUP3 ADD SWAP1 POP DUP2 DUP2 SUB PUSH0 DUP4 ADD MSTORE PUSH2 0x1469 DUP2 PUSH2 0x1430 JUMP JUMPDEST SWAP1 POP SWAP2 SWAP1 POP JUMP JUMPDEST PUSH32 0x4E487B7100000000000000000000000000000000000000000000000000000000 PUSH0 MSTORE PUSH1 0x22 PUSH1 0x4 MSTORE PUSH1 0x24 PUSH0 REVERT JUMPDEST PUSH0 PUSH1 0x2 DUP3 DIV SWAP1 POP PUSH1 0x1 DUP3 AND DUP1 PUSH2 0x14B4 JUMPI PUSH1 0x7F DUP3 AND SWAP2 POP JUMPDEST PUSH1 0x20 DUP3 LT DUP2 SUB PUSH2 0x14C7 JUMPI PUSH2 0x14C6 PUSH2 0x1470 JUMP JUMPDEST JUMPDEST POP SWAP2 SWAP1 POP JUMP JUMPDEST PUSH0 PUSH2 0x14D7 DUP3 PUSH2 0xCB0 JUMP JUMPDEST SWAP2 POP PUSH32 0xFFFFFFFFFFFFFFFFFFFFFFFFFFFFFFFFFFFFFFFFFFFFFFFFFFFFFFFFFFFFFFFF DUP3 SUB PUSH2 0x1509 JUMPI PUSH2 0x1508 PUSH2 0x122F JUMP JUMPDEST JUMPDEST PUSH1 0x1 DUP3 ADD SWAP1 POP SWAP2 SWAP1 POP JUMP JUMPDEST PUSH0 DUP2 SWAP1 POP DUP2 PUSH0 MSTORE PUSH1 0x20 PUSH0 KECCAK256 SWAP1 POP SWAP2 SWAP1 POP JUMP JUMPDEST PUSH0 PUSH1 0x20 PUSH1 0x1F DUP4 ADD DIV SWAP1 POP SWAP2 SWAP1 POP JUMP JUMPDEST PUSH0 DUP3 DUP3 SHL SWAP1 POP SWAP3 SWAP2 POP POP JUMP JUMPDEST PUSH0 PUSH1 0x8 DUP4 MUL PUSH2 0x1570 PUSH32 0xFFFFFFFFFFFFFFFFFFFFFFFFFFFFFFFFFFFFFFFFFFFFFFFFFFFFFFFFFFFFFFFF DUP3 PUSH2 0x1535 JUMP JUMPDEST PUSH2 0x157A DUP7 DUP4 PUSH2 0x1535 JUMP JUMPDEST SWAP6 POP DUP1 NOT DUP5 AND SWAP4 POP DUP1 DUP7 AND DUP5 OR SWAP3 POP POP POP SWAP4 SWAP3 POP POP POP JUMP JUMPDEST PUSH0 DUP2 SWAP1 POP SWAP2 SWAP1 POP JUMP JUMPDEST PUSH0 PUSH2 0x15B5 PUSH2 0x15B0 PUSH2 0x15AB DUP5 PUSH2 0xCB0 JUMP JUMPDEST PUSH2 0x1592 JUMP JUMPDEST PUSH2 0xCB0 JUMP JUMPDEST SWAP1 POP SWAP2 SWAP1 POP JUMP JUMPDEST PUSH0 DUP2 SWAP1 POP SWAP2 SWAP1 POP JUMP JUMPDEST PUSH2 0x15CE DUP4 PUSH2 0x159B JUMP JUMPDEST PUSH2 0x15E2 PUSH2 0x15DA DUP3 PUSH2 0x15BC JUMP JUMPDEST DUP5 DUP5 SLOAD PUSH2 0x1541 JUMP JUMPDEST DUP3 SSTORE POP POP POP POP JUMP JUMPDEST PUSH0 PUSH0 SWAP1 POP SWAP1 JUMP JUMPDEST PUSH2 0x15F9 PUSH2 0x15EA JUMP JUMPDEST PUSH2 0x1604 DUP2 DUP5 DUP5 PUSH2 0x15C5 JUMP JUMPDEST POP POP POP JUMP JUMPDEST JUMPDEST DUP2 DUP2 LT ISZERO PUSH2 0x1627 JUMPI PUSH2 0x161C PUSH0 DUP3 PUSH2 0x15F1 JUMP JUMPDEST PUSH1 0x1 DUP2 ADD SWAP1 POP PUSH2 0x160A JUMP JUMPDEST POP POP JUMP JUMPDEST PUSH1 0x1F DUP3 GT ISZERO PUSH2 0x166C JUMPI PUSH2 0x163D DUP2 PUSH2 0x1514 JUMP JUMPDEST PUSH2 0x1646 DUP5 PUSH2 0x1526 JUMP JUMPDEST DUP2 ADD PUSH1 0x20 DUP6 LT ISZERO PUSH2 0x1655 JUMPI DUP2 SWAP1 POP JUMPDEST PUSH2 0x1669 PUSH2 0x1661 DUP6 PUSH2 0x1526 JUMP JUMPDEST DUP4 ADD DUP3 PUSH2 0x1609 JUMP JUMPDEST POP POP JUMPDEST POP POP POP JUMP JUMPDEST PUSH0 DUP3 DUP3 SHR SWAP1 POP SWAP3 SWAP2 POP POP JUMP JUMPDEST PUSH0 PUSH2 0x168C PUSH0 NOT DUP5 PUSH1 0x8 MUL PUSH2 0x1671 JUMP JUMPDEST NOT DUP1 DUP4 AND SWAP2 POP POP SWAP3 SWAP2 POP POP JUMP JUMPDEST PUSH0 PUSH2 0x16A4 DUP4 DUP4 PUSH2 0x167D JUMP JUMPDEST SWAP2 POP DUP3 PUSH1 0x2 MUL DUP3 OR SWAP1 POP SWAP3 SWAP2 POP POP JUMP JUMPDEST PUSH2 0x16BD DUP3 PUSH2 0xDD9 JUMP JUMPDEST PUSH8 0xFFFFFFFFFFFFFFFF DUP2 GT ISZERO PUSH2 0x16D6 JUMPI PUSH2 0x16D5 PUSH2 0xFF9 JUMP JUMPDEST JUMPDEST PUSH2 0x16E0 DUP3 SLOAD PUSH2 0x149D JUMP JUMPDEST PUSH2 0x16EB DUP3 DUP3 DUP6 PUSH2 0x162B JUMP JUMPDEST PUSH0 PUSH1 0x20 SWAP1 POP PUSH1 0x1F DUP4 GT PUSH1 0x1 DUP2 EQ PUSH2 0x171C JUMPI PUSH0 DUP5 ISZERO PUSH2 0x170A JUMPI DUP3 DUP8 ADD MLOAD SWAP1 POP JUMPDEST PUSH2 0x1714 DUP6 DUP3 PUSH2 0x1699 JUMP JUMPDEST DUP7 SSTORE POP PUSH2 0x177B JUMP JUMPDEST PUSH1 0x1F NOT DUP5 AND PUSH2 0x172A DUP7 PUSH2 0x1514 JUMP JUMPDEST PUSH0 JUMPDEST DUP3 DUP2 LT ISZERO PUSH2 0x1751 JUMPI DUP5 DUP10 ADD MLOAD DUP3 SSTORE PUSH1 0x1 DUP3 ADD SWAP2 POP PUSH1 0x20 DUP6 ADD SWAP5 POP PUSH1 0x20 DUP2 ADD SWAP1 POP PUSH2 0x172C JUMP JUMPDEST DUP7 DUP4 LT ISZERO PUSH2 0x176E JUMPI DUP5 DUP10 ADD MLOAD PUSH2 0x176A PUSH1 0x1F DUP10 AND DUP3 PUSH2 0x167D JUMP JUMPDEST DUP4 SSTORE POP JUMPDEST PUSH1 0x1 PUSH1 0x2 DUP9 MUL ADD DUP9 SSTORE POP POP POP JUMPDEST POP POP POP POP POP POP JUMP JUMPDEST PUSH0 PUSH1 0x40 DUP3 ADD SWAP1 POP DUP2 DUP2 SUB PUSH0 DUP4 ADD MSTORE PUSH2 0x179B DUP2 DUP6 PUSH2 0xE11 JUMP JUMPDEST SWAP1 POP DUP2 DUP2 SUB PUSH1 0x20 DUP4 ADD MSTORE PUSH2 0x17AF DUP2 DUP5 PUSH2 0xE11 JUMP JUMPDEST SWAP1 POP SWAP4 SWAP3 POP POP POP JUMP JUMPDEST PUSH32 0x4578616374206665652072657175697265640000000000000000000000000000 PUSH0 DUP3 ADD MSTORE POP JUMP JUMPDEST PUSH0 PUSH2 0x17EC PUSH1 0x12 DUP4 PUSH2 0xDE3 JUMP JUMPDEST SWAP2 POP PUSH2 0x17F7 DUP3 PUSH2 0x17B8 JUMP JUMPDEST PUSH1 0x20 DUP3 ADD SWAP1 POP SWAP2 SWAP1 POP JUMP JUMPDEST PUSH0 PUSH1 0x20 DUP3 ADD SWAP1 POP DUP2 DUP2 SUB PUSH0 DUP4 ADD MSTORE PUSH2 0x1819 DUP2 PUSH2 0x17E0 JUMP JUMPDEST SWAP1 POP SWAP2 SWAP1 POP JUMP JUMPDEST PUSH32 0x496E76616C696420626174746C65204944000000000000000000000000000000 PUSH0 DUP3 ADD MSTORE POP JUMP JUMPDEST PUSH0 PUSH2 0x1854 PUSH1 0x11 DUP4 PUSH2 0xDE3 JUMP JUMPDEST SWAP2 POP PUSH2 0x185F DUP3 PUSH2 0x1820 JUMP JUMPDEST PUSH1 0x20 DUP3 ADD SWAP1 POP SWAP2 SWAP1 POP JUMP JUMPDEST PUSH0 PUSH1 0x20 DUP3 ADD SWAP1 POP DUP2 DUP2 SUB PUSH0 DUP4 ADD MSTORE PUSH2 0x1881 DUP2 PUSH2 0x1848 JUMP JUMPDEST SWAP1 POP SWAP2 SWAP1 POP JUMP JUMPDEST PUSH32 0x426174746C6520696E6163746976650000000000000000000000000000000000 PUSH0 DUP3 ADD MSTORE POP JUMP JUMPDEST PUSH0 PUSH2 0x18BC PUSH1 0xF DUP4 PUSH2 0xDE3 JUMP JUMPDEST SWAP2 POP PUSH2 0x18C7 DUP3 PUSH2 0x1888 JUMP JUMPDEST PUSH1 0x20 DUP3 ADD SWAP1 POP SWAP2 SWAP1 POP JUMP JUMPDEST PUSH0 PUSH1 0x20 DUP3 ADD SWAP1 POP DUP2 DUP2 SUB PUSH0 DUP4 ADD MSTORE PUSH2 0x18E9 DUP2 PUSH2 0x18B0 JUMP JUMPDEST SWAP1 POP SWAP2 SWAP1 POP JUMP JUMPDEST PUSH32 0x416C726561647920766F74656400000000000000000000000000000000000000 PUSH0 DUP3 ADD MSTORE POP JUMP JUMPDEST PUSH0 PUSH2 0x1924 PUSH1 0xD DUP4 PUSH2 0xDE3 JUMP JUMPDEST SWAP2 POP PUSH2 0x192F DUP3 PUSH2 0x18F0 JUMP JUMPDEST PUSH1 0x20 DUP3 ADD SWAP1 POP SWAP2 SWAP1 POP JUMP JUMPDEST PUSH0 PUSH1 0x20 DUP3 ADD SWAP1 POP DUP2 DUP2 SUB PUSH0 DUP4 ADD MSTORE PUSH2 0x1951 DUP2 PUSH2 0x1918 JUMP JUMPDEST SWAP1 POP SWAP2 SWAP1 POP JUMP JUMPDEST PUSH32 0x496E76616C69642063686F696365000000000000000000000000000000000000 PUSH0 DUP3 ADD MSTORE POP JUMP JUMPDEST PUSH0 PUSH2 0x198C PUSH1 0xE DUP4 PUSH2 0xDE3 JUMP JUMPDEST SWAP2 POP PUSH2 0x1997 DUP3 PUSH2 0x1958 JUMP JUMPDEST PUSH1 0x20 DUP3 ADD SWAP1 POP SWAP2 SWAP1 POP JUMP JUMPDEST PUSH0 PUSH1 0x20 DUP3 ADD SWAP1 POP DUP2 DUP2 SUB PUSH0 DUP4 ADD MSTORE PUSH2 0x19B9 DUP2 PUSH2 0x1980 JUMP JUMPDEST SWAP1 POP SWAP2 SWAP1 POP JUMP JUMPDEST PUSH32 0x566F74696E6720706572696F64206F7665720000000000000000000000000000 PUSH0 DUP3 ADD MSTORE POP JUMP JUMPDEST PUSH0 PUSH2 0x19F4 PUSH1 0x12 DUP4 PUSH2 0xDE3 JUMP JUMPDEST SWAP2 POP PUSH2 0x19FF DUP3 PUSH2 0x19C0 JUMP JUMPDEST PUSH1 0x20 DUP3 ADD SWAP1 POP SWAP2 SWAP1 POP JUMP JUMPDEST PUSH0 PUSH1 0x20 DUP3 ADD SWAP1 POP DUP2 DUP2 SUB PUSH0 DUP4 ADD MSTORE PUSH2 0x1A21 DUP2 PUSH2 0x19E8 JUMP JUMPDEST SWAP1 POP SWAP2 SWAP1 POP JUMP JUMPDEST PUSH2 0x1A31 DUP2 PUSH2 0x11BB JUMP JUMPDEST DUP3 MSTORE POP POP JUMP JUMPDEST PUSH0 PUSH1 0x20 DUP3 ADD SWAP1 POP PUSH2 0x1A4A PUSH0 DUP4 ADD DUP5 PUSH2 0x1A28 JUMP JUMPDEST SWAP3 SWAP2 POP POP JUMP INVALID LOG2 PUSH5 0x6970667358 0x22 SLT KECCAK256 EXTCODECOPY PC 0x2C 0xCE SWAP3 PREVRANDAO 0xE9 0xE3 PUSH27 0xFDEFC25C111625FBF16F0979069730328E7EB6D49401764736F6C PUSH4 0x4300081C STOP CALLER "
				},
				"gasEstimates": {
					"creation": {
						"codeDepositCost": "1358000",
						"executionCost": "25680",
						"totalCost": "1383680"
					},
					"external": {
						"": "195",
						"VOTE_FEE()": "325",
						"VOTING_PERIOD()": "413",
						"battleCount()": "2535",
						"battles(uint256)": "infinite",
						"createBattle(string,string)": "infinite",
						"endBattle(uint256)": "infinite",
						"getBattle(uint256)": "infinite",
						"hasVoted(uint256,address)": "3093",
						"owner()": "2552",
						"vote(uint256,uint8)": "infinite",
						"withdrawFees()": "infinite"
					}
				},
				"methodIdentifiers": {
					"VOTE_FEE()": "7ef4aa7b",
					"VOTING_PERIOD()": "b1610d7e",
					"battleCount()": "e00b6363",
					"battles(uint256)": "606d2e96",
					"createBattle(string,string)": "86f3c603",
					"endBattle(uint256)": "4157e6ef",
					"getBattle(uint256)": "6dd0ce7a",
					"hasVoted(uint256,address)": "43859632",
					"owner()": "8da5cb5b",
					"vote(uint256,uint8)": "943e8216",
					"withdrawFees()": "476343ee"
				}
			},
			"storageLayout": {
				"storage": [
					{
						"astId": 19,
						"contract": "pratice/memebattlefee.sol:MemeBattles",
						"label": "battles",
						"offset": 0,
						"slot": "0",
						"type": "t_mapping(t_uint256,t_struct(Battle)14_storage)"
					},
					{
						"astId": 25,
						"contract": "pratice/memebattlefee.sol:MemeBattles",
						"label": "hasVoted",
						"offset": 0,
						"slot": "1",
						"type": "t_mapping(t_uint256,t_mapping(t_address,t_bool))"
					},
					{
						"astId": 27,
						"contract": "pratice/memebattlefee.sol:MemeBattles",
						"label": "battleCount",
						"offset": 0,
						"slot": "2",
						"type": "t_uint256"
					},
					{
						"astId": 32,
						"contract": "pratice/memebattlefee.sol:MemeBattles",
						"label": "owner",
						"offset": 0,
						"slot": "3",
						"type": "t_address"
					}
				],
				"types": {
					"t_address": {
						"encoding": "inplace",
						"label": "address",
						"numberOfBytes": "20"
					},
					"t_bool": {
						"encoding": "inplace",
						"label": "bool",
						"numberOfBytes": "1"
					},
					"t_mapping(t_address,t_bool)": {
						"encoding": "mapping",
						"key": "t_address",
						"label": "mapping(address => bool)",
						"numberOfBytes": "32",
						"value": "t_bool"
					},
					"t_mapping(t_uint256,t_mapping(t_address,t_bool))": {
						"encoding": "mapping",
						"key": "t_uint256",
						"label": "mapping(uint256 => mapping(address => bool))",
						"numberOfBytes": "32",
						"value": "t_mapping(t_address,t_bool)"
					},
					"t_mapping(t_uint256,t_struct(Battle)14_storage)": {
						"encoding": "mapping",
						"key": "t_uint256",
						"label": "mapping(uint256 => struct MemeBattles.Battle)",
						"numberOfBytes": "32",
						"value": "t_struct(Battle)14_storage"
					},
					"t_string_storage": {
						"encoding": "bytes",
						"label": "string",
						"numberOfBytes": "32"
					},
					"t_struct(Battle)14_storage": {
						"encoding": "inplace",
						"label": "struct MemeBattles.Battle",
						"members": [
							{
								"astId": 3,
								"contract": "pratice/memebattlefee.sol:MemeBattles",
								"label": "castA",
								"offset": 0,
								"slot": "0",
								"type": "t_string_storage"
							},
							{
								"astId": 5,
								"contract": "pratice/memebattlefee.sol:MemeBattles",
								"label": "castB",
								"offset": 0,
								"slot": "1",
								"type": "t_string_storage"
							},
							{
								"astId": 7,
								"contract": "pratice/memebattlefee.sol:MemeBattles",
								"label": "votesA",
								"offset": 0,
								"slot": "2",
								"type": "t_uint256"
							},
							{
								"astId": 9,
								"contract": "pratice/memebattlefee.sol:MemeBattles",
								"label": "votesB",
								"offset": 0,
								"slot": "3",
								"type": "t_uint256"
							},
							{
								"astId": 11,
								"contract": "pratice/memebattlefee.sol:MemeBattles",
								"label": "isActive",
								"offset": 0,
								"slot": "4",
								"type": "t_bool"
							},
							{
								"astId": 13,
								"contract": "pratice/memebattlefee.sol:MemeBattles",
								"label": "createdAt",
								"offset": 0,
								"slot": "5",
								"type": "t_uint256"
							}
						],
						"numberOfBytes": "192"
					},
					"t_uint256": {
						"encoding": "inplace",
						"label": "uint256",
						"numberOfBytes": "32"
					}
				}
			},
			"userdoc": {
				"kind": "user",
				"methods": {},
				"version": 1
			}
		}
	}
}